{
    "_format": "hh-sol-artifact-1",
    "contractName": "IDCDS",
    "sourceName": "contracts/IDCDS.sol",
    "abi": [
        {
            "inputs": [],
            "stateMutability": "payable",
            "type": "constructor"
        },
        {
            "anonymous": false,
            "inputs": [
                {
                    "indexed": true,
                    "internalType": "address",
                    "name": "owner",
                    "type": "address"
                },
                {
                    "indexed": true,
                    "internalType": "address",
                    "name": "approved",
                    "type": "address"
                },
                {
                    "indexed": true,
                    "internalType": "uint256",
                    "name": "tokenId",
                    "type": "uint256"
                }
            ],
            "name": "Approval",
            "type": "event"
        },
        {
            "anonymous": false,
            "inputs": [
                {
                    "indexed": true,
                    "internalType": "address",
                    "name": "owner",
                    "type": "address"
                },
                {
                    "indexed": true,
                    "internalType": "address",
                    "name": "operator",
                    "type": "address"
                },
                {
                    "indexed": false,
                    "internalType": "bool",
                    "name": "approved",
                    "type": "bool"
                }
            ],
            "name": "ApprovalForAll",
            "type": "event"
        },
        {
            "anonymous": false,
            "inputs": [
                {
                    "indexed": true,
                    "internalType": "address",
                    "name": "previousOwner",
                    "type": "address"
                },
                {
                    "indexed": true,
                    "internalType": "address",
                    "name": "newOwner",
                    "type": "address"
                }
            ],
            "name": "OwnershipTransferred",
            "type": "event"
        },
        {
            "anonymous": false,
            "inputs": [
                {
                    "indexed": true,
                    "internalType": "address",
                    "name": "from",
                    "type": "address"
                },
                {
                    "indexed": true,
                    "internalType": "address",
                    "name": "to",
                    "type": "address"
                },
                {
                    "indexed": true,
                    "internalType": "uint256",
                    "name": "tokenId",
                    "type": "uint256"
                }
            ],
            "name": "Transfer",
            "type": "event"
        },
        {
            "inputs": [
                {
                    "internalType": "address",
                    "name": "to",
                    "type": "address"
                },
                {
                    "internalType": "uint256",
                    "name": "tokenId",
                    "type": "uint256"
                }
            ],
            "name": "approve",
            "outputs": [],
            "stateMutability": "nonpayable",
            "type": "function"
        },
        {
            "inputs": [
                {
                    "internalType": "address",
                    "name": "owner",
                    "type": "address"
                }
            ],
            "name": "balanceOf",
            "outputs": [
                {
                    "internalType": "uint256",
                    "name": "",
                    "type": "uint256"
                }
            ],
            "stateMutability": "view",
            "type": "function"
        },
        {
            "inputs": [
                {
                    "internalType": "uint256",
                    "name": "tokenId",
                    "type": "uint256"
                }
            ],
            "name": "getApproved",
            "outputs": [
                {
                    "internalType": "address",
                    "name": "",
                    "type": "address"
                }
            ],
            "stateMutability": "view",
            "type": "function"
        },
        {
            "inputs": [
                {
                    "internalType": "address",
                    "name": "owner",
                    "type": "address"
                }
            ],
            "name": "getOwnedTokens",
            "outputs": [
                {
                    "internalType": "uint256[]",
                    "name": "",
                    "type": "uint256[]"
                }
            ],
            "stateMutability": "view",
            "type": "function"
        },
        {
            "inputs": [
                {
                    "internalType": "address",
                    "name": "owner",
                    "type": "address"
                },
                {
                    "internalType": "address",
                    "name": "operator",
                    "type": "address"
                }
            ],
            "name": "isApprovedForAll",
            "outputs": [
                {
                    "internalType": "bool",
                    "name": "",
                    "type": "bool"
                }
            ],
            "stateMutability": "view",
            "type": "function"
        },
        {
            "inputs": [],
            "name": "isPublicMintEnabled",
            "outputs": [
                {
                    "internalType": "bool",
                    "name": "",
                    "type": "bool"
                }
            ],
            "stateMutability": "view",
            "type": "function"
        },
        {
            "inputs": [],
            "name": "maxPerWallet",
            "outputs": [
                {
                    "internalType": "uint256",
                    "name": "",
                    "type": "uint256"
                }
            ],
            "stateMutability": "view",
            "type": "function"
        },
        {
            "inputs": [],
            "name": "maxSupply",
            "outputs": [
                {
                    "internalType": "uint256",
                    "name": "",
                    "type": "uint256"
                }
            ],
            "stateMutability": "view",
            "type": "function"
        },
        {
            "inputs": [
                {
                    "internalType": "uint256",
                    "name": "quantity_",
                    "type": "uint256"
                }
            ],
            "name": "mint",
            "outputs": [],
            "stateMutability": "payable",
            "type": "function"
        },
        {
            "inputs": [],
            "name": "mintPrice",
            "outputs": [
                {
                    "internalType": "uint256",
                    "name": "",
                    "type": "uint256"
                }
            ],
            "stateMutability": "view",
            "type": "function"
        },
        {
            "inputs": [],
            "name": "name",
            "outputs": [
                {
                    "internalType": "string",
                    "name": "",
                    "type": "string"
                }
            ],
            "stateMutability": "view",
            "type": "function"
        },
        {
            "inputs": [],
            "name": "owner",
            "outputs": [
                {
                    "internalType": "address",
                    "name": "",
                    "type": "address"
                }
            ],
            "stateMutability": "view",
            "type": "function"
        },
        {
            "inputs": [
                {
                    "internalType": "uint256",
                    "name": "tokenId",
                    "type": "uint256"
                }
            ],
            "name": "ownerOf",
            "outputs": [
                {
                    "internalType": "address",
                    "name": "",
                    "type": "address"
                }
            ],
            "stateMutability": "view",
            "type": "function"
        },
        {
            "inputs": [],
            "name": "renounceOwnership",
            "outputs": [],
            "stateMutability": "nonpayable",
            "type": "function"
        },
        {
            "inputs": [
                {
                    "internalType": "address",
                    "name": "from",
                    "type": "address"
                },
                {
                    "internalType": "address",
                    "name": "to",
                    "type": "address"
                },
                {
                    "internalType": "uint256",
                    "name": "tokenId",
                    "type": "uint256"
                }
            ],
            "name": "safeTransferFrom",
            "outputs": [],
            "stateMutability": "nonpayable",
            "type": "function"
        },
        {
            "inputs": [
                {
                    "internalType": "address",
                    "name": "from",
                    "type": "address"
                },
                {
                    "internalType": "address",
                    "name": "to",
                    "type": "address"
                },
                {
                    "internalType": "uint256",
                    "name": "tokenId",
                    "type": "uint256"
                },
                {
                    "internalType": "bytes",
                    "name": "_data",
                    "type": "bytes"
                }
            ],
            "name": "safeTransferFrom",
            "outputs": [],
            "stateMutability": "nonpayable",
            "type": "function"
        },
        {
            "inputs": [
                {
                    "internalType": "address",
                    "name": "operator",
                    "type": "address"
                },
                {
                    "internalType": "bool",
                    "name": "approved",
                    "type": "bool"
                }
            ],
            "name": "setApprovalForAll",
            "outputs": [],
            "stateMutability": "nonpayable",
            "type": "function"
        },
        {
            "inputs": [
                {
                    "internalType": "string",
                    "name": "baseTokenURI_",
                    "type": "string"
                }
            ],
            "name": "setBaseTokenURI",
            "outputs": [],
            "stateMutability": "nonpayable",
            "type": "function"
        },
        {
            "inputs": [
                {
                    "internalType": "bool",
                    "name": "isPublicMintEnabled_",
                    "type": "bool"
                }
            ],
            "name": "setPublicMintEnabled",
            "outputs": [],
            "stateMutability": "nonpayable",
            "type": "function"
        },
        {
            "inputs": [
                {
                    "internalType": "bytes4",
                    "name": "interfaceId",
                    "type": "bytes4"
                }
            ],
            "name": "supportsInterface",
            "outputs": [
                {
                    "internalType": "bool",
                    "name": "",
                    "type": "bool"
                }
            ],
            "stateMutability": "view",
            "type": "function"
        },
        {
            "inputs": [],
            "name": "symbol",
            "outputs": [
                {
                    "internalType": "string",
                    "name": "",
                    "type": "string"
                }
            ],
            "stateMutability": "view",
            "type": "function"
        },
        {
            "inputs": [
                {
                    "internalType": "uint256",
                    "name": "tokenId_",
                    "type": "uint256"
                }
            ],
            "name": "tokenURI",
            "outputs": [
                {
                    "internalType": "string",
                    "name": "",
                    "type": "string"
                }
            ],
            "stateMutability": "view",
            "type": "function"
        },
        {
            "inputs": [],
            "name": "totalSupply",
            "outputs": [
                {
                    "internalType": "uint256",
                    "name": "",
                    "type": "uint256"
                }
            ],
            "stateMutability": "view",
            "type": "function"
        },
        {
            "inputs": [
                {
                    "internalType": "address",
                    "name": "from",
                    "type": "address"
                },
                {
                    "internalType": "address",
                    "name": "to",
                    "type": "address"
                },
                {
                    "internalType": "uint256",
                    "name": "tokenId",
                    "type": "uint256"
                }
            ],
            "name": "transferFrom",
            "outputs": [],
            "stateMutability": "nonpayable",
            "type": "function"
        },
        {
            "inputs": [
                {
                    "internalType": "address",
                    "name": "newOwner",
                    "type": "address"
                }
            ],
            "name": "transferOwnership",
            "outputs": [],
            "stateMutability": "nonpayable",
            "type": "function"
        },
        {
            "inputs": [
                {
                    "internalType": "address",
                    "name": "",
                    "type": "address"
                }
            ],
            "name": "walletMints",
            "outputs": [
                {
                    "internalType": "uint256",
                    "name": "",
                    "type": "uint256"
                }
            ],
            "stateMutability": "view",
            "type": "function"
        },
        {
            "inputs": [],
            "name": "withdraw",
            "outputs": [],
            "stateMutability": "nonpayable",
            "type": "function"
        },
        {
            "inputs": [],
            "name": "withdrawWallet",
            "outputs": [
                {
                    "internalType": "address payable",
                    "name": "",
                    "type": "address"
                }
            ],
            "stateMutability": "view",
            "type": "function"
        }
    ],
    "bytecode": "0x60806040526040518060400160405280600581526020017f49444344530000000000000000000000000000000000000000000000000000008152506040518060400160405280600581526020017f49444344530000000000000000000000000000000000000000000000000000008152508160009081620000819190620003f6565b508060019081620000939190620003f6565b5050506000620000a86200017460201b60201c565b905080600660006101000a81548173ffffffffffffffffffffffffffffffffffffffff021916908373ffffffffffffffffffffffffffffffffffffffff1602179055508073ffffffffffffffffffffffffffffffffffffffff16600073ffffffffffffffffffffffffffffffffffffffff167f8be0079c531659141344cd1fd0a4f28419497f9722a3daafe3b4186f6b6457e060405160405180910390a35066470de4df82000060078190555060006008819055506127106009819055506064600c81905550620004dd565b600033905090565b600081519050919050565b7f4e487b7100000000000000000000000000000000000000000000000000000000600052604160045260246000fd5b7f4e487b7100000000000000000000000000000000000000000000000000000000600052602260045260246000fd5b60006002820490506001821680620001fe57607f821691505b602082108103620002145762000213620001b6565b5b50919050565b60008190508160005260206000209050919050565b60006020601f8301049050919050565b600082821b905092915050565b6000600883026200027e7fffffffffffffffffffffffffffffffffffffffffffffffffffffffffffffffff826200023f565b6200028a86836200023f565b95508019841693508086168417925050509392505050565b6000819050919050565b6000819050919050565b6000620002d7620002d1620002cb84620002a2565b620002ac565b620002a2565b9050919050565b6000819050919050565b620002f383620002b6565b6200030b6200030282620002de565b8484546200024c565b825550505050565b600090565b6200032262000313565b6200032f818484620002e8565b505050565b5b8181101562000357576200034b60008262000318565b60018101905062000335565b5050565b601f821115620003a65762000370816200021a565b6200037b846200022f565b810160208510156200038b578190505b620003a36200039a856200022f565b83018262000334565b50505b505050565b600082821c905092915050565b6000620003cb60001984600802620003ab565b1980831691505092915050565b6000620003e68383620003b8565b9150826002028217905092915050565b62000401826200017c565b67ffffffffffffffff8111156200041d576200041c62000187565b5b620004298254620001e5565b620004368282856200035b565b600060209050601f8311600181146200046e576000841562000459578287015190505b620004658582620003d8565b865550620004d5565b601f1984166200047e866200021a565b60005b82811015620004a85784890151825560018201915060208501945060208101905062000481565b86831015620004c85784890151620004c4601f891682620003b8565b8355505b6001600288020188555050505b505050505050565b61410a80620004ed6000396000f3fe6080604052600436106101b75760003560e01c8063715018a6116100ec578063b88d4fde1161008a578063d9d6165511610064578063d9d61655146105d9578063e985e9c514610616578063f0293fd314610653578063f2fde38b14610690576101b7565b8063b88d4fde14610548578063c87b56dd14610571578063d5abeb01146105ae576101b7565b80638da5cb5b116100c65780638da5cb5b146104ad57806395d89b41146104d8578063a0712d6814610503578063a22cb4651461051f576101b7565b8063715018a614610442578063818668d71461045957806385d178f414610482576101b7565b806330176e1311610159578063453c231011610133578063453c2310146103725780636352211e1461039d5780636817c76c146103da57806370a0823114610405576101b7565b806330176e13146103095780633ccfd60b1461033257806342842e0e14610349576101b7565b8063081812fc11610195578063081812fc1461024f578063095ea7b31461028c57806318160ddd146102b557806323b872dd146102e0576101b7565b80630116bc2d146101bc57806301ffc9a7146101e757806306fdde0314610224575b600080fd5b3480156101c857600080fd5b506101d16106b9565b6040516101de91906126af565b60405180910390f35b3480156101f357600080fd5b5061020e60048036038101906102099190612736565b6106cc565b60405161021b91906126af565b60405180910390f35b34801561023057600080fd5b506102396107ae565b60405161024691906127f3565b60405180910390f35b34801561025b57600080fd5b506102766004803603810190610271919061284b565b610840565b60405161028391906128b9565b60405180910390f35b34801561029857600080fd5b506102b360048036038101906102ae9190612900565b6108c5565b005b3480156102c157600080fd5b506102ca6109dc565b6040516102d7919061294f565b60405180910390f35b3480156102ec57600080fd5b506103076004803603810190610302919061296a565b6109e2565b005b34801561031557600080fd5b50610330600480360381019061032b9190612a22565b610a42565b005b34801561033e57600080fd5b50610347610ad4565b005b34801561035557600080fd5b50610370600480360381019061036b919061296a565b610c21565b005b34801561037e57600080fd5b50610387610c41565b604051610394919061294f565b60405180910390f35b3480156103a957600080fd5b506103c460048036038101906103bf919061284b565b610c47565b6040516103d191906128b9565b60405180910390f35b3480156103e657600080fd5b506103ef610cf8565b6040516103fc919061294f565b60405180910390f35b34801561041157600080fd5b5061042c60048036038101906104279190612a6f565b610cfe565b604051610439919061294f565b60405180910390f35b34801561044e57600080fd5b50610457610db5565b005b34801561046557600080fd5b50610480600480360381019061047b9190612ac8565b610ef2565b005b34801561048e57600080fd5b50610497610f8b565b6040516104a49190612b16565b60405180910390f35b3480156104b957600080fd5b506104c2610fb1565b6040516104cf91906128b9565b60405180910390f35b3480156104e457600080fd5b506104ed610fdb565b6040516104fa91906127f3565b60405180910390f35b61051d6004803603810190610518919061284b565b61106d565b005b34801561052b57600080fd5b5061054660048036038101906105419190612b31565b611244565b005b34801561055457600080fd5b5061056f600480360381019061056a9190612ca1565b6113c4565b005b34801561057d57600080fd5b506105986004803603810190610593919061284b565b611426565b6040516105a591906127f3565b60405180910390f35b3480156105ba57600080fd5b506105c36114a2565b6040516105d0919061294f565b60405180910390f35b3480156105e557600080fd5b5061060060048036038101906105fb9190612a6f565b6114a8565b60405161060d9190612de2565b60405180910390f35b34801561062257600080fd5b5061063d60048036038101906106389190612e04565b61161b565b60405161064a91906126af565b60405180910390f35b34801561065f57600080fd5b5061067a60048036038101906106759190612a6f565b6116af565b604051610687919061294f565b60405180910390f35b34801561069c57600080fd5b506106b760048036038101906106b29190612a6f565b6116c7565b005b600a60009054906101000a900460ff1681565b60007f80ac58cd000000000000000000000000000000000000000000000000000000007bffffffffffffffffffffffffffffffffffffffffffffffffffffffff1916827bffffffffffffffffffffffffffffffffffffffffffffffffffffffff1916148061079757507f5b5e139f000000000000000000000000000000000000000000000000000000007bffffffffffffffffffffffffffffffffffffffffffffffffffffffff1916827bffffffffffffffffffffffffffffffffffffffffffffffffffffffff1916145b806107a757506107a682611872565b5b9050919050565b6060600080546107bd90612e73565b80601f01602080910402602001604051908101604052809291908181526020018280546107e990612e73565b80156108365780601f1061080b57610100808354040283529160200191610836565b820191906000526020600020905b81548152906001019060200180831161081957829003601f168201915b5050505050905090565b600061084b826118dc565b61088a576040517f08c379a000000000000000000000000000000000000000000000000000000000815260040161088190612f16565b60405180910390fd5b6004600083815260200190815260200160002060009054906101000a900473ffffffffffffffffffffffffffffffffffffffff169050919050565b60006108d082610c47565b90508073ffffffffffffffffffffffffffffffffffffffff168373ffffffffffffffffffffffffffffffffffffffff1603610940576040517f08c379a000000000000000000000000000000000000000000000000000000000815260040161093790612fa8565b60405180910390fd5b8073ffffffffffffffffffffffffffffffffffffffff1661095f611948565b73ffffffffffffffffffffffffffffffffffffffff16148061098e575061098d81610988611948565b61161b565b5b6109cd576040517f08c379a00000000000000000000000000000000000000000000000000000000081526004016109c49061303a565b60405180910390fd5b6109d78383611950565b505050565b60085481565b6109f36109ed611948565b82611a09565b610a32576040517f08c379a0000000000000000000000000000000000000000000000000000000008152600401610a29906130cc565b60405180910390fd5b610a3d838383611ae7565b505050565b610a4a611948565b73ffffffffffffffffffffffffffffffffffffffff16610a68610fb1565b73ffffffffffffffffffffffffffffffffffffffff1614610abe576040517f08c379a0000000000000000000000000000000000000000000000000000000008152600401610ab590613138565b60405180910390fd5b8181600b9182610acf92919061330f565b505050565b610adc611948565b73ffffffffffffffffffffffffffffffffffffffff16610afa610fb1565b73ffffffffffffffffffffffffffffffffffffffff1614610b50576040517f08c379a0000000000000000000000000000000000000000000000000000000008152600401610b4790613138565b60405180910390fd5b6000600d60009054906101000a900473ffffffffffffffffffffffffffffffffffffffff1673ffffffffffffffffffffffffffffffffffffffff1647604051610b9890613410565b60006040518083038185875af1925050503d8060008114610bd5576040519150601f19603f3d011682016040523d82523d6000602084013e610bda565b606091505b5050905080610c1e576040517f08c379a0000000000000000000000000000000000000000000000000000000008152600401610c1590613471565b60405180910390fd5b50565b610c3c838383604051806020016040528060008152506113c4565b505050565b600c5481565b6000806002600084815260200190815260200160002060009054906101000a900473ffffffffffffffffffffffffffffffffffffffff169050600073ffffffffffffffffffffffffffffffffffffffff168173ffffffffffffffffffffffffffffffffffffffff1603610cef576040517f08c379a0000000000000000000000000000000000000000000000000000000008152600401610ce690613503565b60405180910390fd5b80915050919050565b60075481565b60008073ffffffffffffffffffffffffffffffffffffffff168273ffffffffffffffffffffffffffffffffffffffff1603610d6e576040517f08c379a0000000000000000000000000000000000000000000000000000000008152600401610d6590613595565b60405180910390fd5b600360008373ffffffffffffffffffffffffffffffffffffffff1673ffffffffffffffffffffffffffffffffffffffff168152602001908152602001600020549050919050565b610dbd611948565b73ffffffffffffffffffffffffffffffffffffffff16610ddb610fb1565b73ffffffffffffffffffffffffffffffffffffffff1614610e31576040517f08c379a0000000000000000000000000000000000000000000000000000000008152600401610e2890613138565b60405180910390fd5b600073ffffffffffffffffffffffffffffffffffffffff16600660009054906101000a900473ffffffffffffffffffffffffffffffffffffffff1673ffffffffffffffffffffffffffffffffffffffff167f8be0079c531659141344cd1fd0a4f28419497f9722a3daafe3b4186f6b6457e060405160405180910390a36000600660006101000a81548173ffffffffffffffffffffffffffffffffffffffff021916908373ffffffffffffffffffffffffffffffffffffffff160217905550565b610efa611948565b73ffffffffffffffffffffffffffffffffffffffff16610f18610fb1565b73ffffffffffffffffffffffffffffffffffffffff1614610f6e576040517f08c379a0000000000000000000000000000000000000000000000000000000008152600401610f6590613138565b60405180910390fd5b80600a60006101000a81548160ff02191690831515021790555050565b600d60009054906101000a900473ffffffffffffffffffffffffffffffffffffffff1681565b6000600660009054906101000a900473ffffffffffffffffffffffffffffffffffffffff16905090565b606060018054610fea90612e73565b80601f016020809104026020016040519081016040528092919081815260200182805461101690612e73565b80156110635780601f1061103857610100808354040283529160200191611063565b820191906000526020600020905b81548152906001019060200180831161104657829003601f168201915b5050505050905090565b600a60009054906101000a900460ff166110bc576040517f08c379a00000000000000000000000000000000000000000000000000000000081526004016110b390613601565b60405180910390fd5b600754816110ca9190613650565b341461110b576040517f08c379a0000000000000000000000000000000000000000000000000000000008152600401611102906136de565b60405180910390fd5b6009548160085461111c91906136fe565b111561115d576040517f08c379a00000000000000000000000000000000000000000000000000000000081526004016111549061377e565b60405180910390fd5b600c5481600e60003373ffffffffffffffffffffffffffffffffffffffff1673ffffffffffffffffffffffffffffffffffffffff168152602001908152602001600020546111ab91906136fe565b11156111ec576040517f08c379a00000000000000000000000000000000000000000000000000000000081526004016111e3906137ea565b60405180910390fd5b60005b81811015611240576000600160085461120891906136fe565b90506008600081548092919061121d9061380a565b919050555061122c3382611d42565b5080806112389061380a565b9150506111ef565b5050565b61124c611948565b73ffffffffffffffffffffffffffffffffffffffff168273ffffffffffffffffffffffffffffffffffffffff16036112b9576040517f08c379a00000000000000000000000000000000000000000000000000000000081526004016112b09061389e565b60405180910390fd5b80600560006112c6611948565b73ffffffffffffffffffffffffffffffffffffffff1673ffffffffffffffffffffffffffffffffffffffff16815260200190815260200160002060008473ffffffffffffffffffffffffffffffffffffffff1673ffffffffffffffffffffffffffffffffffffffff16815260200190815260200160002060006101000a81548160ff0219169083151502179055508173ffffffffffffffffffffffffffffffffffffffff16611373611948565b73ffffffffffffffffffffffffffffffffffffffff167f17307eab39ab6107e8899845ad3d59bd9653f200f220920489ca2b5937696c31836040516113b891906126af565b60405180910390a35050565b6113d56113cf611948565b83611a09565b611414576040517f08c379a000000000000000000000000000000000000000000000000000000000815260040161140b906130cc565b60405180910390fd5b61142084848484611d60565b50505050565b6060611431826118dc565b611470576040517f08c379a000000000000000000000000000000000000000000000000000000000815260040161146790613930565b60405180910390fd5b600b61147b83611dbc565b60405160200161148c929190613a5b565b6040516020818303038152906040529050919050565b60095481565b606060006114f3600f60008573ffffffffffffffffffffffffffffffffffffffff1673ffffffffffffffffffffffffffffffffffffffff168152602001908152602001600020611f1c565b67ffffffffffffffff81111561150c5761150b612b76565b5b60405190808252806020026020018201604052801561153a5781602001602082028036833780820191505090505b50905060005b611587600f60008673ffffffffffffffffffffffffffffffffffffffff1673ffffffffffffffffffffffffffffffffffffffff168152602001908152602001600020611f1c565b811015611611576115df81600f60008773ffffffffffffffffffffffffffffffffffffffff1673ffffffffffffffffffffffffffffffffffffffff168152602001908152602001600020611f3190919063ffffffff16565b8282815181106115f2576115f1613a8a565b5b60200260200101818152505080806116099061380a565b915050611540565b5080915050919050565b6000600560008473ffffffffffffffffffffffffffffffffffffffff1673ffffffffffffffffffffffffffffffffffffffff16815260200190815260200160002060008373ffffffffffffffffffffffffffffffffffffffff1673ffffffffffffffffffffffffffffffffffffffff16815260200190815260200160002060009054906101000a900460ff16905092915050565b600e6020528060005260406000206000915090505481565b6116cf611948565b73ffffffffffffffffffffffffffffffffffffffff166116ed610fb1565b73ffffffffffffffffffffffffffffffffffffffff1614611743576040517f08c379a000000000000000000000000000000000000000000000000000000000815260040161173a90613138565b60405180910390fd5b600073ffffffffffffffffffffffffffffffffffffffff168173ffffffffffffffffffffffffffffffffffffffff16036117b2576040517f08c379a00000000000000000000000000000000000000000000000000000000081526004016117a990613b2b565b60405180910390fd5b8073ffffffffffffffffffffffffffffffffffffffff16600660009054906101000a900473ffffffffffffffffffffffffffffffffffffffff1673ffffffffffffffffffffffffffffffffffffffff167f8be0079c531659141344cd1fd0a4f28419497f9722a3daafe3b4186f6b6457e060405160405180910390a380600660006101000a81548173ffffffffffffffffffffffffffffffffffffffff021916908373ffffffffffffffffffffffffffffffffffffffff16021790555050565b60007f01ffc9a7000000000000000000000000000000000000000000000000000000007bffffffffffffffffffffffffffffffffffffffffffffffffffffffff1916827bffffffffffffffffffffffffffffffffffffffffffffffffffffffff1916149050919050565b60008073ffffffffffffffffffffffffffffffffffffffff166002600084815260200190815260200160002060009054906101000a900473ffffffffffffffffffffffffffffffffffffffff1673ffffffffffffffffffffffffffffffffffffffff1614159050919050565b600033905090565b816004600083815260200190815260200160002060006101000a81548173ffffffffffffffffffffffffffffffffffffffff021916908373ffffffffffffffffffffffffffffffffffffffff160217905550808273ffffffffffffffffffffffffffffffffffffffff166119c383610c47565b73ffffffffffffffffffffffffffffffffffffffff167f8c5be1e5ebec7d5bd14f71427d1e84f3dd0314c0f7b2291e5b200ac8c7c3b92560405160405180910390a45050565b6000611a14826118dc565b611a53576040517f08c379a0000000000000000000000000000000000000000000000000000000008152600401611a4a90613bbd565b60405180910390fd5b6000611a5e83610c47565b90508073ffffffffffffffffffffffffffffffffffffffff168473ffffffffffffffffffffffffffffffffffffffff161480611acd57508373ffffffffffffffffffffffffffffffffffffffff16611ab584610840565b73ffffffffffffffffffffffffffffffffffffffff16145b80611ade5750611add818561161b565b5b91505092915050565b8273ffffffffffffffffffffffffffffffffffffffff16611b0782610c47565b73ffffffffffffffffffffffffffffffffffffffff1614611b5d576040517f08c379a0000000000000000000000000000000000000000000000000000000008152600401611b5490613c4f565b60405180910390fd5b600073ffffffffffffffffffffffffffffffffffffffff168273ffffffffffffffffffffffffffffffffffffffff1603611bcc576040517f08c379a0000000000000000000000000000000000000000000000000000000008152600401611bc390613ce1565b60405180910390fd5b611bd7838383611f4b565b611be2600082611950565b6001600360008573ffffffffffffffffffffffffffffffffffffffff1673ffffffffffffffffffffffffffffffffffffffff1681526020019081526020016000206000828254611c329190613d01565b925050819055506001600360008473ffffffffffffffffffffffffffffffffffffffff1673ffffffffffffffffffffffffffffffffffffffff1681526020019081526020016000206000828254611c8991906136fe565b92505081905550816002600083815260200190815260200160002060006101000a81548173ffffffffffffffffffffffffffffffffffffffff021916908373ffffffffffffffffffffffffffffffffffffffff160217905550808273ffffffffffffffffffffffffffffffffffffffff168473ffffffffffffffffffffffffffffffffffffffff167fddf252ad1be2c89b69c2b068fc378daa952ba7f163c4a11628f55a4df523b3ef60405160405180910390a4505050565b611d5c828260405180602001604052806000815250612069565b5050565b611d6b848484611ae7565b611d77848484846120c4565b611db6576040517f08c379a0000000000000000000000000000000000000000000000000000000008152600401611dad90613da7565b60405180910390fd5b50505050565b606060008203611e03576040518060400160405280600181526020017f30000000000000000000000000000000000000000000000000000000000000008152509050611f17565b600082905060005b60008214611e35578080611e1e9061380a565b915050600a82611e2e9190613df6565b9150611e0b565b60008167ffffffffffffffff811115611e5157611e50612b76565b5b6040519080825280601f01601f191660200182016040528015611e835781602001600182028036833780820191505090505b5090505b60008514611f1057600182611e9c9190613d01565b9150600a85611eab9190613e27565b6030611eb791906136fe565b60f81b818381518110611ecd57611ecc613a8a565b5b60200101907effffffffffffffffffffffffffffffffffffffffffffffffffffffffffffff1916908160001a905350600a85611f099190613df6565b9450611e87565b8093505050505b919050565b6000611f2a8260000161224b565b9050919050565b6000611f40836000018361225c565b60001c905092915050565b611f568383836122d0565b600073ffffffffffffffffffffffffffffffffffffffff168373ffffffffffffffffffffffffffffffffffffffff1614611fdd57611fdb81600f60008673ffffffffffffffffffffffffffffffffffffffff1673ffffffffffffffffffffffffffffffffffffffff1681526020019081526020016000206122d590919063ffffffff16565b505b600073ffffffffffffffffffffffffffffffffffffffff168273ffffffffffffffffffffffffffffffffffffffff16146120645761206281600f60008573ffffffffffffffffffffffffffffffffffffffff1673ffffffffffffffffffffffffffffffffffffffff1681526020019081526020016000206122ef90919063ffffffff16565b505b505050565b6120738383612309565b61208060008484846120c4565b6120bf576040517f08c379a00000000000000000000000000000000000000000000000000000000081526004016120b690613da7565b60405180910390fd5b505050565b60006120e58473ffffffffffffffffffffffffffffffffffffffff166124d6565b1561223e578373ffffffffffffffffffffffffffffffffffffffff1663150b7a0261210e611948565b8786866040518563ffffffff1660e01b81526004016121309493929190613ead565b6020604051808303816000875af192505050801561216c57506040513d601f19601f820116820180604052508101906121699190613f0e565b60015b6121ee573d806000811461219c576040519150601f19603f3d011682016040523d82523d6000602084013e6121a1565b606091505b5060008151036121e6576040517f08c379a00000000000000000000000000000000000000000000000000000000081526004016121dd90613da7565b60405180910390fd5b805181602001fd5b63150b7a0260e01b7bffffffffffffffffffffffffffffffffffffffffffffffffffffffff1916817bffffffffffffffffffffffffffffffffffffffffffffffffffffffff191614915050612243565b600190505b949350505050565b600081600001805490509050919050565b6000818360000180549050116122a7576040517f08c379a000000000000000000000000000000000000000000000000000000000815260040161229e90613fad565b60405180910390fd5b8260000182815481106122bd576122bc613a8a565b5b9060005260206000200154905092915050565b505050565b60006122e7836000018360001b6124e9565b905092915050565b6000612301836000018360001b612601565b905092915050565b600073ffffffffffffffffffffffffffffffffffffffff168273ffffffffffffffffffffffffffffffffffffffff1603612378576040517f08c379a000000000000000000000000000000000000000000000000000000000815260040161236f90614019565b60405180910390fd5b612381816118dc565b156123c1576040517f08c379a00000000000000000000000000000000000000000000000000000000081526004016123b890614085565b60405180910390fd5b6123cd60008383611f4b565b6001600360008473ffffffffffffffffffffffffffffffffffffffff1673ffffffffffffffffffffffffffffffffffffffff168152602001908152602001600020600082825461241d91906136fe565b92505081905550816002600083815260200190815260200160002060006101000a81548173ffffffffffffffffffffffffffffffffffffffff021916908373ffffffffffffffffffffffffffffffffffffffff160217905550808273ffffffffffffffffffffffffffffffffffffffff16600073ffffffffffffffffffffffffffffffffffffffff167fddf252ad1be2c89b69c2b068fc378daa952ba7f163c4a11628f55a4df523b3ef60405160405180910390a45050565b600080823b905060008111915050919050565b600080836001016000848152602001908152602001600020549050600081146125f557600060018261251b9190613d01565b90506000600186600001805490506125339190613d01565b9050600086600001828154811061254d5761254c613a8a565b5b906000526020600020015490508087600001848154811061257157612570613a8a565b5b906000526020600020018190555060018361258c91906136fe565b87600101600083815260200190815260200160002081905550866000018054806125b9576125b86140a5565b5b600190038181906000526020600020016000905590558660010160008781526020019081526020016000206000905560019450505050506125fb565b60009150505b92915050565b600061260d8383612671565b61266657826000018290806001815401808255809150506001900390600052602060002001600090919091909150558260000180549050836001016000848152602001908152602001600020819055506001905061266b565b600090505b92915050565b600080836001016000848152602001908152602001600020541415905092915050565b60008115159050919050565b6126a981612694565b82525050565b60006020820190506126c460008301846126a0565b92915050565b6000604051905090565b600080fd5b600080fd5b60007fffffffff0000000000000000000000000000000000000000000000000000000082169050919050565b612713816126de565b811461271e57600080fd5b50565b6000813590506127308161270a565b92915050565b60006020828403121561274c5761274b6126d4565b5b600061275a84828501612721565b91505092915050565b600081519050919050565b600082825260208201905092915050565b60005b8381101561279d578082015181840152602081019050612782565b60008484015250505050565b6000601f19601f8301169050919050565b60006127c582612763565b6127cf818561276e565b93506127df81856020860161277f565b6127e8816127a9565b840191505092915050565b6000602082019050818103600083015261280d81846127ba565b905092915050565b6000819050919050565b61282881612815565b811461283357600080fd5b50565b6000813590506128458161281f565b92915050565b600060208284031215612861576128606126d4565b5b600061286f84828501612836565b91505092915050565b600073ffffffffffffffffffffffffffffffffffffffff82169050919050565b60006128a382612878565b9050919050565b6128b381612898565b82525050565b60006020820190506128ce60008301846128aa565b92915050565b6128dd81612898565b81146128e857600080fd5b50565b6000813590506128fa816128d4565b92915050565b60008060408385031215612917576129166126d4565b5b6000612925858286016128eb565b925050602061293685828601612836565b9150509250929050565b61294981612815565b82525050565b60006020820190506129646000830184612940565b92915050565b600080600060608486031215612983576129826126d4565b5b6000612991868287016128eb565b93505060206129a2868287016128eb565b92505060406129b386828701612836565b9150509250925092565b600080fd5b600080fd5b600080fd5b60008083601f8401126129e2576129e16129bd565b5b8235905067ffffffffffffffff8111156129ff576129fe6129c2565b5b602083019150836001820283011115612a1b57612a1a6129c7565b5b9250929050565b60008060208385031215612a3957612a386126d4565b5b600083013567ffffffffffffffff811115612a5757612a566126d9565b5b612a63858286016129cc565b92509250509250929050565b600060208284031215612a8557612a846126d4565b5b6000612a93848285016128eb565b91505092915050565b612aa581612694565b8114612ab057600080fd5b50565b600081359050612ac281612a9c565b92915050565b600060208284031215612ade57612add6126d4565b5b6000612aec84828501612ab3565b91505092915050565b6000612b0082612878565b9050919050565b612b1081612af5565b82525050565b6000602082019050612b2b6000830184612b07565b92915050565b60008060408385031215612b4857612b476126d4565b5b6000612b56858286016128eb565b9250506020612b6785828601612ab3565b9150509250929050565b600080fd5b7f4e487b7100000000000000000000000000000000000000000000000000000000600052604160045260246000fd5b612bae826127a9565b810181811067ffffffffffffffff82111715612bcd57612bcc612b76565b5b80604052505050565b6000612be06126ca565b9050612bec8282612ba5565b919050565b600067ffffffffffffffff821115612c0c57612c0b612b76565b5b612c15826127a9565b9050602081019050919050565b82818337600083830152505050565b6000612c44612c3f84612bf1565b612bd6565b905082815260208101848484011115612c6057612c5f612b71565b5b612c6b848285612c22565b509392505050565b600082601f830112612c8857612c876129bd565b5b8135612c98848260208601612c31565b91505092915050565b60008060008060808587031215612cbb57612cba6126d4565b5b6000612cc9878288016128eb565b9450506020612cda878288016128eb565b9350506040612ceb87828801612836565b925050606085013567ffffffffffffffff811115612d0c57612d0b6126d9565b5b612d1887828801612c73565b91505092959194509250565b600081519050919050565b600082825260208201905092915050565b6000819050602082019050919050565b612d5981612815565b82525050565b6000612d6b8383612d50565b60208301905092915050565b6000602082019050919050565b6000612d8f82612d24565b612d998185612d2f565b9350612da483612d40565b8060005b83811015612dd5578151612dbc8882612d5f565b9750612dc783612d77565b925050600181019050612da8565b5085935050505092915050565b60006020820190508181036000830152612dfc8184612d84565b905092915050565b60008060408385031215612e1b57612e1a6126d4565b5b6000612e29858286016128eb565b9250506020612e3a858286016128eb565b9150509250929050565b7f4e487b7100000000000000000000000000000000000000000000000000000000600052602260045260246000fd5b60006002820490506001821680612e8b57607f821691505b602082108103612e9e57612e9d612e44565b5b50919050565b7f4552433732313a20617070726f76656420717565727920666f72206e6f6e657860008201527f697374656e7420746f6b656e0000000000000000000000000000000000000000602082015250565b6000612f00602c8361276e565b9150612f0b82612ea4565b604082019050919050565b60006020820190508181036000830152612f2f81612ef3565b9050919050565b7f4552433732313a20617070726f76616c20746f2063757272656e74206f776e6560008201527f7200000000000000000000000000000000000000000000000000000000000000602082015250565b6000612f9260218361276e565b9150612f9d82612f36565b604082019050919050565b60006020820190508181036000830152612fc181612f85565b9050919050565b7f4552433732313a20617070726f76652063616c6c6572206973206e6f74206f7760008201527f6e6572206e6f7220617070726f76656420666f7220616c6c0000000000000000602082015250565b600061302460388361276e565b915061302f82612fc8565b604082019050919050565b6000602082019050818103600083015261305381613017565b9050919050565b7f4552433732313a207472616e736665722063616c6c6572206973206e6f74206f60008201527f776e6572206e6f7220617070726f766564000000000000000000000000000000602082015250565b60006130b660318361276e565b91506130c18261305a565b604082019050919050565b600060208201905081810360008301526130e5816130a9565b9050919050565b7f4f776e61626c653a2063616c6c6572206973206e6f7420746865206f776e6572600082015250565b600061312260208361276e565b915061312d826130ec565b602082019050919050565b6000602082019050818103600083015261315181613115565b9050919050565b600082905092915050565b60008190508160005260206000209050919050565b60006020601f8301049050919050565b600082821b905092915050565b6000600883026131c57fffffffffffffffffffffffffffffffffffffffffffffffffffffffffffffffff82613188565b6131cf8683613188565b95508019841693508086168417925050509392505050565b6000819050919050565b600061320c61320761320284612815565b6131e7565b612815565b9050919050565b6000819050919050565b613226836131f1565b61323a61323282613213565b848454613195565b825550505050565b600090565b61324f613242565b61325a81848461321d565b505050565b5b8181101561327e57613273600082613247565b600181019050613260565b5050565b601f8211156132c35761329481613163565b61329d84613178565b810160208510156132ac578190505b6132c06132b885613178565b83018261325f565b50505b505050565b600082821c905092915050565b60006132e6600019846008026132c8565b1980831691505092915050565b60006132ff83836132d5565b9150826002028217905092915050565b6133198383613158565b67ffffffffffffffff81111561333257613331612b76565b5b61333c8254612e73565b613347828285613282565b6000601f8311600181146133765760008415613364578287013590505b61336e85826132f3565b8655506133d6565b601f19841661338486613163565b60005b828110156133ac57848901358255600182019150602085019450602081019050613387565b868310156133c957848901356133c5601f8916826132d5565b8355505b6001600288020188555050505b50505050505050565b600081905092915050565b50565b60006133fa6000836133df565b9150613405826133ea565b600082019050919050565b600061341b826133ed565b9150819050919050565b7f5769746864726177616c206661696c6564000000000000000000000000000000600082015250565b600061345b60118361276e565b915061346682613425565b602082019050919050565b6000602082019050818103600083015261348a8161344e565b9050919050565b7f4552433732313a206f776e657220717565727920666f72206e6f6e657869737460008201527f656e7420746f6b656e0000000000000000000000000000000000000000000000602082015250565b60006134ed60298361276e565b91506134f882613491565b604082019050919050565b6000602082019050818103600083015261351c816134e0565b9050919050565b7f4552433732313a2062616c616e636520717565727920666f7220746865207a6560008201527f726f206164647265737300000000000000000000000000000000000000000000602082015250565b600061357f602a8361276e565b915061358a82613523565b604082019050919050565b600060208201905081810360008301526135ae81613572565b9050919050565b7f5075626c6963206d696e74696e67206973206e6f7420656e61626c6564000000600082015250565b60006135eb601d8361276e565b91506135f6826135b5565b602082019050919050565b6000602082019050818103600083015261361a816135de565b9050919050565b7f4e487b7100000000000000000000000000000000000000000000000000000000600052601160045260246000fd5b600061365b82612815565b915061366683612815565b925082820261367481612815565b9150828204841483151761368b5761368a613621565b5b5092915050565b7f496e636f7272656374204554482076616c756500000000000000000000000000600082015250565b60006136c860138361276e565b91506136d382613692565b602082019050919050565b600060208201905081810360008301526136f7816136bb565b9050919050565b600061370982612815565b915061371483612815565b925082820190508082111561372c5761372b613621565b5b92915050565b7f4e6f7420656e6f75676820746f6b656e73206c65667400000000000000000000600082015250565b600061376860168361276e565b915061377382613732565b602082019050919050565b600060208201905081810360008301526137978161375b565b9050919050565b7f4d6178207065722077616c6c6574000000000000000000000000000000000000600082015250565b60006137d4600e8361276e565b91506137df8261379e565b602082019050919050565b60006020820190508181036000830152613803816137c7565b9050919050565b600061381582612815565b91507fffffffffffffffffffffffffffffffffffffffffffffffffffffffffffffffff820361384757613846613621565b5b600182019050919050565b7f4552433732313a20617070726f766520746f2063616c6c657200000000000000600082015250565b600061388860198361276e565b915061389382613852565b602082019050919050565b600060208201905081810360008301526138b78161387b565b9050919050565b7f4552433732314d657461646174613a2055524920717565727920666f72206e6f60008201527f6e6578697374656e7420746f6b656e0000000000000000000000000000000000602082015250565b600061391a602f8361276e565b9150613925826138be565b604082019050919050565b600060208201905081810360008301526139498161390d565b9050919050565b600081905092915050565b6000815461396881612e73565b6139728186613950565b9450600182166000811461398d57600181146139a2576139d5565b60ff19831686528115158202860193506139d5565b6139ab85613163565b60005b838110156139cd578154818901526001820191506020810190506139ae565b838801955050505b50505092915050565b60006139e982612763565b6139f38185613950565b9350613a0381856020860161277f565b80840191505092915050565b7f2e6a736f6e000000000000000000000000000000000000000000000000000000600082015250565b6000613a45600583613950565b9150613a5082613a0f565b600582019050919050565b6000613a67828561395b565b9150613a7382846139de565b9150613a7e82613a38565b91508190509392505050565b7f4e487b7100000000000000000000000000000000000000000000000000000000600052603260045260246000fd5b7f4f776e61626c653a206e6577206f776e657220697320746865207a65726f206160008201527f6464726573730000000000000000000000000000000000000000000000000000602082015250565b6000613b1560268361276e565b9150613b2082613ab9565b604082019050919050565b60006020820190508181036000830152613b4481613b08565b9050919050565b7f4552433732313a206f70657261746f7220717565727920666f72206e6f6e657860008201527f697374656e7420746f6b656e0000000000000000000000000000000000000000602082015250565b6000613ba7602c8361276e565b9150613bb282613b4b565b604082019050919050565b60006020820190508181036000830152613bd681613b9a565b9050919050565b7f4552433732313a207472616e73666572206f6620746f6b656e2074686174206960008201527f73206e6f74206f776e0000000000000000000000000000000000000000000000602082015250565b6000613c3960298361276e565b9150613c4482613bdd565b604082019050919050565b60006020820190508181036000830152613c6881613c2c565b9050919050565b7f4552433732313a207472616e7366657220746f20746865207a65726f2061646460008201527f7265737300000000000000000000000000000000000000000000000000000000602082015250565b6000613ccb60248361276e565b9150613cd682613c6f565b604082019050919050565b60006020820190508181036000830152613cfa81613cbe565b9050919050565b6000613d0c82612815565b9150613d1783612815565b9250828203905081811115613d2f57613d2e613621565b5b92915050565b7f4552433732313a207472616e7366657220746f206e6f6e20455243373231526560008201527f63656976657220696d706c656d656e7465720000000000000000000000000000602082015250565b6000613d9160328361276e565b9150613d9c82613d35565b604082019050919050565b60006020820190508181036000830152613dc081613d84565b9050919050565b7f4e487b7100000000000000000000000000000000000000000000000000000000600052601260045260246000fd5b6000613e0182612815565b9150613e0c83612815565b925082613e1c57613e1b613dc7565b5b828204905092915050565b6000613e3282612815565b9150613e3d83612815565b925082613e4d57613e4c613dc7565b5b828206905092915050565b600081519050919050565b600082825260208201905092915050565b6000613e7f82613e58565b613e898185613e63565b9350613e9981856020860161277f565b613ea2816127a9565b840191505092915050565b6000608082019050613ec260008301876128aa565b613ecf60208301866128aa565b613edc6040830185612940565b8181036060830152613eee8184613e74565b905095945050505050565b600081519050613f088161270a565b92915050565b600060208284031215613f2457613f236126d4565b5b6000613f3284828501613ef9565b91505092915050565b7f456e756d657261626c655365743a20696e646578206f7574206f6620626f756e60008201527f6473000000000000000000000000000000000000000000000000000000000000602082015250565b6000613f9760228361276e565b9150613fa282613f3b565b604082019050919050565b60006020820190508181036000830152613fc681613f8a565b9050919050565b7f4552433732313a206d696e7420746f20746865207a65726f2061646472657373600082015250565b600061400360208361276e565b915061400e82613fcd565b602082019050919050565b6000602082019050818103600083015261403281613ff6565b9050919050565b7f4552433732313a20746f6b656e20616c7265616479206d696e74656400000000600082015250565b600061406f601c8361276e565b915061407a82614039565b602082019050919050565b6000602082019050818103600083015261409e81614062565b9050919050565b7f4e487b7100000000000000000000000000000000000000000000000000000000600052603160045260246000fdfea264697066735822122008ad3a7902397515ac505861867a0a92ff0c7313eab947ca56399d430e2a35f764736f6c63430008140033",
    "linkReferences": {},
    "deployedLinkReferences": {}
}