{
  "_format": "hh-sol-artifact-1",
  "contractName": "IDCDS",
  "sourceName": "contracts/IDCDS.sol",
  "abi": [
    {
      "inputs": [],
      "stateMutability": "payable",
      "type": "constructor"
    },
    {
      "anonymous": false,
      "inputs": [
        {
          "indexed": true,
          "internalType": "address",
          "name": "owner",
          "type": "address"
        },
        {
          "indexed": true,
          "internalType": "address",
          "name": "approved",
          "type": "address"
        },
        {
          "indexed": true,
          "internalType": "uint256",
          "name": "tokenId",
          "type": "uint256"
        }
      ],
      "name": "Approval",
      "type": "event"
    },
    {
      "anonymous": false,
      "inputs": [
        {
          "indexed": true,
          "internalType": "address",
          "name": "owner",
          "type": "address"
        },
        {
          "indexed": true,
          "internalType": "address",
          "name": "operator",
          "type": "address"
        },
        {
          "indexed": false,
          "internalType": "bool",
          "name": "approved",
          "type": "bool"
        }
      ],
      "name": "ApprovalForAll",
      "type": "event"
    },
    {
      "anonymous": false,
      "inputs": [
        {
          "indexed": true,
          "internalType": "address",
          "name": "previousOwner",
          "type": "address"
        },
        {
          "indexed": true,
          "internalType": "address",
          "name": "newOwner",
          "type": "address"
        }
      ],
      "name": "OwnershipTransferred",
      "type": "event"
    },
    {
      "anonymous": false,
      "inputs": [
        {
          "indexed": true,
          "internalType": "uint256",
          "name": "tokenId",
          "type": "uint256"
        },
        {
          "indexed": false,
          "internalType": "string",
          "name": "tokenURI",
          "type": "string"
        }
      ],
      "name": "TokenURISet",
      "type": "event"
    },
    {
      "anonymous": false,
      "inputs": [
        {
          "indexed": true,
          "internalType": "address",
          "name": "from",
          "type": "address"
        },
        {
          "indexed": true,
          "internalType": "address",
          "name": "to",
          "type": "address"
        },
        {
          "indexed": true,
          "internalType": "uint256",
          "name": "tokenId",
          "type": "uint256"
        }
      ],
      "name": "Transfer",
      "type": "event"
    },
    {
      "inputs": [
        {
          "internalType": "address",
          "name": "to",
          "type": "address"
        },
        {
          "internalType": "uint256",
          "name": "tokenId",
          "type": "uint256"
        }
      ],
      "name": "approve",
      "outputs": [],
      "stateMutability": "nonpayable",
      "type": "function"
    },
    {
      "inputs": [
        {
          "internalType": "address",
          "name": "owner",
          "type": "address"
        }
      ],
      "name": "balanceOf",
      "outputs": [
        {
          "internalType": "uint256",
          "name": "",
          "type": "uint256"
        }
      ],
      "stateMutability": "view",
      "type": "function"
    },
    {
      "inputs": [
        {
          "internalType": "uint256",
          "name": "tokenId",
          "type": "uint256"
        }
      ],
      "name": "getApproved",
      "outputs": [
        {
          "internalType": "address",
          "name": "",
          "type": "address"
        }
      ],
      "stateMutability": "view",
      "type": "function"
    },
    {
      "inputs": [
        {
          "internalType": "address",
          "name": "owner",
          "type": "address"
        }
      ],
      "name": "getOwnedTokens",
      "outputs": [
        {
          "internalType": "uint256[]",
          "name": "",
          "type": "uint256[]"
        }
      ],
      "stateMutability": "view",
      "type": "function"
    },
    {
      "inputs": [
        {
          "internalType": "address",
          "name": "owner",
          "type": "address"
        },
        {
          "internalType": "address",
          "name": "operator",
          "type": "address"
        }
      ],
      "name": "isApprovedForAll",
      "outputs": [
        {
          "internalType": "bool",
          "name": "",
          "type": "bool"
        }
      ],
      "stateMutability": "view",
      "type": "function"
    },
    {
      "inputs": [],
      "name": "isPublicMintEnabled",
      "outputs": [
        {
          "internalType": "bool",
          "name": "",
          "type": "bool"
        }
      ],
      "stateMutability": "view",
      "type": "function"
    },
    {
      "inputs": [],
      "name": "maxPerWallet",
      "outputs": [
        {
          "internalType": "uint256",
          "name": "",
          "type": "uint256"
        }
      ],
      "stateMutability": "view",
      "type": "function"
    },
    {
      "inputs": [],
      "name": "maxSupply",
      "outputs": [
        {
          "internalType": "uint256",
          "name": "",
          "type": "uint256"
        }
      ],
      "stateMutability": "view",
      "type": "function"
    },
    {
      "inputs": [
        {
          "internalType": "uint256",
          "name": "quantity_",
          "type": "uint256"
        },
        {
          "internalType": "string",
          "name": "tokenURI_",
          "type": "string"
        }
      ],
      "name": "mint",
      "outputs": [],
      "stateMutability": "payable",
      "type": "function"
    },
    {
      "inputs": [],
      "name": "mintPrice",
      "outputs": [
        {
          "internalType": "uint256",
          "name": "",
          "type": "uint256"
        }
      ],
      "stateMutability": "view",
      "type": "function"
    },
    {
      "inputs": [],
      "name": "name",
      "outputs": [
        {
          "internalType": "string",
          "name": "",
          "type": "string"
        }
      ],
      "stateMutability": "view",
      "type": "function"
    },
    {
      "inputs": [],
      "name": "owner",
      "outputs": [
        {
          "internalType": "address",
          "name": "",
          "type": "address"
        }
      ],
      "stateMutability": "view",
      "type": "function"
    },
    {
      "inputs": [
        {
          "internalType": "uint256",
          "name": "tokenId",
          "type": "uint256"
        }
      ],
      "name": "ownerOf",
      "outputs": [
        {
          "internalType": "address",
          "name": "",
          "type": "address"
        }
      ],
      "stateMutability": "view",
      "type": "function"
    },
    {
      "inputs": [],
      "name": "renounceOwnership",
      "outputs": [],
      "stateMutability": "nonpayable",
      "type": "function"
    },
    {
      "inputs": [
        {
          "internalType": "address",
          "name": "from",
          "type": "address"
        },
        {
          "internalType": "address",
          "name": "to",
          "type": "address"
        },
        {
          "internalType": "uint256",
          "name": "tokenId",
          "type": "uint256"
        }
      ],
      "name": "safeTransferFrom",
      "outputs": [],
      "stateMutability": "nonpayable",
      "type": "function"
    },
    {
      "inputs": [
        {
          "internalType": "address",
          "name": "from",
          "type": "address"
        },
        {
          "internalType": "address",
          "name": "to",
          "type": "address"
        },
        {
          "internalType": "uint256",
          "name": "tokenId",
          "type": "uint256"
        },
        {
          "internalType": "bytes",
          "name": "_data",
          "type": "bytes"
        }
      ],
      "name": "safeTransferFrom",
      "outputs": [],
      "stateMutability": "nonpayable",
      "type": "function"
    },
    {
      "inputs": [
        {
          "internalType": "address",
          "name": "operator",
          "type": "address"
        },
        {
          "internalType": "bool",
          "name": "approved",
          "type": "bool"
        }
      ],
      "name": "setApprovalForAll",
      "outputs": [],
      "stateMutability": "nonpayable",
      "type": "function"
    },
    {
      "inputs": [
        {
          "internalType": "bool",
          "name": "isPublicMintEnabled_",
          "type": "bool"
        }
      ],
      "name": "setPublicMintEnabled",
      "outputs": [],
      "stateMutability": "nonpayable",
      "type": "function"
    },
    {
      "inputs": [
        {
          "internalType": "bytes4",
          "name": "interfaceId",
          "type": "bytes4"
        }
      ],
      "name": "supportsInterface",
      "outputs": [
        {
          "internalType": "bool",
          "name": "",
          "type": "bool"
        }
      ],
      "stateMutability": "view",
      "type": "function"
    },
    {
      "inputs": [],
      "name": "symbol",
      "outputs": [
        {
          "internalType": "string",
          "name": "",
          "type": "string"
        }
      ],
      "stateMutability": "view",
      "type": "function"
    },
    {
      "inputs": [
        {
          "internalType": "uint256",
          "name": "tokenId",
          "type": "uint256"
        }
      ],
      "name": "tokenURI",
      "outputs": [
        {
          "internalType": "string",
          "name": "",
          "type": "string"
        }
      ],
      "stateMutability": "view",
      "type": "function"
    },
    {
      "inputs": [],
      "name": "totalSupply",
      "outputs": [
        {
          "internalType": "uint256",
          "name": "",
          "type": "uint256"
        }
      ],
      "stateMutability": "view",
      "type": "function"
    },
    {
      "inputs": [
        {
          "internalType": "address",
          "name": "from",
          "type": "address"
        },
        {
          "internalType": "address",
          "name": "to",
          "type": "address"
        },
        {
          "internalType": "uint256",
          "name": "tokenId",
          "type": "uint256"
        }
      ],
      "name": "transferFrom",
      "outputs": [],
      "stateMutability": "nonpayable",
      "type": "function"
    },
    {
      "inputs": [
        {
          "internalType": "address",
          "name": "newOwner",
          "type": "address"
        }
      ],
      "name": "transferOwnership",
      "outputs": [],
      "stateMutability": "nonpayable",
      "type": "function"
    },
    {
      "inputs": [
        {
          "internalType": "address",
          "name": "",
          "type": "address"
        }
      ],
      "name": "walletMints",
      "outputs": [
        {
          "internalType": "uint256",
          "name": "",
          "type": "uint256"
        }
      ],
      "stateMutability": "view",
      "type": "function"
    },
    {
      "inputs": [],
      "name": "withdraw",
      "outputs": [],
      "stateMutability": "nonpayable",
      "type": "function"
    },
    {
      "inputs": [],
      "name": "withdrawWallet",
      "outputs": [
        {
          "internalType": "address payable",
          "name": "",
          "type": "address"
        }
      ],
      "stateMutability": "view",
      "type": "function"
    }
  ],
  "bytecode": "0x60806040526040518060400160405280600581526020017f49444344530000000000000000000000000000000000000000000000000000008152506040518060400160405280600581526020017f49444344530000000000000000000000000000000000000000000000000000008152508160009081620000819190620003f6565b508060019081620000939190620003f6565b5050506000620000a86200017460201b60201c565b905080600660006101000a81548173ffffffffffffffffffffffffffffffffffffffff021916908373ffffffffffffffffffffffffffffffffffffffff1602179055508073ffffffffffffffffffffffffffffffffffffffff16600073ffffffffffffffffffffffffffffffffffffffff167f8be0079c531659141344cd1fd0a4f28419497f9722a3daafe3b4186f6b6457e060405160405180910390a35066470de4df82000060078190555060006008819055506127106009819055506064600b81905550620004dd565b600033905090565b600081519050919050565b7f4e487b7100000000000000000000000000000000000000000000000000000000600052604160045260246000fd5b7f4e487b7100000000000000000000000000000000000000000000000000000000600052602260045260246000fd5b60006002820490506001821680620001fe57607f821691505b602082108103620002145762000213620001b6565b5b50919050565b60008190508160005260206000209050919050565b60006020601f8301049050919050565b600082821b905092915050565b6000600883026200027e7fffffffffffffffffffffffffffffffffffffffffffffffffffffffffffffffff826200023f565b6200028a86836200023f565b95508019841693508086168417925050509392505050565b6000819050919050565b6000819050919050565b6000620002d7620002d1620002cb84620002a2565b620002ac565b620002a2565b9050919050565b6000819050919050565b620002f383620002b6565b6200030b6200030282620002de565b8484546200024c565b825550505050565b600090565b6200032262000313565b6200032f818484620002e8565b505050565b5b8181101562000357576200034b60008262000318565b60018101905062000335565b5050565b601f821115620003a65762000370816200021a565b6200037b846200022f565b810160208510156200038b578190505b620003a36200039a856200022f565b83018262000334565b50505b505050565b600082821c905092915050565b6000620003cb60001984600802620003ab565b1980831691505092915050565b6000620003e68383620003b8565b9150826002028217905092915050565b62000401826200017c565b67ffffffffffffffff8111156200041d576200041c62000187565b5b620004298254620001e5565b620004368282856200035b565b600060209050601f8311600181146200046e576000841562000459578287015190505b620004658582620003d8565b865550620004d5565b601f1984166200047e866200021a565b60005b82811015620004a85784890151825560018201915060208501945060208101905062000481565b86831015620004c85784890151620004c4601f891682620003b8565b8355505b6001600288020188555050505b505050505050565b613db480620004ed6000396000f3fe60806040526004361061019c5760003560e01c8063715018a6116100ec578063b88d4fde1161008a578063d9d6165511610064578063d9d6165514610595578063e985e9c5146105d2578063f0293fd31461060f578063f2fde38b1461064c5761019c565b8063b88d4fde14610504578063c87b56dd1461052d578063d5abeb011461056a5761019c565b806385d178f4116100c657806385d178f41461045a5780638da5cb5b1461048557806395d89b41146104b0578063a22cb465146104db5761019c565b8063715018a6146103fe57806377097fc814610415578063818668d7146104315761019c565b806323b872dd11610159578063453c231011610133578063453c23101461032e5780636352211e146103595780636817c76c1461039657806370a08231146103c15761019c565b806323b872dd146102c55780633ccfd60b146102ee57806342842e0e146103055761019c565b80630116bc2d146101a157806301ffc9a7146101cc57806306fdde0314610209578063081812fc14610234578063095ea7b31461027157806318160ddd1461029a575b600080fd5b3480156101ad57600080fd5b506101b6610675565b6040516101c391906126a7565b60405180910390f35b3480156101d857600080fd5b506101f360048036038101906101ee919061272e565b610688565b60405161020091906126a7565b60405180910390f35b34801561021557600080fd5b5061021e61076a565b60405161022b91906127eb565b60405180910390f35b34801561024057600080fd5b5061025b60048036038101906102569190612843565b6107fc565b60405161026891906128b1565b60405180910390f35b34801561027d57600080fd5b50610298600480360381019061029391906128f8565b610881565b005b3480156102a657600080fd5b506102af610998565b6040516102bc9190612947565b60405180910390f35b3480156102d157600080fd5b506102ec60048036038101906102e79190612962565b61099e565b005b3480156102fa57600080fd5b506103036109fe565b005b34801561031157600080fd5b5061032c60048036038101906103279190612962565b610b4b565b005b34801561033a57600080fd5b50610343610b6b565b6040516103509190612947565b60405180910390f35b34801561036557600080fd5b50610380600480360381019061037b9190612843565b610b71565b60405161038d91906128b1565b60405180910390f35b3480156103a257600080fd5b506103ab610c22565b6040516103b89190612947565b60405180910390f35b3480156103cd57600080fd5b506103e860048036038101906103e391906129b5565b610c28565b6040516103f59190612947565b60405180910390f35b34801561040a57600080fd5b50610413610cdf565b005b61042f600480360381019061042a9190612a47565b610e1c565b005b34801561043d57600080fd5b5061045860048036038101906104539190612ad3565b611043565b005b34801561046657600080fd5b5061046f6110dc565b60405161047c9190612b21565b60405180910390f35b34801561049157600080fd5b5061049a611102565b6040516104a791906128b1565b60405180910390f35b3480156104bc57600080fd5b506104c561112c565b6040516104d291906127eb565b60405180910390f35b3480156104e757600080fd5b5061050260048036038101906104fd9190612b3c565b6111be565b005b34801561051057600080fd5b5061052b60048036038101906105269190612cac565b61133e565b005b34801561053957600080fd5b50610554600480360381019061054f9190612843565b6113a0565b60405161056191906127eb565b60405180910390f35b34801561057657600080fd5b5061057f611447565b60405161058c9190612947565b60405180910390f35b3480156105a157600080fd5b506105bc60048036038101906105b791906129b5565b61144d565b6040516105c99190612ded565b60405180910390f35b3480156105de57600080fd5b506105f960048036038101906105f49190612e0f565b6115c0565b60405161060691906126a7565b60405180910390f35b34801561061b57600080fd5b50610636600480360381019061063191906129b5565b611654565b6040516106439190612947565b60405180910390f35b34801561065857600080fd5b50610673600480360381019061066e91906129b5565b61166c565b005b600a60009054906101000a900460ff1681565b60007f80ac58cd000000000000000000000000000000000000000000000000000000007bffffffffffffffffffffffffffffffffffffffffffffffffffffffff1916827bffffffffffffffffffffffffffffffffffffffffffffffffffffffff1916148061075357507f5b5e139f000000000000000000000000000000000000000000000000000000007bffffffffffffffffffffffffffffffffffffffffffffffffffffffff1916827bffffffffffffffffffffffffffffffffffffffffffffffffffffffff1916145b80610763575061076282611817565b5b9050919050565b60606000805461077990612e7e565b80601f01602080910402602001604051908101604052809291908181526020018280546107a590612e7e565b80156107f25780601f106107c7576101008083540402835291602001916107f2565b820191906000526020600020905b8154815290600101906020018083116107d557829003601f168201915b5050505050905090565b600061080782611881565b610846576040517f08c379a000000000000000000000000000000000000000000000000000000000815260040161083d90612f21565b60405180910390fd5b6004600083815260200190815260200160002060009054906101000a900473ffffffffffffffffffffffffffffffffffffffff169050919050565b600061088c82610b71565b90508073ffffffffffffffffffffffffffffffffffffffff168373ffffffffffffffffffffffffffffffffffffffff16036108fc576040517f08c379a00000000000000000000000000000000000000000000000000000000081526004016108f390612fb3565b60405180910390fd5b8073ffffffffffffffffffffffffffffffffffffffff1661091b6118ed565b73ffffffffffffffffffffffffffffffffffffffff16148061094a5750610949816109446118ed565b6115c0565b5b610989576040517f08c379a000000000000000000000000000000000000000000000000000000000815260040161098090613045565b60405180910390fd5b61099383836118f5565b505050565b60085481565b6109af6109a96118ed565b826119ae565b6109ee576040517f08c379a00000000000000000000000000000000000000000000000000000000081526004016109e5906130d7565b60405180910390fd5b6109f9838383611a8c565b505050565b610a066118ed565b73ffffffffffffffffffffffffffffffffffffffff16610a24611102565b73ffffffffffffffffffffffffffffffffffffffff1614610a7a576040517f08c379a0000000000000000000000000000000000000000000000000000000008152600401610a7190613143565b60405180910390fd5b6000600c60009054906101000a900473ffffffffffffffffffffffffffffffffffffffff1673ffffffffffffffffffffffffffffffffffffffff1647604051610ac290613194565b60006040518083038185875af1925050503d8060008114610aff576040519150601f19603f3d011682016040523d82523d6000602084013e610b04565b606091505b5050905080610b48576040517f08c379a0000000000000000000000000000000000000000000000000000000008152600401610b3f906131f5565b60405180910390fd5b50565b610b668383836040518060200160405280600081525061133e565b505050565b600b5481565b6000806002600084815260200190815260200160002060009054906101000a900473ffffffffffffffffffffffffffffffffffffffff169050600073ffffffffffffffffffffffffffffffffffffffff168173ffffffffffffffffffffffffffffffffffffffff1603610c19576040517f08c379a0000000000000000000000000000000000000000000000000000000008152600401610c1090613287565b60405180910390fd5b80915050919050565b60075481565b60008073ffffffffffffffffffffffffffffffffffffffff168273ffffffffffffffffffffffffffffffffffffffff1603610c98576040517f08c379a0000000000000000000000000000000000000000000000000000000008152600401610c8f90613319565b60405180910390fd5b600360008373ffffffffffffffffffffffffffffffffffffffff1673ffffffffffffffffffffffffffffffffffffffff168152602001908152602001600020549050919050565b610ce76118ed565b73ffffffffffffffffffffffffffffffffffffffff16610d05611102565b73ffffffffffffffffffffffffffffffffffffffff1614610d5b576040517f08c379a0000000000000000000000000000000000000000000000000000000008152600401610d5290613143565b60405180910390fd5b600073ffffffffffffffffffffffffffffffffffffffff16600660009054906101000a900473ffffffffffffffffffffffffffffffffffffffff1673ffffffffffffffffffffffffffffffffffffffff167f8be0079c531659141344cd1fd0a4f28419497f9722a3daafe3b4186f6b6457e060405160405180910390a36000600660006101000a81548173ffffffffffffffffffffffffffffffffffffffff021916908373ffffffffffffffffffffffffffffffffffffffff160217905550565b600a60009054906101000a900460ff16610e6b576040517f08c379a0000000000000000000000000000000000000000000000000000000008152600401610e6290613385565b60405180910390fd5b60075483610e7991906133d4565b3414610eba576040517f08c379a0000000000000000000000000000000000000000000000000000000008152600401610eb190613462565b60405180910390fd5b60095483600854610ecb9190613482565b1115610f0c576040517f08c379a0000000000000000000000000000000000000000000000000000000008152600401610f0390613502565b60405180910390fd5b600b5483600d60003373ffffffffffffffffffffffffffffffffffffffff1673ffffffffffffffffffffffffffffffffffffffff16815260200190815260200160002054610f5a9190613482565b1115610f9b576040517f08c379a0000000000000000000000000000000000000000000000000000000008152600401610f929061356e565b60405180910390fd5b60005b8381101561103d5760006001600854610fb79190613482565b905060086000815480929190610fcc9061358e565b9190505550610fdb3382611ce7565b6110298185858080601f016020809104026020016040519081016040528093929190818152602001838380828437600081840152601f19601f82011690508083019250505050505050611d05565b5080806110359061358e565b915050610f9e565b50505050565b61104b6118ed565b73ffffffffffffffffffffffffffffffffffffffff16611069611102565b73ffffffffffffffffffffffffffffffffffffffff16146110bf576040517f08c379a00000000000000000000000000000000000000000000000000000000081526004016110b690613143565b60405180910390fd5b80600a60006101000a81548160ff02191690831515021790555050565b600c60009054906101000a900473ffffffffffffffffffffffffffffffffffffffff1681565b6000600660009054906101000a900473ffffffffffffffffffffffffffffffffffffffff16905090565b60606001805461113b90612e7e565b80601f016020809104026020016040519081016040528092919081815260200182805461116790612e7e565b80156111b45780601f10611189576101008083540402835291602001916111b4565b820191906000526020600020905b81548152906001019060200180831161119757829003601f168201915b5050505050905090565b6111c66118ed565b73ffffffffffffffffffffffffffffffffffffffff168273ffffffffffffffffffffffffffffffffffffffff1603611233576040517f08c379a000000000000000000000000000000000000000000000000000000000815260040161122a90613622565b60405180910390fd5b80600560006112406118ed565b73ffffffffffffffffffffffffffffffffffffffff1673ffffffffffffffffffffffffffffffffffffffff16815260200190815260200160002060008473ffffffffffffffffffffffffffffffffffffffff1673ffffffffffffffffffffffffffffffffffffffff16815260200190815260200160002060006101000a81548160ff0219169083151502179055508173ffffffffffffffffffffffffffffffffffffffff166112ed6118ed565b73ffffffffffffffffffffffffffffffffffffffff167f17307eab39ab6107e8899845ad3d59bd9653f200f220920489ca2b5937696c318360405161133291906126a7565b60405180910390a35050565b61134f6113496118ed565b836119ae565b61138e576040517f08c379a0000000000000000000000000000000000000000000000000000000008152600401611385906130d7565b60405180910390fd5b61139a84848484611d41565b50505050565b60606113ab82611881565b6113ea576040517f08c379a00000000000000000000000000000000000000000000000000000000081526004016113e1906136b4565b60405180910390fd5b60006113f4611d9d565b90506000815111611414576040518060200160405280600081525061143f565b8061141e84611db4565b60405160200161142f929190613710565b6040516020818303038152906040525b915050919050565b60095481565b60606000611498600e60008573ffffffffffffffffffffffffffffffffffffffff1673ffffffffffffffffffffffffffffffffffffffff168152602001908152602001600020611f14565b67ffffffffffffffff8111156114b1576114b0612b81565b5b6040519080825280602002602001820160405280156114df5781602001602082028036833780820191505090505b50905060005b61152c600e60008673ffffffffffffffffffffffffffffffffffffffff1673ffffffffffffffffffffffffffffffffffffffff168152602001908152602001600020611f14565b8110156115b65761158481600e60008773ffffffffffffffffffffffffffffffffffffffff1673ffffffffffffffffffffffffffffffffffffffff168152602001908152602001600020611f2990919063ffffffff16565b82828151811061159757611596613734565b5b60200260200101818152505080806115ae9061358e565b9150506114e5565b5080915050919050565b6000600560008473ffffffffffffffffffffffffffffffffffffffff1673ffffffffffffffffffffffffffffffffffffffff16815260200190815260200160002060008373ffffffffffffffffffffffffffffffffffffffff1673ffffffffffffffffffffffffffffffffffffffff16815260200190815260200160002060009054906101000a900460ff16905092915050565b600d6020528060005260406000206000915090505481565b6116746118ed565b73ffffffffffffffffffffffffffffffffffffffff16611692611102565b73ffffffffffffffffffffffffffffffffffffffff16146116e8576040517f08c379a00000000000000000000000000000000000000000000000000000000081526004016116df90613143565b60405180910390fd5b600073ffffffffffffffffffffffffffffffffffffffff168173ffffffffffffffffffffffffffffffffffffffff1603611757576040517f08c379a000000000000000000000000000000000000000000000000000000000815260040161174e906137d5565b60405180910390fd5b8073ffffffffffffffffffffffffffffffffffffffff16600660009054906101000a900473ffffffffffffffffffffffffffffffffffffffff1673ffffffffffffffffffffffffffffffffffffffff167f8be0079c531659141344cd1fd0a4f28419497f9722a3daafe3b4186f6b6457e060405160405180910390a380600660006101000a81548173ffffffffffffffffffffffffffffffffffffffff021916908373ffffffffffffffffffffffffffffffffffffffff16021790555050565b60007f01ffc9a7000000000000000000000000000000000000000000000000000000007bffffffffffffffffffffffffffffffffffffffffffffffffffffffff1916827bffffffffffffffffffffffffffffffffffffffffffffffffffffffff1916149050919050565b60008073ffffffffffffffffffffffffffffffffffffffff166002600084815260200190815260200160002060009054906101000a900473ffffffffffffffffffffffffffffffffffffffff1673ffffffffffffffffffffffffffffffffffffffff1614159050919050565b600033905090565b816004600083815260200190815260200160002060006101000a81548173ffffffffffffffffffffffffffffffffffffffff021916908373ffffffffffffffffffffffffffffffffffffffff160217905550808273ffffffffffffffffffffffffffffffffffffffff1661196883610b71565b73ffffffffffffffffffffffffffffffffffffffff167f8c5be1e5ebec7d5bd14f71427d1e84f3dd0314c0f7b2291e5b200ac8c7c3b92560405160405180910390a45050565b60006119b982611881565b6119f8576040517f08c379a00000000000000000000000000000000000000000000000000000000081526004016119ef90613867565b60405180910390fd5b6000611a0383610b71565b90508073ffffffffffffffffffffffffffffffffffffffff168473ffffffffffffffffffffffffffffffffffffffff161480611a7257508373ffffffffffffffffffffffffffffffffffffffff16611a5a846107fc565b73ffffffffffffffffffffffffffffffffffffffff16145b80611a835750611a8281856115c0565b5b91505092915050565b8273ffffffffffffffffffffffffffffffffffffffff16611aac82610b71565b73ffffffffffffffffffffffffffffffffffffffff1614611b02576040517f08c379a0000000000000000000000000000000000000000000000000000000008152600401611af9906138f9565b60405180910390fd5b600073ffffffffffffffffffffffffffffffffffffffff168273ffffffffffffffffffffffffffffffffffffffff1603611b71576040517f08c379a0000000000000000000000000000000000000000000000000000000008152600401611b689061398b565b60405180910390fd5b611b7c838383611f43565b611b876000826118f5565b6001600360008573ffffffffffffffffffffffffffffffffffffffff1673ffffffffffffffffffffffffffffffffffffffff1681526020019081526020016000206000828254611bd791906139ab565b925050819055506001600360008473ffffffffffffffffffffffffffffffffffffffff1673ffffffffffffffffffffffffffffffffffffffff1681526020019081526020016000206000828254611c2e9190613482565b92505081905550816002600083815260200190815260200160002060006101000a81548173ffffffffffffffffffffffffffffffffffffffff021916908373ffffffffffffffffffffffffffffffffffffffff160217905550808273ffffffffffffffffffffffffffffffffffffffff168473ffffffffffffffffffffffffffffffffffffffff167fddf252ad1be2c89b69c2b068fc378daa952ba7f163c4a11628f55a4df523b3ef60405160405180910390a4505050565b611d01828260405180602001604052806000815250612061565b5050565b817fda84ca2183491f179a603e877b2cb058e42195041c2b9c53d746427e519a34df82604051611d3591906127eb565b60405180910390a25050565b611d4c848484611a8c565b611d58848484846120bc565b611d97576040517f08c379a0000000000000000000000000000000000000000000000000000000008152600401611d8e90613a51565b60405180910390fd5b50505050565b606060405180602001604052806000815250905090565b606060008203611dfb576040518060400160405280600181526020017f30000000000000000000000000000000000000000000000000000000000000008152509050611f0f565b600082905060005b60008214611e2d578080611e169061358e565b915050600a82611e269190613aa0565b9150611e03565b60008167ffffffffffffffff811115611e4957611e48612b81565b5b6040519080825280601f01601f191660200182016040528015611e7b5781602001600182028036833780820191505090505b5090505b60008514611f0857600182611e9491906139ab565b9150600a85611ea39190613ad1565b6030611eaf9190613482565b60f81b818381518110611ec557611ec4613734565b5b60200101907effffffffffffffffffffffffffffffffffffffffffffffffffffffffffffff1916908160001a905350600a85611f019190613aa0565b9450611e7f565b8093505050505b919050565b6000611f2282600001612243565b9050919050565b6000611f388360000183612254565b60001c905092915050565b611f4e8383836122c8565b600073ffffffffffffffffffffffffffffffffffffffff168373ffffffffffffffffffffffffffffffffffffffff1614611fd557611fd381600e60008673ffffffffffffffffffffffffffffffffffffffff1673ffffffffffffffffffffffffffffffffffffffff1681526020019081526020016000206122cd90919063ffffffff16565b505b600073ffffffffffffffffffffffffffffffffffffffff168273ffffffffffffffffffffffffffffffffffffffff161461205c5761205a81600e60008573ffffffffffffffffffffffffffffffffffffffff1673ffffffffffffffffffffffffffffffffffffffff1681526020019081526020016000206122e790919063ffffffff16565b505b505050565b61206b8383612301565b61207860008484846120bc565b6120b7576040517f08c379a00000000000000000000000000000000000000000000000000000000081526004016120ae90613a51565b60405180910390fd5b505050565b60006120dd8473ffffffffffffffffffffffffffffffffffffffff166124ce565b15612236578373ffffffffffffffffffffffffffffffffffffffff1663150b7a026121066118ed565b8786866040518563ffffffff1660e01b81526004016121289493929190613b57565b6020604051808303816000875af192505050801561216457506040513d601f19601f820116820180604052508101906121619190613bb8565b60015b6121e6573d8060008114612194576040519150601f19603f3d011682016040523d82523d6000602084013e612199565b606091505b5060008151036121de576040517f08c379a00000000000000000000000000000000000000000000000000000000081526004016121d590613a51565b60405180910390fd5b805181602001fd5b63150b7a0260e01b7bffffffffffffffffffffffffffffffffffffffffffffffffffffffff1916817bffffffffffffffffffffffffffffffffffffffffffffffffffffffff19161491505061223b565b600190505b949350505050565b600081600001805490509050919050565b60008183600001805490501161229f576040517f08c379a000000000000000000000000000000000000000000000000000000000815260040161229690613c57565b60405180910390fd5b8260000182815481106122b5576122b4613734565b5b9060005260206000200154905092915050565b505050565b60006122df836000018360001b6124e1565b905092915050565b60006122f9836000018360001b6125f9565b905092915050565b600073ffffffffffffffffffffffffffffffffffffffff168273ffffffffffffffffffffffffffffffffffffffff1603612370576040517f08c379a000000000000000000000000000000000000000000000000000000000815260040161236790613cc3565b60405180910390fd5b61237981611881565b156123b9576040517f08c379a00000000000000000000000000000000000000000000000000000000081526004016123b090613d2f565b60405180910390fd5b6123c560008383611f43565b6001600360008473ffffffffffffffffffffffffffffffffffffffff1673ffffffffffffffffffffffffffffffffffffffff16815260200190815260200160002060008282546124159190613482565b92505081905550816002600083815260200190815260200160002060006101000a81548173ffffffffffffffffffffffffffffffffffffffff021916908373ffffffffffffffffffffffffffffffffffffffff160217905550808273ffffffffffffffffffffffffffffffffffffffff16600073ffffffffffffffffffffffffffffffffffffffff167fddf252ad1be2c89b69c2b068fc378daa952ba7f163c4a11628f55a4df523b3ef60405160405180910390a45050565b600080823b905060008111915050919050565b600080836001016000848152602001908152602001600020549050600081146125ed57600060018261251391906139ab565b905060006001866000018054905061252b91906139ab565b9050600086600001828154811061254557612544613734565b5b906000526020600020015490508087600001848154811061256957612568613734565b5b90600052602060002001819055506001836125849190613482565b87600101600083815260200190815260200160002081905550866000018054806125b1576125b0613d4f565b5b600190038181906000526020600020016000905590558660010160008781526020019081526020016000206000905560019450505050506125f3565b60009150505b92915050565b60006126058383612669565b61265e578260000182908060018154018082558091505060019003906000526020600020016000909190919091505582600001805490508360010160008481526020019081526020016000208190555060019050612663565b600090505b92915050565b600080836001016000848152602001908152602001600020541415905092915050565b60008115159050919050565b6126a18161268c565b82525050565b60006020820190506126bc6000830184612698565b92915050565b6000604051905090565b600080fd5b600080fd5b60007fffffffff0000000000000000000000000000000000000000000000000000000082169050919050565b61270b816126d6565b811461271657600080fd5b50565b60008135905061272881612702565b92915050565b600060208284031215612744576127436126cc565b5b600061275284828501612719565b91505092915050565b600081519050919050565b600082825260208201905092915050565b60005b8381101561279557808201518184015260208101905061277a565b60008484015250505050565b6000601f19601f8301169050919050565b60006127bd8261275b565b6127c78185612766565b93506127d7818560208601612777565b6127e0816127a1565b840191505092915050565b6000602082019050818103600083015261280581846127b2565b905092915050565b6000819050919050565b6128208161280d565b811461282b57600080fd5b50565b60008135905061283d81612817565b92915050565b600060208284031215612859576128586126cc565b5b60006128678482850161282e565b91505092915050565b600073ffffffffffffffffffffffffffffffffffffffff82169050919050565b600061289b82612870565b9050919050565b6128ab81612890565b82525050565b60006020820190506128c660008301846128a2565b92915050565b6128d581612890565b81146128e057600080fd5b50565b6000813590506128f2816128cc565b92915050565b6000806040838503121561290f5761290e6126cc565b5b600061291d858286016128e3565b925050602061292e8582860161282e565b9150509250929050565b6129418161280d565b82525050565b600060208201905061295c6000830184612938565b92915050565b60008060006060848603121561297b5761297a6126cc565b5b6000612989868287016128e3565b935050602061299a868287016128e3565b92505060406129ab8682870161282e565b9150509250925092565b6000602082840312156129cb576129ca6126cc565b5b60006129d9848285016128e3565b91505092915050565b600080fd5b600080fd5b600080fd5b60008083601f840112612a0757612a066129e2565b5b8235905067ffffffffffffffff811115612a2457612a236129e7565b5b602083019150836001820283011115612a4057612a3f6129ec565b5b9250929050565b600080600060408486031215612a6057612a5f6126cc565b5b6000612a6e8682870161282e565b935050602084013567ffffffffffffffff811115612a8f57612a8e6126d1565b5b612a9b868287016129f1565b92509250509250925092565b612ab08161268c565b8114612abb57600080fd5b50565b600081359050612acd81612aa7565b92915050565b600060208284031215612ae957612ae86126cc565b5b6000612af784828501612abe565b91505092915050565b6000612b0b82612870565b9050919050565b612b1b81612b00565b82525050565b6000602082019050612b366000830184612b12565b92915050565b60008060408385031215612b5357612b526126cc565b5b6000612b61858286016128e3565b9250506020612b7285828601612abe565b9150509250929050565b600080fd5b7f4e487b7100000000000000000000000000000000000000000000000000000000600052604160045260246000fd5b612bb9826127a1565b810181811067ffffffffffffffff82111715612bd857612bd7612b81565b5b80604052505050565b6000612beb6126c2565b9050612bf78282612bb0565b919050565b600067ffffffffffffffff821115612c1757612c16612b81565b5b612c20826127a1565b9050602081019050919050565b82818337600083830152505050565b6000612c4f612c4a84612bfc565b612be1565b905082815260208101848484011115612c6b57612c6a612b7c565b5b612c76848285612c2d565b509392505050565b600082601f830112612c9357612c926129e2565b5b8135612ca3848260208601612c3c565b91505092915050565b60008060008060808587031215612cc657612cc56126cc565b5b6000612cd4878288016128e3565b9450506020612ce5878288016128e3565b9350506040612cf68782880161282e565b925050606085013567ffffffffffffffff811115612d1757612d166126d1565b5b612d2387828801612c7e565b91505092959194509250565b600081519050919050565b600082825260208201905092915050565b6000819050602082019050919050565b612d648161280d565b82525050565b6000612d768383612d5b565b60208301905092915050565b6000602082019050919050565b6000612d9a82612d2f565b612da48185612d3a565b9350612daf83612d4b565b8060005b83811015612de0578151612dc78882612d6a565b9750612dd283612d82565b925050600181019050612db3565b5085935050505092915050565b60006020820190508181036000830152612e078184612d8f565b905092915050565b60008060408385031215612e2657612e256126cc565b5b6000612e34858286016128e3565b9250506020612e45858286016128e3565b9150509250929050565b7f4e487b7100000000000000000000000000000000000000000000000000000000600052602260045260246000fd5b60006002820490506001821680612e9657607f821691505b602082108103612ea957612ea8612e4f565b5b50919050565b7f4552433732313a20617070726f76656420717565727920666f72206e6f6e657860008201527f697374656e7420746f6b656e0000000000000000000000000000000000000000602082015250565b6000612f0b602c83612766565b9150612f1682612eaf565b604082019050919050565b60006020820190508181036000830152612f3a81612efe565b9050919050565b7f4552433732313a20617070726f76616c20746f2063757272656e74206f776e6560008201527f7200000000000000000000000000000000000000000000000000000000000000602082015250565b6000612f9d602183612766565b9150612fa882612f41565b604082019050919050565b60006020820190508181036000830152612fcc81612f90565b9050919050565b7f4552433732313a20617070726f76652063616c6c6572206973206e6f74206f7760008201527f6e6572206e6f7220617070726f76656420666f7220616c6c0000000000000000602082015250565b600061302f603883612766565b915061303a82612fd3565b604082019050919050565b6000602082019050818103600083015261305e81613022565b9050919050565b7f4552433732313a207472616e736665722063616c6c6572206973206e6f74206f60008201527f776e6572206e6f7220617070726f766564000000000000000000000000000000602082015250565b60006130c1603183612766565b91506130cc82613065565b604082019050919050565b600060208201905081810360008301526130f0816130b4565b9050919050565b7f4f776e61626c653a2063616c6c6572206973206e6f7420746865206f776e6572600082015250565b600061312d602083612766565b9150613138826130f7565b602082019050919050565b6000602082019050818103600083015261315c81613120565b9050919050565b600081905092915050565b50565b600061317e600083613163565b91506131898261316e565b600082019050919050565b600061319f82613171565b9150819050919050565b7f5769746864726177616c206661696c6564000000000000000000000000000000600082015250565b60006131df601183612766565b91506131ea826131a9565b602082019050919050565b6000602082019050818103600083015261320e816131d2565b9050919050565b7f4552433732313a206f776e657220717565727920666f72206e6f6e657869737460008201527f656e7420746f6b656e0000000000000000000000000000000000000000000000602082015250565b6000613271602983612766565b915061327c82613215565b604082019050919050565b600060208201905081810360008301526132a081613264565b9050919050565b7f4552433732313a2062616c616e636520717565727920666f7220746865207a6560008201527f726f206164647265737300000000000000000000000000000000000000000000602082015250565b6000613303602a83612766565b915061330e826132a7565b604082019050919050565b60006020820190508181036000830152613332816132f6565b9050919050565b7f5075626c6963206d696e74696e67206973206e6f7420656e61626c6564000000600082015250565b600061336f601d83612766565b915061337a82613339565b602082019050919050565b6000602082019050818103600083015261339e81613362565b9050919050565b7f4e487b7100000000000000000000000000000000000000000000000000000000600052601160045260246000fd5b60006133df8261280d565b91506133ea8361280d565b92508282026133f88161280d565b9150828204841483151761340f5761340e6133a5565b5b5092915050565b7f496e636f7272656374204554482076616c756500000000000000000000000000600082015250565b600061344c601383612766565b915061345782613416565b602082019050919050565b6000602082019050818103600083015261347b8161343f565b9050919050565b600061348d8261280d565b91506134988361280d565b92508282019050808211156134b0576134af6133a5565b5b92915050565b7f4e6f7420656e6f75676820746f6b656e73206c65667400000000000000000000600082015250565b60006134ec601683612766565b91506134f7826134b6565b602082019050919050565b6000602082019050818103600083015261351b816134df565b9050919050565b7f4d6178207065722077616c6c6574000000000000000000000000000000000000600082015250565b6000613558600e83612766565b915061356382613522565b602082019050919050565b600060208201905081810360008301526135878161354b565b9050919050565b60006135998261280d565b91507fffffffffffffffffffffffffffffffffffffffffffffffffffffffffffffffff82036135cb576135ca6133a5565b5b600182019050919050565b7f4552433732313a20617070726f766520746f2063616c6c657200000000000000600082015250565b600061360c601983612766565b9150613617826135d6565b602082019050919050565b6000602082019050818103600083015261363b816135ff565b9050919050565b7f4552433732314d657461646174613a2055524920717565727920666f72206e6f60008201527f6e6578697374656e7420746f6b656e0000000000000000000000000000000000602082015250565b600061369e602f83612766565b91506136a982613642565b604082019050919050565b600060208201905081810360008301526136cd81613691565b9050919050565b600081905092915050565b60006136ea8261275b565b6136f481856136d4565b9350613704818560208601612777565b80840191505092915050565b600061371c82856136df565b915061372882846136df565b91508190509392505050565b7f4e487b7100000000000000000000000000000000000000000000000000000000600052603260045260246000fd5b7f4f776e61626c653a206e6577206f776e657220697320746865207a65726f206160008201527f6464726573730000000000000000000000000000000000000000000000000000602082015250565b60006137bf602683612766565b91506137ca82613763565b604082019050919050565b600060208201905081810360008301526137ee816137b2565b9050919050565b7f4552433732313a206f70657261746f7220717565727920666f72206e6f6e657860008201527f697374656e7420746f6b656e0000000000000000000000000000000000000000602082015250565b6000613851602c83612766565b915061385c826137f5565b604082019050919050565b6000602082019050818103600083015261388081613844565b9050919050565b7f4552433732313a207472616e73666572206f6620746f6b656e2074686174206960008201527f73206e6f74206f776e0000000000000000000000000000000000000000000000602082015250565b60006138e3602983612766565b91506138ee82613887565b604082019050919050565b60006020820190508181036000830152613912816138d6565b9050919050565b7f4552433732313a207472616e7366657220746f20746865207a65726f2061646460008201527f7265737300000000000000000000000000000000000000000000000000000000602082015250565b6000613975602483612766565b915061398082613919565b604082019050919050565b600060208201905081810360008301526139a481613968565b9050919050565b60006139b68261280d565b91506139c18361280d565b92508282039050818111156139d9576139d86133a5565b5b92915050565b7f4552433732313a207472616e7366657220746f206e6f6e20455243373231526560008201527f63656976657220696d706c656d656e7465720000000000000000000000000000602082015250565b6000613a3b603283612766565b9150613a46826139df565b604082019050919050565b60006020820190508181036000830152613a6a81613a2e565b9050919050565b7f4e487b7100000000000000000000000000000000000000000000000000000000600052601260045260246000fd5b6000613aab8261280d565b9150613ab68361280d565b925082613ac657613ac5613a71565b5b828204905092915050565b6000613adc8261280d565b9150613ae78361280d565b925082613af757613af6613a71565b5b828206905092915050565b600081519050919050565b600082825260208201905092915050565b6000613b2982613b02565b613b338185613b0d565b9350613b43818560208601612777565b613b4c816127a1565b840191505092915050565b6000608082019050613b6c60008301876128a2565b613b7960208301866128a2565b613b866040830185612938565b8181036060830152613b988184613b1e565b905095945050505050565b600081519050613bb281612702565b92915050565b600060208284031215613bce57613bcd6126cc565b5b6000613bdc84828501613ba3565b91505092915050565b7f456e756d657261626c655365743a20696e646578206f7574206f6620626f756e60008201527f6473000000000000000000000000000000000000000000000000000000000000602082015250565b6000613c41602283612766565b9150613c4c82613be5565b604082019050919050565b60006020820190508181036000830152613c7081613c34565b9050919050565b7f4552433732313a206d696e7420746f20746865207a65726f2061646472657373600082015250565b6000613cad602083612766565b9150613cb882613c77565b602082019050919050565b60006020820190508181036000830152613cdc81613ca0565b9050919050565b7f4552433732313a20746f6b656e20616c7265616479206d696e74656400000000600082015250565b6000613d19601c83612766565b9150613d2482613ce3565b602082019050919050565b60006020820190508181036000830152613d4881613d0c565b9050919050565b7f4e487b7100000000000000000000000000000000000000000000000000000000600052603160045260246000fdfea2646970667358221220527d15cb229d98f253f6b96623d20f239553b8146609cd3dd9405194e112de9c64736f6c63430008140033",
  "linkReferences": {},
  "deployedLinkReferences": {}
}