{
  "_format": "hh-sol-artifact-1",
  "contractName": "IDCDS",
  "sourceName": "contracts/IDCDS.sol",
  "abi": [
    {
      "inputs": [],
      "stateMutability": "payable",
      "type": "constructor"
    },
    {
      "anonymous": false,
      "inputs": [
        {
          "indexed": true,
          "internalType": "address",
          "name": "owner",
          "type": "address"
        },
        {
          "indexed": true,
          "internalType": "address",
          "name": "approved",
          "type": "address"
        },
        {
          "indexed": true,
          "internalType": "uint256",
          "name": "tokenId",
          "type": "uint256"
        }
      ],
      "name": "Approval",
      "type": "event"
    },
    {
      "anonymous": false,
      "inputs": [
        {
          "indexed": true,
          "internalType": "address",
          "name": "owner",
          "type": "address"
        },
        {
          "indexed": true,
          "internalType": "address",
          "name": "operator",
          "type": "address"
        },
        {
          "indexed": false,
          "internalType": "bool",
          "name": "approved",
          "type": "bool"
        }
      ],
      "name": "ApprovalForAll",
      "type": "event"
    },
    {
      "anonymous": false,
      "inputs": [
        {
          "indexed": true,
          "internalType": "address",
          "name": "previousOwner",
          "type": "address"
        },
        {
          "indexed": true,
          "internalType": "address",
          "name": "newOwner",
          "type": "address"
        }
      ],
      "name": "OwnershipTransferred",
      "type": "event"
    },
    {
      "anonymous": false,
      "inputs": [
        {
          "indexed": true,
          "internalType": "uint256",
          "name": "tokenId",
          "type": "uint256"
        },
        {
          "indexed": false,
          "internalType": "string",
          "name": "tokenURI",
          "type": "string"
        }
      ],
      "name": "TokenURISet",
      "type": "event"
    },
    {
      "anonymous": false,
      "inputs": [
        {
          "indexed": true,
          "internalType": "address",
          "name": "from",
          "type": "address"
        },
        {
          "indexed": true,
          "internalType": "address",
          "name": "to",
          "type": "address"
        },
        {
          "indexed": true,
          "internalType": "uint256",
          "name": "tokenId",
          "type": "uint256"
        }
      ],
      "name": "Transfer",
      "type": "event"
    },
    {
      "inputs": [
        {
          "internalType": "address",
          "name": "to",
          "type": "address"
        },
        {
          "internalType": "uint256",
          "name": "tokenId",
          "type": "uint256"
        }
      ],
      "name": "approve",
      "outputs": [],
      "stateMutability": "nonpayable",
      "type": "function"
    },
    {
      "inputs": [
        {
          "internalType": "address",
          "name": "owner",
          "type": "address"
        }
      ],
      "name": "balanceOf",
      "outputs": [
        {
          "internalType": "uint256",
          "name": "",
          "type": "uint256"
        }
      ],
      "stateMutability": "view",
      "type": "function"
    },
    {
      "inputs": [
        {
          "internalType": "uint256",
          "name": "tokenId",
          "type": "uint256"
        }
      ],
      "name": "getApproved",
      "outputs": [
        {
          "internalType": "address",
          "name": "",
          "type": "address"
        }
      ],
      "stateMutability": "view",
      "type": "function"
    },
    {
      "inputs": [
        {
          "internalType": "address",
          "name": "owner",
          "type": "address"
        }
      ],
      "name": "getOwnedTokens",
      "outputs": [
        {
          "internalType": "uint256[]",
          "name": "",
          "type": "uint256[]"
        }
      ],
      "stateMutability": "view",
      "type": "function"
    },
    {
      "inputs": [
        {
          "internalType": "uint256",
          "name": "tokenId",
          "type": "uint256"
        }
      ],
      "name": "getTokenURI",
      "outputs": [
        {
          "internalType": "string",
          "name": "",
          "type": "string"
        }
      ],
      "stateMutability": "view",
      "type": "function"
    },
    {
      "inputs": [
        {
          "internalType": "address",
          "name": "owner",
          "type": "address"
        },
        {
          "internalType": "address",
          "name": "operator",
          "type": "address"
        }
      ],
      "name": "isApprovedForAll",
      "outputs": [
        {
          "internalType": "bool",
          "name": "",
          "type": "bool"
        }
      ],
      "stateMutability": "view",
      "type": "function"
    },
    {
      "inputs": [],
      "name": "isPublicMintEnabled",
      "outputs": [
        {
          "internalType": "bool",
          "name": "",
          "type": "bool"
        }
      ],
      "stateMutability": "view",
      "type": "function"
    },
    {
      "inputs": [],
      "name": "maxPerWallet",
      "outputs": [
        {
          "internalType": "uint256",
          "name": "",
          "type": "uint256"
        }
      ],
      "stateMutability": "view",
      "type": "function"
    },
    {
      "inputs": [],
      "name": "maxSupply",
      "outputs": [
        {
          "internalType": "uint256",
          "name": "",
          "type": "uint256"
        }
      ],
      "stateMutability": "view",
      "type": "function"
    },
    {
      "inputs": [
        {
          "internalType": "address",
          "name": "to",
          "type": "address"
        },
        {
          "internalType": "string",
          "name": "tokenURI_",
          "type": "string"
        }
      ],
      "name": "mintAndTransfer",
      "outputs": [],
      "stateMutability": "payable",
      "type": "function"
    },
    {
      "inputs": [],
      "name": "mintPrice",
      "outputs": [
        {
          "internalType": "uint256",
          "name": "",
          "type": "uint256"
        }
      ],
      "stateMutability": "view",
      "type": "function"
    },
    {
      "inputs": [],
      "name": "name",
      "outputs": [
        {
          "internalType": "string",
          "name": "",
          "type": "string"
        }
      ],
      "stateMutability": "view",
      "type": "function"
    },
    {
      "inputs": [],
      "name": "owner",
      "outputs": [
        {
          "internalType": "address",
          "name": "",
          "type": "address"
        }
      ],
      "stateMutability": "view",
      "type": "function"
    },
    {
      "inputs": [
        {
          "internalType": "uint256",
          "name": "tokenId",
          "type": "uint256"
        }
      ],
      "name": "ownerOf",
      "outputs": [
        {
          "internalType": "address",
          "name": "",
          "type": "address"
        }
      ],
      "stateMutability": "view",
      "type": "function"
    },
    {
      "inputs": [],
      "name": "renounceOwnership",
      "outputs": [],
      "stateMutability": "nonpayable",
      "type": "function"
    },
    {
      "inputs": [
        {
          "internalType": "address",
          "name": "from",
          "type": "address"
        },
        {
          "internalType": "address",
          "name": "to",
          "type": "address"
        },
        {
          "internalType": "uint256",
          "name": "tokenId",
          "type": "uint256"
        }
      ],
      "name": "safeTransferFrom",
      "outputs": [],
      "stateMutability": "nonpayable",
      "type": "function"
    },
    {
      "inputs": [
        {
          "internalType": "address",
          "name": "from",
          "type": "address"
        },
        {
          "internalType": "address",
          "name": "to",
          "type": "address"
        },
        {
          "internalType": "uint256",
          "name": "tokenId",
          "type": "uint256"
        },
        {
          "internalType": "bytes",
          "name": "_data",
          "type": "bytes"
        }
      ],
      "name": "safeTransferFrom",
      "outputs": [],
      "stateMutability": "nonpayable",
      "type": "function"
    },
    {
      "inputs": [
        {
          "internalType": "address",
          "name": "operator",
          "type": "address"
        },
        {
          "internalType": "bool",
          "name": "approved",
          "type": "bool"
        }
      ],
      "name": "setApprovalForAll",
      "outputs": [],
      "stateMutability": "nonpayable",
      "type": "function"
    },
    {
      "inputs": [
        {
          "internalType": "bool",
          "name": "isPublicMintEnabled_",
          "type": "bool"
        }
      ],
      "name": "setPublicMintEnabled",
      "outputs": [],
      "stateMutability": "nonpayable",
      "type": "function"
    },
    {
      "inputs": [
        {
          "internalType": "bytes4",
          "name": "interfaceId",
          "type": "bytes4"
        }
      ],
      "name": "supportsInterface",
      "outputs": [
        {
          "internalType": "bool",
          "name": "",
          "type": "bool"
        }
      ],
      "stateMutability": "view",
      "type": "function"
    },
    {
      "inputs": [],
      "name": "symbol",
      "outputs": [
        {
          "internalType": "string",
          "name": "",
          "type": "string"
        }
      ],
      "stateMutability": "view",
      "type": "function"
    },
    {
      "inputs": [
        {
          "internalType": "uint256",
          "name": "tokenId",
          "type": "uint256"
        }
      ],
      "name": "tokenURI",
      "outputs": [
        {
          "internalType": "string",
          "name": "",
          "type": "string"
        }
      ],
      "stateMutability": "view",
      "type": "function"
    },
    {
      "inputs": [],
      "name": "totalSupply",
      "outputs": [
        {
          "internalType": "uint256",
          "name": "",
          "type": "uint256"
        }
      ],
      "stateMutability": "view",
      "type": "function"
    },
    {
      "inputs": [
        {
          "internalType": "address",
          "name": "from",
          "type": "address"
        },
        {
          "internalType": "address",
          "name": "to",
          "type": "address"
        },
        {
          "internalType": "uint256",
          "name": "tokenId",
          "type": "uint256"
        }
      ],
      "name": "transferFrom",
      "outputs": [],
      "stateMutability": "nonpayable",
      "type": "function"
    },
    {
      "inputs": [
        {
          "internalType": "address",
          "name": "newOwner",
          "type": "address"
        }
      ],
      "name": "transferOwnership",
      "outputs": [],
      "stateMutability": "nonpayable",
      "type": "function"
    },
    {
      "inputs": [
        {
          "internalType": "address",
          "name": "",
          "type": "address"
        }
      ],
      "name": "walletMints",
      "outputs": [
        {
          "internalType": "uint256",
          "name": "",
          "type": "uint256"
        }
      ],
      "stateMutability": "view",
      "type": "function"
    },
    {
      "inputs": [],
      "name": "withdraw",
      "outputs": [],
      "stateMutability": "nonpayable",
      "type": "function"
    },
    {
      "inputs": [],
      "name": "withdrawWallet",
      "outputs": [
        {
          "internalType": "address payable",
          "name": "",
          "type": "address"
        }
      ],
      "stateMutability": "view",
      "type": "function"
    }
  ],
  "bytecode": "0x60806040526040518060400160405280600581526020017f49444344530000000000000000000000000000000000000000000000000000008152506040518060400160405280600581526020017f49444344530000000000000000000000000000000000000000000000000000008152508160009081620000819190620003f5565b508060019081620000939190620003f5565b5050506000620000a86200017360201b60201c565b905080600660006101000a81548173ffffffffffffffffffffffffffffffffffffffff021916908373ffffffffffffffffffffffffffffffffffffffff1602179055508073ffffffffffffffffffffffffffffffffffffffff16600073ffffffffffffffffffffffffffffffffffffffff167f8be0079c531659141344cd1fd0a4f28419497f9722a3daafe3b4186f6b6457e060405160405180910390a35065b5e620f4800060078190555060006008819055506127106009819055506064600b81905550620004dc565b600033905090565b600081519050919050565b7f4e487b7100000000000000000000000000000000000000000000000000000000600052604160045260246000fd5b7f4e487b7100000000000000000000000000000000000000000000000000000000600052602260045260246000fd5b60006002820490506001821680620001fd57607f821691505b602082108103620002135762000212620001b5565b5b50919050565b60008190508160005260206000209050919050565b60006020601f8301049050919050565b600082821b905092915050565b6000600883026200027d7fffffffffffffffffffffffffffffffffffffffffffffffffffffffffffffffff826200023e565b6200028986836200023e565b95508019841693508086168417925050509392505050565b6000819050919050565b6000819050919050565b6000620002d6620002d0620002ca84620002a1565b620002ab565b620002a1565b9050919050565b6000819050919050565b620002f283620002b5565b6200030a6200030182620002dd565b8484546200024b565b825550505050565b600090565b6200032162000312565b6200032e818484620002e7565b505050565b5b8181101562000356576200034a60008262000317565b60018101905062000334565b5050565b601f821115620003a5576200036f8162000219565b6200037a846200022e565b810160208510156200038a578190505b620003a262000399856200022e565b83018262000333565b50505b505050565b600082821c905092915050565b6000620003ca60001984600802620003aa565b1980831691505092915050565b6000620003e58383620003b7565b9150826002028217905092915050565b62000400826200017b565b67ffffffffffffffff8111156200041c576200041b62000186565b5b620004288254620001e4565b620004358282856200035a565b600060209050601f8311600181146200046d576000841562000458578287015190505b620004648582620003d7565b865550620004d4565b601f1984166200047d8662000219565b60005b82811015620004a75784890151825560018201915060208501945060208101905062000480565b86831015620004c75784890151620004c3601f891682620003b7565b8355505b6001600288020188555050505b505050505050565b6140e480620004ec6000396000f3fe6080604052600436106101b75760003560e01c806370a08231116100ec578063b88d4fde1161008a578063d9d6165511610064578063d9d61655146105ed578063e985e9c51461062a578063f0293fd314610667578063f2fde38b146106a4576101b7565b8063b88d4fde1461055c578063c87b56dd14610585578063d5abeb01146105c2576101b7565b806385d178f4116100c657806385d178f4146104b25780638da5cb5b146104dd57806395d89b4114610508578063a22cb46514610533576101b7565b806370a0823114610435578063715018a614610472578063818668d714610489576101b7565b80633bb3a24d1161015957806342842e0e1161013357806342842e0e14610379578063453c2310146103a25780636352211e146103cd5780636817c76c1461040a576101b7565b80633bb3a24d146103095780633ccfd60b146103465780633df0805e1461035d576101b7565b8063081812fc11610195578063081812fc1461024f578063095ea7b31461028c57806318160ddd146102b557806323b872dd146102e0576101b7565b80630116bc2d146101bc57806301ffc9a7146101e757806306fdde0314610224575b600080fd5b3480156101c857600080fd5b506101d16106cd565b6040516101de919061279b565b60405180910390f35b3480156101f357600080fd5b5061020e60048036038101906102099190612822565b6106e0565b60405161021b919061279b565b60405180910390f35b34801561023057600080fd5b506102396107c2565b60405161024691906128df565b60405180910390f35b34801561025b57600080fd5b5061027660048036038101906102719190612937565b610854565b60405161028391906129a5565b60405180910390f35b34801561029857600080fd5b506102b360048036038101906102ae91906129ec565b6108d9565b005b3480156102c157600080fd5b506102ca6109f0565b6040516102d79190612a3b565b60405180910390f35b3480156102ec57600080fd5b5061030760048036038101906103029190612a56565b6109f6565b005b34801561031557600080fd5b50610330600480360381019061032b9190612937565b610a56565b60405161033d91906128df565b60405180910390f35b34801561035257600080fd5b5061035b610afb565b005b61037760048036038101906103729190612b0e565b610c48565b005b34801561038557600080fd5b506103a0600480360381019061039b9190612a56565b610e45565b005b3480156103ae57600080fd5b506103b7610e65565b6040516103c49190612a3b565b60405180910390f35b3480156103d957600080fd5b506103f460048036038101906103ef9190612937565b610e6b565b60405161040191906129a5565b60405180910390f35b34801561041657600080fd5b5061041f610f1c565b60405161042c9190612a3b565b60405180910390f35b34801561044157600080fd5b5061045c60048036038101906104579190612b6e565b610f22565b6040516104699190612a3b565b60405180910390f35b34801561047e57600080fd5b50610487610fd9565b005b34801561049557600080fd5b506104b060048036038101906104ab9190612bc7565b611116565b005b3480156104be57600080fd5b506104c76111af565b6040516104d49190612c15565b60405180910390f35b3480156104e957600080fd5b506104f26111d5565b6040516104ff91906129a5565b60405180910390f35b34801561051457600080fd5b5061051d6111ff565b60405161052a91906128df565b60405180910390f35b34801561053f57600080fd5b5061055a60048036038101906105559190612c30565b611291565b005b34801561056857600080fd5b50610583600480360381019061057e9190612da0565b611411565b005b34801561059157600080fd5b506105ac60048036038101906105a79190612937565b611473565b6040516105b991906128df565b60405180910390f35b3480156105ce57600080fd5b506105d761151a565b6040516105e49190612a3b565b60405180910390f35b3480156105f957600080fd5b50610614600480360381019061060f9190612b6e565b611520565b6040516106219190612ee1565b60405180910390f35b34801561063657600080fd5b50610651600480360381019061064c9190612f03565b611693565b60405161065e919061279b565b60405180910390f35b34801561067357600080fd5b5061068e60048036038101906106899190612b6e565b611727565b60405161069b9190612a3b565b60405180910390f35b3480156106b057600080fd5b506106cb60048036038101906106c69190612b6e565b61173f565b005b600a60009054906101000a900460ff1681565b60007f80ac58cd000000000000000000000000000000000000000000000000000000007bffffffffffffffffffffffffffffffffffffffffffffffffffffffff1916827bffffffffffffffffffffffffffffffffffffffffffffffffffffffff191614806107ab57507f5b5e139f000000000000000000000000000000000000000000000000000000007bffffffffffffffffffffffffffffffffffffffffffffffffffffffff1916827bffffffffffffffffffffffffffffffffffffffffffffffffffffffff1916145b806107bb57506107ba826118ea565b5b9050919050565b6060600080546107d190612f72565b80601f01602080910402602001604051908101604052809291908181526020018280546107fd90612f72565b801561084a5780601f1061081f5761010080835404028352916020019161084a565b820191906000526020600020905b81548152906001019060200180831161082d57829003601f168201915b5050505050905090565b600061085f82611954565b61089e576040517f08c379a000000000000000000000000000000000000000000000000000000000815260040161089590613015565b60405180910390fd5b6004600083815260200190815260200160002060009054906101000a900473ffffffffffffffffffffffffffffffffffffffff169050919050565b60006108e482610e6b565b90508073ffffffffffffffffffffffffffffffffffffffff168373ffffffffffffffffffffffffffffffffffffffff1603610954576040517f08c379a000000000000000000000000000000000000000000000000000000000815260040161094b906130a7565b60405180910390fd5b8073ffffffffffffffffffffffffffffffffffffffff166109736119c0565b73ffffffffffffffffffffffffffffffffffffffff1614806109a257506109a18161099c6119c0565b611693565b5b6109e1576040517f08c379a00000000000000000000000000000000000000000000000000000000081526004016109d890613139565b60405180910390fd5b6109eb83836119c8565b505050565b60085481565b610a07610a016119c0565b82611a81565b610a46576040517f08c379a0000000000000000000000000000000000000000000000000000000008152600401610a3d906131cb565b60405180910390fd5b610a51838383611b5f565b505050565b6060600e60008381526020019081526020016000208054610a7690612f72565b80601f0160208091040260200160405190810160405280929190818152602001828054610aa290612f72565b8015610aef5780601f10610ac457610100808354040283529160200191610aef565b820191906000526020600020905b815481529060010190602001808311610ad257829003601f168201915b50505050509050919050565b610b036119c0565b73ffffffffffffffffffffffffffffffffffffffff16610b216111d5565b73ffffffffffffffffffffffffffffffffffffffff1614610b77576040517f08c379a0000000000000000000000000000000000000000000000000000000008152600401610b6e90613237565b60405180910390fd5b6000600c60009054906101000a900473ffffffffffffffffffffffffffffffffffffffff1673ffffffffffffffffffffffffffffffffffffffff1647604051610bbf90613288565b60006040518083038185875af1925050503d8060008114610bfc576040519150601f19603f3d011682016040523d82523d6000602084013e610c01565b606091505b5050905080610c45576040517f08c379a0000000000000000000000000000000000000000000000000000000008152600401610c3c906132e9565b60405180910390fd5b50565b6007543414610c8c576040517f08c379a0000000000000000000000000000000000000000000000000000000008152600401610c8390613355565b60405180910390fd5b600a60009054906101000a900460ff16610cdb576040517f08c379a0000000000000000000000000000000000000000000000000000000008152600401610cd2906133c1565b60405180910390fd5b60095460085410610d21576040517f08c379a0000000000000000000000000000000000000000000000000000000008152600401610d189061342d565b60405180910390fd5b600b546001600d60003373ffffffffffffffffffffffffffffffffffffffff1673ffffffffffffffffffffffffffffffffffffffff16815260200190815260200160002054610d70919061347c565b1115610db1576040517f08c379a0000000000000000000000000000000000000000000000000000000008152600401610da8906134fc565b60405180910390fd5b60006001600854610dc2919061347c565b905060086000815480929190610dd79061351c565b9190505550610de63082611dba565b610e348184848080601f016020809104026020016040519081016040528093929190818152602001838380828437600081840152601f19601f82011690508083019250505050505050611dd8565b610e3f308583610e45565b50505050565b610e6083838360405180602001604052806000815250611411565b505050565b600b5481565b6000806002600084815260200190815260200160002060009054906101000a900473ffffffffffffffffffffffffffffffffffffffff169050600073ffffffffffffffffffffffffffffffffffffffff168173ffffffffffffffffffffffffffffffffffffffff1603610f13576040517f08c379a0000000000000000000000000000000000000000000000000000000008152600401610f0a906135d6565b60405180910390fd5b80915050919050565b60075481565b60008073ffffffffffffffffffffffffffffffffffffffff168273ffffffffffffffffffffffffffffffffffffffff1603610f92576040517f08c379a0000000000000000000000000000000000000000000000000000000008152600401610f8990613668565b60405180910390fd5b600360008373ffffffffffffffffffffffffffffffffffffffff1673ffffffffffffffffffffffffffffffffffffffff168152602001908152602001600020549050919050565b610fe16119c0565b73ffffffffffffffffffffffffffffffffffffffff16610fff6111d5565b73ffffffffffffffffffffffffffffffffffffffff1614611055576040517f08c379a000000000000000000000000000000000000000000000000000000000815260040161104c90613237565b60405180910390fd5b600073ffffffffffffffffffffffffffffffffffffffff16600660009054906101000a900473ffffffffffffffffffffffffffffffffffffffff1673ffffffffffffffffffffffffffffffffffffffff167f8be0079c531659141344cd1fd0a4f28419497f9722a3daafe3b4186f6b6457e060405160405180910390a36000600660006101000a81548173ffffffffffffffffffffffffffffffffffffffff021916908373ffffffffffffffffffffffffffffffffffffffff160217905550565b61111e6119c0565b73ffffffffffffffffffffffffffffffffffffffff1661113c6111d5565b73ffffffffffffffffffffffffffffffffffffffff1614611192576040517f08c379a000000000000000000000000000000000000000000000000000000000815260040161118990613237565b60405180910390fd5b80600a60006101000a81548160ff02191690831515021790555050565b600c60009054906101000a900473ffffffffffffffffffffffffffffffffffffffff1681565b6000600660009054906101000a900473ffffffffffffffffffffffffffffffffffffffff16905090565b60606001805461120e90612f72565b80601f016020809104026020016040519081016040528092919081815260200182805461123a90612f72565b80156112875780601f1061125c57610100808354040283529160200191611287565b820191906000526020600020905b81548152906001019060200180831161126a57829003601f168201915b5050505050905090565b6112996119c0565b73ffffffffffffffffffffffffffffffffffffffff168273ffffffffffffffffffffffffffffffffffffffff1603611306576040517f08c379a00000000000000000000000000000000000000000000000000000000081526004016112fd906136d4565b60405180910390fd5b80600560006113136119c0565b73ffffffffffffffffffffffffffffffffffffffff1673ffffffffffffffffffffffffffffffffffffffff16815260200190815260200160002060008473ffffffffffffffffffffffffffffffffffffffff1673ffffffffffffffffffffffffffffffffffffffff16815260200190815260200160002060006101000a81548160ff0219169083151502179055508173ffffffffffffffffffffffffffffffffffffffff166113c06119c0565b73ffffffffffffffffffffffffffffffffffffffff167f17307eab39ab6107e8899845ad3d59bd9653f200f220920489ca2b5937696c3183604051611405919061279b565b60405180910390a35050565b61142261141c6119c0565b83611a81565b611461576040517f08c379a0000000000000000000000000000000000000000000000000000000008152600401611458906131cb565b60405180910390fd5b61146d84848484611e35565b50505050565b606061147e82611954565b6114bd576040517f08c379a00000000000000000000000000000000000000000000000000000000081526004016114b490613766565b60405180910390fd5b60006114c7611e91565b905060008151116114e75760405180602001604052806000815250611512565b806114f184611ea8565b6040516020016115029291906137c2565b6040516020818303038152906040525b915050919050565b60095481565b6060600061156b600f60008573ffffffffffffffffffffffffffffffffffffffff1673ffffffffffffffffffffffffffffffffffffffff168152602001908152602001600020612008565b67ffffffffffffffff81111561158457611583612c75565b5b6040519080825280602002602001820160405280156115b25781602001602082028036833780820191505090505b50905060005b6115ff600f60008673ffffffffffffffffffffffffffffffffffffffff1673ffffffffffffffffffffffffffffffffffffffff168152602001908152602001600020612008565b8110156116895761165781600f60008773ffffffffffffffffffffffffffffffffffffffff1673ffffffffffffffffffffffffffffffffffffffff16815260200190815260200160002061201d90919063ffffffff16565b82828151811061166a576116696137e6565b5b60200260200101818152505080806116819061351c565b9150506115b8565b5080915050919050565b6000600560008473ffffffffffffffffffffffffffffffffffffffff1673ffffffffffffffffffffffffffffffffffffffff16815260200190815260200160002060008373ffffffffffffffffffffffffffffffffffffffff1673ffffffffffffffffffffffffffffffffffffffff16815260200190815260200160002060009054906101000a900460ff16905092915050565b600d6020528060005260406000206000915090505481565b6117476119c0565b73ffffffffffffffffffffffffffffffffffffffff166117656111d5565b73ffffffffffffffffffffffffffffffffffffffff16146117bb576040517f08c379a00000000000000000000000000000000000000000000000000000000081526004016117b290613237565b60405180910390fd5b600073ffffffffffffffffffffffffffffffffffffffff168173ffffffffffffffffffffffffffffffffffffffff160361182a576040517f08c379a000000000000000000000000000000000000000000000000000000000815260040161182190613887565b60405180910390fd5b8073ffffffffffffffffffffffffffffffffffffffff16600660009054906101000a900473ffffffffffffffffffffffffffffffffffffffff1673ffffffffffffffffffffffffffffffffffffffff167f8be0079c531659141344cd1fd0a4f28419497f9722a3daafe3b4186f6b6457e060405160405180910390a380600660006101000a81548173ffffffffffffffffffffffffffffffffffffffff021916908373ffffffffffffffffffffffffffffffffffffffff16021790555050565b60007f01ffc9a7000000000000000000000000000000000000000000000000000000007bffffffffffffffffffffffffffffffffffffffffffffffffffffffff1916827bffffffffffffffffffffffffffffffffffffffffffffffffffffffff1916149050919050565b60008073ffffffffffffffffffffffffffffffffffffffff166002600084815260200190815260200160002060009054906101000a900473ffffffffffffffffffffffffffffffffffffffff1673ffffffffffffffffffffffffffffffffffffffff1614159050919050565b600033905090565b816004600083815260200190815260200160002060006101000a81548173ffffffffffffffffffffffffffffffffffffffff021916908373ffffffffffffffffffffffffffffffffffffffff160217905550808273ffffffffffffffffffffffffffffffffffffffff16611a3b83610e6b565b73ffffffffffffffffffffffffffffffffffffffff167f8c5be1e5ebec7d5bd14f71427d1e84f3dd0314c0f7b2291e5b200ac8c7c3b92560405160405180910390a45050565b6000611a8c82611954565b611acb576040517f08c379a0000000000000000000000000000000000000000000000000000000008152600401611ac290613919565b60405180910390fd5b6000611ad683610e6b565b90508073ffffffffffffffffffffffffffffffffffffffff168473ffffffffffffffffffffffffffffffffffffffff161480611b4557508373ffffffffffffffffffffffffffffffffffffffff16611b2d84610854565b73ffffffffffffffffffffffffffffffffffffffff16145b80611b565750611b558185611693565b5b91505092915050565b8273ffffffffffffffffffffffffffffffffffffffff16611b7f82610e6b565b73ffffffffffffffffffffffffffffffffffffffff1614611bd5576040517f08c379a0000000000000000000000000000000000000000000000000000000008152600401611bcc906139ab565b60405180910390fd5b600073ffffffffffffffffffffffffffffffffffffffff168273ffffffffffffffffffffffffffffffffffffffff1603611c44576040517f08c379a0000000000000000000000000000000000000000000000000000000008152600401611c3b90613a3d565b60405180910390fd5b611c4f838383612037565b611c5a6000826119c8565b6001600360008573ffffffffffffffffffffffffffffffffffffffff1673ffffffffffffffffffffffffffffffffffffffff1681526020019081526020016000206000828254611caa9190613a5d565b925050819055506001600360008473ffffffffffffffffffffffffffffffffffffffff1673ffffffffffffffffffffffffffffffffffffffff1681526020019081526020016000206000828254611d01919061347c565b92505081905550816002600083815260200190815260200160002060006101000a81548173ffffffffffffffffffffffffffffffffffffffff021916908373ffffffffffffffffffffffffffffffffffffffff160217905550808273ffffffffffffffffffffffffffffffffffffffff168473ffffffffffffffffffffffffffffffffffffffff167fddf252ad1be2c89b69c2b068fc378daa952ba7f163c4a11628f55a4df523b3ef60405160405180910390a4505050565b611dd4828260405180602001604052806000815250612155565b5050565b80600e60008481526020019081526020016000209081611df89190613c3d565b50817fda84ca2183491f179a603e877b2cb058e42195041c2b9c53d746427e519a34df82604051611e2991906128df565b60405180910390a25050565b611e40848484611b5f565b611e4c848484846121b0565b611e8b576040517f08c379a0000000000000000000000000000000000000000000000000000000008152600401611e8290613d81565b60405180910390fd5b50505050565b606060405180602001604052806000815250905090565b606060008203611eef576040518060400160405280600181526020017f30000000000000000000000000000000000000000000000000000000000000008152509050612003565b600082905060005b60008214611f21578080611f0a9061351c565b915050600a82611f1a9190613dd0565b9150611ef7565b60008167ffffffffffffffff811115611f3d57611f3c612c75565b5b6040519080825280601f01601f191660200182016040528015611f6f5781602001600182028036833780820191505090505b5090505b60008514611ffc57600182611f889190613a5d565b9150600a85611f979190613e01565b6030611fa3919061347c565b60f81b818381518110611fb957611fb86137e6565b5b60200101907effffffffffffffffffffffffffffffffffffffffffffffffffffffffffffff1916908160001a905350600a85611ff59190613dd0565b9450611f73565b8093505050505b919050565b600061201682600001612337565b9050919050565b600061202c8360000183612348565b60001c905092915050565b6120428383836123bc565b600073ffffffffffffffffffffffffffffffffffffffff168373ffffffffffffffffffffffffffffffffffffffff16146120c9576120c781600f60008673ffffffffffffffffffffffffffffffffffffffff1673ffffffffffffffffffffffffffffffffffffffff1681526020019081526020016000206123c190919063ffffffff16565b505b600073ffffffffffffffffffffffffffffffffffffffff168273ffffffffffffffffffffffffffffffffffffffff16146121505761214e81600f60008573ffffffffffffffffffffffffffffffffffffffff1673ffffffffffffffffffffffffffffffffffffffff1681526020019081526020016000206123db90919063ffffffff16565b505b505050565b61215f83836123f5565b61216c60008484846121b0565b6121ab576040517f08c379a00000000000000000000000000000000000000000000000000000000081526004016121a290613d81565b60405180910390fd5b505050565b60006121d18473ffffffffffffffffffffffffffffffffffffffff166125c2565b1561232a578373ffffffffffffffffffffffffffffffffffffffff1663150b7a026121fa6119c0565b8786866040518563ffffffff1660e01b815260040161221c9493929190613e87565b6020604051808303816000875af192505050801561225857506040513d601f19601f820116820180604052508101906122559190613ee8565b60015b6122da573d8060008114612288576040519150601f19603f3d011682016040523d82523d6000602084013e61228d565b606091505b5060008151036122d2576040517f08c379a00000000000000000000000000000000000000000000000000000000081526004016122c990613d81565b60405180910390fd5b805181602001fd5b63150b7a0260e01b7bffffffffffffffffffffffffffffffffffffffffffffffffffffffff1916817bffffffffffffffffffffffffffffffffffffffffffffffffffffffff19161491505061232f565b600190505b949350505050565b600081600001805490509050919050565b600081836000018054905011612393576040517f08c379a000000000000000000000000000000000000000000000000000000000815260040161238a90613f87565b60405180910390fd5b8260000182815481106123a9576123a86137e6565b5b9060005260206000200154905092915050565b505050565b60006123d3836000018360001b6125d5565b905092915050565b60006123ed836000018360001b6126ed565b905092915050565b600073ffffffffffffffffffffffffffffffffffffffff168273ffffffffffffffffffffffffffffffffffffffff1603612464576040517f08c379a000000000000000000000000000000000000000000000000000000000815260040161245b90613ff3565b60405180910390fd5b61246d81611954565b156124ad576040517f08c379a00000000000000000000000000000000000000000000000000000000081526004016124a49061405f565b60405180910390fd5b6124b960008383612037565b6001600360008473ffffffffffffffffffffffffffffffffffffffff1673ffffffffffffffffffffffffffffffffffffffff1681526020019081526020016000206000828254612509919061347c565b92505081905550816002600083815260200190815260200160002060006101000a81548173ffffffffffffffffffffffffffffffffffffffff021916908373ffffffffffffffffffffffffffffffffffffffff160217905550808273ffffffffffffffffffffffffffffffffffffffff16600073ffffffffffffffffffffffffffffffffffffffff167fddf252ad1be2c89b69c2b068fc378daa952ba7f163c4a11628f55a4df523b3ef60405160405180910390a45050565b600080823b905060008111915050919050565b600080836001016000848152602001908152602001600020549050600081146126e15760006001826126079190613a5d565b905060006001866000018054905061261f9190613a5d565b90506000866000018281548110612639576126386137e6565b5b906000526020600020015490508087600001848154811061265d5761265c6137e6565b5b9060005260206000200181905550600183612678919061347c565b87600101600083815260200190815260200160002081905550866000018054806126a5576126a461407f565b5b600190038181906000526020600020016000905590558660010160008781526020019081526020016000206000905560019450505050506126e7565b60009150505b92915050565b60006126f9838361275d565b612752578260000182908060018154018082558091505060019003906000526020600020016000909190919091505582600001805490508360010160008481526020019081526020016000208190555060019050612757565b600090505b92915050565b600080836001016000848152602001908152602001600020541415905092915050565b60008115159050919050565b61279581612780565b82525050565b60006020820190506127b0600083018461278c565b92915050565b6000604051905090565b600080fd5b600080fd5b60007fffffffff0000000000000000000000000000000000000000000000000000000082169050919050565b6127ff816127ca565b811461280a57600080fd5b50565b60008135905061281c816127f6565b92915050565b600060208284031215612838576128376127c0565b5b60006128468482850161280d565b91505092915050565b600081519050919050565b600082825260208201905092915050565b60005b8381101561288957808201518184015260208101905061286e565b60008484015250505050565b6000601f19601f8301169050919050565b60006128b18261284f565b6128bb818561285a565b93506128cb81856020860161286b565b6128d481612895565b840191505092915050565b600060208201905081810360008301526128f981846128a6565b905092915050565b6000819050919050565b61291481612901565b811461291f57600080fd5b50565b6000813590506129318161290b565b92915050565b60006020828403121561294d5761294c6127c0565b5b600061295b84828501612922565b91505092915050565b600073ffffffffffffffffffffffffffffffffffffffff82169050919050565b600061298f82612964565b9050919050565b61299f81612984565b82525050565b60006020820190506129ba6000830184612996565b92915050565b6129c981612984565b81146129d457600080fd5b50565b6000813590506129e6816129c0565b92915050565b60008060408385031215612a0357612a026127c0565b5b6000612a11858286016129d7565b9250506020612a2285828601612922565b9150509250929050565b612a3581612901565b82525050565b6000602082019050612a506000830184612a2c565b92915050565b600080600060608486031215612a6f57612a6e6127c0565b5b6000612a7d868287016129d7565b9350506020612a8e868287016129d7565b9250506040612a9f86828701612922565b9150509250925092565b600080fd5b600080fd5b600080fd5b60008083601f840112612ace57612acd612aa9565b5b8235905067ffffffffffffffff811115612aeb57612aea612aae565b5b602083019150836001820283011115612b0757612b06612ab3565b5b9250929050565b600080600060408486031215612b2757612b266127c0565b5b6000612b35868287016129d7565b935050602084013567ffffffffffffffff811115612b5657612b556127c5565b5b612b6286828701612ab8565b92509250509250925092565b600060208284031215612b8457612b836127c0565b5b6000612b92848285016129d7565b91505092915050565b612ba481612780565b8114612baf57600080fd5b50565b600081359050612bc181612b9b565b92915050565b600060208284031215612bdd57612bdc6127c0565b5b6000612beb84828501612bb2565b91505092915050565b6000612bff82612964565b9050919050565b612c0f81612bf4565b82525050565b6000602082019050612c2a6000830184612c06565b92915050565b60008060408385031215612c4757612c466127c0565b5b6000612c55858286016129d7565b9250506020612c6685828601612bb2565b9150509250929050565b600080fd5b7f4e487b7100000000000000000000000000000000000000000000000000000000600052604160045260246000fd5b612cad82612895565b810181811067ffffffffffffffff82111715612ccc57612ccb612c75565b5b80604052505050565b6000612cdf6127b6565b9050612ceb8282612ca4565b919050565b600067ffffffffffffffff821115612d0b57612d0a612c75565b5b612d1482612895565b9050602081019050919050565b82818337600083830152505050565b6000612d43612d3e84612cf0565b612cd5565b905082815260208101848484011115612d5f57612d5e612c70565b5b612d6a848285612d21565b509392505050565b600082601f830112612d8757612d86612aa9565b5b8135612d97848260208601612d30565b91505092915050565b60008060008060808587031215612dba57612db96127c0565b5b6000612dc8878288016129d7565b9450506020612dd9878288016129d7565b9350506040612dea87828801612922565b925050606085013567ffffffffffffffff811115612e0b57612e0a6127c5565b5b612e1787828801612d72565b91505092959194509250565b600081519050919050565b600082825260208201905092915050565b6000819050602082019050919050565b612e5881612901565b82525050565b6000612e6a8383612e4f565b60208301905092915050565b6000602082019050919050565b6000612e8e82612e23565b612e988185612e2e565b9350612ea383612e3f565b8060005b83811015612ed4578151612ebb8882612e5e565b9750612ec683612e76565b925050600181019050612ea7565b5085935050505092915050565b60006020820190508181036000830152612efb8184612e83565b905092915050565b60008060408385031215612f1a57612f196127c0565b5b6000612f28858286016129d7565b9250506020612f39858286016129d7565b9150509250929050565b7f4e487b7100000000000000000000000000000000000000000000000000000000600052602260045260246000fd5b60006002820490506001821680612f8a57607f821691505b602082108103612f9d57612f9c612f43565b5b50919050565b7f4552433732313a20617070726f76656420717565727920666f72206e6f6e657860008201527f697374656e7420746f6b656e0000000000000000000000000000000000000000602082015250565b6000612fff602c8361285a565b915061300a82612fa3565b604082019050919050565b6000602082019050818103600083015261302e81612ff2565b9050919050565b7f4552433732313a20617070726f76616c20746f2063757272656e74206f776e6560008201527f7200000000000000000000000000000000000000000000000000000000000000602082015250565b600061309160218361285a565b915061309c82613035565b604082019050919050565b600060208201905081810360008301526130c081613084565b9050919050565b7f4552433732313a20617070726f76652063616c6c6572206973206e6f74206f7760008201527f6e6572206e6f7220617070726f76656420666f7220616c6c0000000000000000602082015250565b600061312360388361285a565b915061312e826130c7565b604082019050919050565b6000602082019050818103600083015261315281613116565b9050919050565b7f4552433732313a207472616e736665722063616c6c6572206973206e6f74206f60008201527f776e6572206e6f7220617070726f766564000000000000000000000000000000602082015250565b60006131b560318361285a565b91506131c082613159565b604082019050919050565b600060208201905081810360008301526131e4816131a8565b9050919050565b7f4f776e61626c653a2063616c6c6572206973206e6f7420746865206f776e6572600082015250565b600061322160208361285a565b915061322c826131eb565b602082019050919050565b6000602082019050818103600083015261325081613214565b9050919050565b600081905092915050565b50565b6000613272600083613257565b915061327d82613262565b600082019050919050565b600061329382613265565b9150819050919050565b7f5769746864726177616c206661696c6564000000000000000000000000000000600082015250565b60006132d360118361285a565b91506132de8261329d565b602082019050919050565b60006020820190508181036000830152613302816132c6565b9050919050565b7f496e636f7272656374204554482076616c756500000000000000000000000000600082015250565b600061333f60138361285a565b915061334a82613309565b602082019050919050565b6000602082019050818103600083015261336e81613332565b9050919050565b7f5075626c6963206d696e74696e67206973206e6f7420656e61626c6564000000600082015250565b60006133ab601d8361285a565b91506133b682613375565b602082019050919050565b600060208201905081810360008301526133da8161339e565b9050919050565b7f4d6178696d756d20737570706c79207265616368656400000000000000000000600082015250565b600061341760168361285a565b9150613422826133e1565b602082019050919050565b600060208201905081810360008301526134468161340a565b9050919050565b7f4e487b7100000000000000000000000000000000000000000000000000000000600052601160045260246000fd5b600061348782612901565b915061349283612901565b92508282019050808211156134aa576134a961344d565b5b92915050565b7f4d6178207065722077616c6c6574207265616368656400000000000000000000600082015250565b60006134e660168361285a565b91506134f1826134b0565b602082019050919050565b60006020820190508181036000830152613515816134d9565b9050919050565b600061352782612901565b91507fffffffffffffffffffffffffffffffffffffffffffffffffffffffffffffffff82036135595761355861344d565b5b600182019050919050565b7f4552433732313a206f776e657220717565727920666f72206e6f6e657869737460008201527f656e7420746f6b656e0000000000000000000000000000000000000000000000602082015250565b60006135c060298361285a565b91506135cb82613564565b604082019050919050565b600060208201905081810360008301526135ef816135b3565b9050919050565b7f4552433732313a2062616c616e636520717565727920666f7220746865207a6560008201527f726f206164647265737300000000000000000000000000000000000000000000602082015250565b6000613652602a8361285a565b915061365d826135f6565b604082019050919050565b6000602082019050818103600083015261368181613645565b9050919050565b7f4552433732313a20617070726f766520746f2063616c6c657200000000000000600082015250565b60006136be60198361285a565b91506136c982613688565b602082019050919050565b600060208201905081810360008301526136ed816136b1565b9050919050565b7f4552433732314d657461646174613a2055524920717565727920666f72206e6f60008201527f6e6578697374656e7420746f6b656e0000000000000000000000000000000000602082015250565b6000613750602f8361285a565b915061375b826136f4565b604082019050919050565b6000602082019050818103600083015261377f81613743565b9050919050565b600081905092915050565b600061379c8261284f565b6137a68185613786565b93506137b681856020860161286b565b80840191505092915050565b60006137ce8285613791565b91506137da8284613791565b91508190509392505050565b7f4e487b7100000000000000000000000000000000000000000000000000000000600052603260045260246000fd5b7f4f776e61626c653a206e6577206f776e657220697320746865207a65726f206160008201527f6464726573730000000000000000000000000000000000000000000000000000602082015250565b600061387160268361285a565b915061387c82613815565b604082019050919050565b600060208201905081810360008301526138a081613864565b9050919050565b7f4552433732313a206f70657261746f7220717565727920666f72206e6f6e657860008201527f697374656e7420746f6b656e0000000000000000000000000000000000000000602082015250565b6000613903602c8361285a565b915061390e826138a7565b604082019050919050565b60006020820190508181036000830152613932816138f6565b9050919050565b7f4552433732313a207472616e73666572206f6620746f6b656e2074686174206960008201527f73206e6f74206f776e0000000000000000000000000000000000000000000000602082015250565b600061399560298361285a565b91506139a082613939565b604082019050919050565b600060208201905081810360008301526139c481613988565b9050919050565b7f4552433732313a207472616e7366657220746f20746865207a65726f2061646460008201527f7265737300000000000000000000000000000000000000000000000000000000602082015250565b6000613a2760248361285a565b9150613a32826139cb565b604082019050919050565b60006020820190508181036000830152613a5681613a1a565b9050919050565b6000613a6882612901565b9150613a7383612901565b9250828203905081811115613a8b57613a8a61344d565b5b92915050565b60008190508160005260206000209050919050565b60006020601f8301049050919050565b600082821b905092915050565b600060088302613af37fffffffffffffffffffffffffffffffffffffffffffffffffffffffffffffffff82613ab6565b613afd8683613ab6565b95508019841693508086168417925050509392505050565b6000819050919050565b6000613b3a613b35613b3084612901565b613b15565b612901565b9050919050565b6000819050919050565b613b5483613b1f565b613b68613b6082613b41565b848454613ac3565b825550505050565b600090565b613b7d613b70565b613b88818484613b4b565b505050565b5b81811015613bac57613ba1600082613b75565b600181019050613b8e565b5050565b601f821115613bf157613bc281613a91565b613bcb84613aa6565b81016020851015613bda578190505b613bee613be685613aa6565b830182613b8d565b50505b505050565b600082821c905092915050565b6000613c1460001984600802613bf6565b1980831691505092915050565b6000613c2d8383613c03565b9150826002028217905092915050565b613c468261284f565b67ffffffffffffffff811115613c5f57613c5e612c75565b5b613c698254612f72565b613c74828285613bb0565b600060209050601f831160018114613ca75760008415613c95578287015190505b613c9f8582613c21565b865550613d07565b601f198416613cb586613a91565b60005b82811015613cdd57848901518255600182019150602085019450602081019050613cb8565b86831015613cfa5784890151613cf6601f891682613c03565b8355505b6001600288020188555050505b505050505050565b7f4552433732313a207472616e7366657220746f206e6f6e20455243373231526560008201527f63656976657220696d706c656d656e7465720000000000000000000000000000602082015250565b6000613d6b60328361285a565b9150613d7682613d0f565b604082019050919050565b60006020820190508181036000830152613d9a81613d5e565b9050919050565b7f4e487b7100000000000000000000000000000000000000000000000000000000600052601260045260246000fd5b6000613ddb82612901565b9150613de683612901565b925082613df657613df5613da1565b5b828204905092915050565b6000613e0c82612901565b9150613e1783612901565b925082613e2757613e26613da1565b5b828206905092915050565b600081519050919050565b600082825260208201905092915050565b6000613e5982613e32565b613e638185613e3d565b9350613e7381856020860161286b565b613e7c81612895565b840191505092915050565b6000608082019050613e9c6000830187612996565b613ea96020830186612996565b613eb66040830185612a2c565b8181036060830152613ec88184613e4e565b905095945050505050565b600081519050613ee2816127f6565b92915050565b600060208284031215613efe57613efd6127c0565b5b6000613f0c84828501613ed3565b91505092915050565b7f456e756d657261626c655365743a20696e646578206f7574206f6620626f756e60008201527f6473000000000000000000000000000000000000000000000000000000000000602082015250565b6000613f7160228361285a565b9150613f7c82613f15565b604082019050919050565b60006020820190508181036000830152613fa081613f64565b9050919050565b7f4552433732313a206d696e7420746f20746865207a65726f2061646472657373600082015250565b6000613fdd60208361285a565b9150613fe882613fa7565b602082019050919050565b6000602082019050818103600083015261400c81613fd0565b9050919050565b7f4552433732313a20746f6b656e20616c7265616479206d696e74656400000000600082015250565b6000614049601c8361285a565b915061405482614013565b602082019050919050565b600060208201905081810360008301526140788161403c565b9050919050565b7f4e487b7100000000000000000000000000000000000000000000000000000000600052603160045260246000fdfea2646970667358221220ad53171b4b37f1cd854f2cc1bccef48a7230c44f124479142bcfbbefa35ef46d64736f6c63430008140033",
  "linkReferences": {},
  "deployedLinkReferences": {}
}