{
  "_format": "hh-sol-artifact-1",
  "contractName": "IDCDS",
  "sourceName": "contracts/IDCDS.sol",
  "abi": [
    {
      "inputs": [],
      "stateMutability": "payable",
      "type": "constructor"
    },
    {
      "anonymous": false,
      "inputs": [
        {
          "indexed": true,
          "internalType": "address",
          "name": "owner",
          "type": "address"
        },
        {
          "indexed": true,
          "internalType": "address",
          "name": "approved",
          "type": "address"
        },
        {
          "indexed": true,
          "internalType": "uint256",
          "name": "tokenId",
          "type": "uint256"
        }
      ],
      "name": "Approval",
      "type": "event"
    },
    {
      "anonymous": false,
      "inputs": [
        {
          "indexed": true,
          "internalType": "address",
          "name": "owner",
          "type": "address"
        },
        {
          "indexed": true,
          "internalType": "address",
          "name": "operator",
          "type": "address"
        },
        {
          "indexed": false,
          "internalType": "bool",
          "name": "approved",
          "type": "bool"
        }
      ],
      "name": "ApprovalForAll",
      "type": "event"
    },
    {
      "anonymous": false,
      "inputs": [
        {
          "indexed": true,
          "internalType": "address",
          "name": "previousOwner",
          "type": "address"
        },
        {
          "indexed": true,
          "internalType": "address",
          "name": "newOwner",
          "type": "address"
        }
      ],
      "name": "OwnershipTransferred",
      "type": "event"
    },
    {
      "anonymous": false,
      "inputs": [
        {
          "indexed": true,
          "internalType": "uint256",
          "name": "tokenId",
          "type": "uint256"
        },
        {
          "indexed": false,
          "internalType": "string",
          "name": "tokenURI",
          "type": "string"
        }
      ],
      "name": "TokenURISet",
      "type": "event"
    },
    {
      "anonymous": false,
      "inputs": [
        {
          "indexed": true,
          "internalType": "address",
          "name": "from",
          "type": "address"
        },
        {
          "indexed": true,
          "internalType": "address",
          "name": "to",
          "type": "address"
        },
        {
          "indexed": true,
          "internalType": "uint256",
          "name": "tokenId",
          "type": "uint256"
        }
      ],
      "name": "Transfer",
      "type": "event"
    },
    {
      "inputs": [
        {
          "internalType": "address",
          "name": "to",
          "type": "address"
        },
        {
          "internalType": "uint256",
          "name": "tokenId",
          "type": "uint256"
        }
      ],
      "name": "approve",
      "outputs": [],
      "stateMutability": "nonpayable",
      "type": "function"
    },
    {
      "inputs": [
        {
          "internalType": "address",
          "name": "owner",
          "type": "address"
        }
      ],
      "name": "balanceOf",
      "outputs": [
        {
          "internalType": "uint256",
          "name": "",
          "type": "uint256"
        }
      ],
      "stateMutability": "view",
      "type": "function"
    },
    {
      "inputs": [
        {
          "internalType": "uint256",
          "name": "tokenId",
          "type": "uint256"
        }
      ],
      "name": "getApproved",
      "outputs": [
        {
          "internalType": "address",
          "name": "",
          "type": "address"
        }
      ],
      "stateMutability": "view",
      "type": "function"
    },
    {
      "inputs": [
        {
          "internalType": "address",
          "name": "owner",
          "type": "address"
        }
      ],
      "name": "getOwnedTokens",
      "outputs": [
        {
          "internalType": "uint256[]",
          "name": "",
          "type": "uint256[]"
        }
      ],
      "stateMutability": "view",
      "type": "function"
    },
    {
      "inputs": [
        {
          "internalType": "uint256",
          "name": "tokenId",
          "type": "uint256"
        }
      ],
      "name": "getTokenURI",
      "outputs": [
        {
          "internalType": "string",
          "name": "",
          "type": "string"
        }
      ],
      "stateMutability": "view",
      "type": "function"
    },
    {
      "inputs": [
        {
          "internalType": "address",
          "name": "owner",
          "type": "address"
        },
        {
          "internalType": "address",
          "name": "operator",
          "type": "address"
        }
      ],
      "name": "isApprovedForAll",
      "outputs": [
        {
          "internalType": "bool",
          "name": "",
          "type": "bool"
        }
      ],
      "stateMutability": "view",
      "type": "function"
    },
    {
      "inputs": [],
      "name": "isPublicMintEnabled",
      "outputs": [
        {
          "internalType": "bool",
          "name": "",
          "type": "bool"
        }
      ],
      "stateMutability": "view",
      "type": "function"
    },
    {
      "inputs": [],
      "name": "maxPerWallet",
      "outputs": [
        {
          "internalType": "uint256",
          "name": "",
          "type": "uint256"
        }
      ],
      "stateMutability": "view",
      "type": "function"
    },
    {
      "inputs": [],
      "name": "maxSupply",
      "outputs": [
        {
          "internalType": "uint256",
          "name": "",
          "type": "uint256"
        }
      ],
      "stateMutability": "view",
      "type": "function"
    },
    {
      "inputs": [
        {
          "internalType": "uint256",
          "name": "quantity_",
          "type": "uint256"
        },
        {
          "internalType": "string",
          "name": "tokenURI_",
          "type": "string"
        }
      ],
      "name": "mint",
      "outputs": [],
      "stateMutability": "payable",
      "type": "function"
    },
    {
      "inputs": [],
      "name": "mintPrice",
      "outputs": [
        {
          "internalType": "uint256",
          "name": "",
          "type": "uint256"
        }
      ],
      "stateMutability": "view",
      "type": "function"
    },
    {
      "inputs": [],
      "name": "name",
      "outputs": [
        {
          "internalType": "string",
          "name": "",
          "type": "string"
        }
      ],
      "stateMutability": "view",
      "type": "function"
    },
    {
      "inputs": [],
      "name": "owner",
      "outputs": [
        {
          "internalType": "address",
          "name": "",
          "type": "address"
        }
      ],
      "stateMutability": "view",
      "type": "function"
    },
    {
      "inputs": [
        {
          "internalType": "uint256",
          "name": "tokenId",
          "type": "uint256"
        }
      ],
      "name": "ownerOf",
      "outputs": [
        {
          "internalType": "address",
          "name": "",
          "type": "address"
        }
      ],
      "stateMutability": "view",
      "type": "function"
    },
    {
      "inputs": [],
      "name": "renounceOwnership",
      "outputs": [],
      "stateMutability": "nonpayable",
      "type": "function"
    },
    {
      "inputs": [
        {
          "internalType": "address",
          "name": "from",
          "type": "address"
        },
        {
          "internalType": "address",
          "name": "to",
          "type": "address"
        },
        {
          "internalType": "uint256",
          "name": "tokenId",
          "type": "uint256"
        }
      ],
      "name": "safeTransferFrom",
      "outputs": [],
      "stateMutability": "nonpayable",
      "type": "function"
    },
    {
      "inputs": [
        {
          "internalType": "address",
          "name": "from",
          "type": "address"
        },
        {
          "internalType": "address",
          "name": "to",
          "type": "address"
        },
        {
          "internalType": "uint256",
          "name": "tokenId",
          "type": "uint256"
        },
        {
          "internalType": "bytes",
          "name": "_data",
          "type": "bytes"
        }
      ],
      "name": "safeTransferFrom",
      "outputs": [],
      "stateMutability": "nonpayable",
      "type": "function"
    },
    {
      "inputs": [
        {
          "internalType": "address",
          "name": "operator",
          "type": "address"
        },
        {
          "internalType": "bool",
          "name": "approved",
          "type": "bool"
        }
      ],
      "name": "setApprovalForAll",
      "outputs": [],
      "stateMutability": "nonpayable",
      "type": "function"
    },
    {
      "inputs": [
        {
          "internalType": "bool",
          "name": "isPublicMintEnabled_",
          "type": "bool"
        }
      ],
      "name": "setPublicMintEnabled",
      "outputs": [],
      "stateMutability": "nonpayable",
      "type": "function"
    },
    {
      "inputs": [
        {
          "internalType": "bytes4",
          "name": "interfaceId",
          "type": "bytes4"
        }
      ],
      "name": "supportsInterface",
      "outputs": [
        {
          "internalType": "bool",
          "name": "",
          "type": "bool"
        }
      ],
      "stateMutability": "view",
      "type": "function"
    },
    {
      "inputs": [],
      "name": "symbol",
      "outputs": [
        {
          "internalType": "string",
          "name": "",
          "type": "string"
        }
      ],
      "stateMutability": "view",
      "type": "function"
    },
    {
      "inputs": [
        {
          "internalType": "uint256",
          "name": "tokenId",
          "type": "uint256"
        }
      ],
      "name": "tokenURI",
      "outputs": [
        {
          "internalType": "string",
          "name": "",
          "type": "string"
        }
      ],
      "stateMutability": "view",
      "type": "function"
    },
    {
      "inputs": [],
      "name": "totalSupply",
      "outputs": [
        {
          "internalType": "uint256",
          "name": "",
          "type": "uint256"
        }
      ],
      "stateMutability": "view",
      "type": "function"
    },
    {
      "inputs": [
        {
          "internalType": "address",
          "name": "from",
          "type": "address"
        },
        {
          "internalType": "address",
          "name": "to",
          "type": "address"
        },
        {
          "internalType": "uint256",
          "name": "tokenId",
          "type": "uint256"
        }
      ],
      "name": "transferFrom",
      "outputs": [],
      "stateMutability": "nonpayable",
      "type": "function"
    },
    {
      "inputs": [
        {
          "internalType": "address",
          "name": "newOwner",
          "type": "address"
        }
      ],
      "name": "transferOwnership",
      "outputs": [],
      "stateMutability": "nonpayable",
      "type": "function"
    },
    {
      "inputs": [
        {
          "internalType": "address",
          "name": "",
          "type": "address"
        }
      ],
      "name": "walletMints",
      "outputs": [
        {
          "internalType": "uint256",
          "name": "",
          "type": "uint256"
        }
      ],
      "stateMutability": "view",
      "type": "function"
    },
    {
      "inputs": [],
      "name": "withdraw",
      "outputs": [],
      "stateMutability": "nonpayable",
      "type": "function"
    },
    {
      "inputs": [],
      "name": "withdrawWallet",
      "outputs": [
        {
          "internalType": "address payable",
          "name": "",
          "type": "address"
        }
      ],
      "stateMutability": "view",
      "type": "function"
    }
  ],
  "bytecode": "0x60806040526040518060400160405280600581526020017f49444344530000000000000000000000000000000000000000000000000000008152506040518060400160405280600581526020017f49444344530000000000000000000000000000000000000000000000000000008152508160009081620000819190620003f6565b508060019081620000939190620003f6565b5050506000620000a86200017460201b60201c565b905080600660006101000a81548173ffffffffffffffffffffffffffffffffffffffff021916908373ffffffffffffffffffffffffffffffffffffffff1602179055508073ffffffffffffffffffffffffffffffffffffffff16600073ffffffffffffffffffffffffffffffffffffffff167f8be0079c531659141344cd1fd0a4f28419497f9722a3daafe3b4186f6b6457e060405160405180910390a35066470de4df82000060078190555060006008819055506127106009819055506064600b81905550620004dd565b600033905090565b600081519050919050565b7f4e487b7100000000000000000000000000000000000000000000000000000000600052604160045260246000fd5b7f4e487b7100000000000000000000000000000000000000000000000000000000600052602260045260246000fd5b60006002820490506001821680620001fe57607f821691505b602082108103620002145762000213620001b6565b5b50919050565b60008190508160005260206000209050919050565b60006020601f8301049050919050565b600082821b905092915050565b6000600883026200027e7fffffffffffffffffffffffffffffffffffffffffffffffffffffffffffffffff826200023f565b6200028a86836200023f565b95508019841693508086168417925050509392505050565b6000819050919050565b6000819050919050565b6000620002d7620002d1620002cb84620002a2565b620002ac565b620002a2565b9050919050565b6000819050919050565b620002f383620002b6565b6200030b6200030282620002de565b8484546200024c565b825550505050565b600090565b6200032262000313565b6200032f818484620002e8565b505050565b5b8181101562000357576200034b60008262000318565b60018101905062000335565b5050565b601f821115620003a65762000370816200021a565b6200037b846200022f565b810160208510156200038b578190505b620003a36200039a856200022f565b83018262000334565b50505b505050565b600082821c905092915050565b6000620003cb60001984600802620003ab565b1980831691505092915050565b6000620003e68383620003b8565b9150826002028217905092915050565b62000401826200017c565b67ffffffffffffffff8111156200041d576200041c62000187565b5b620004298254620001e5565b620004368282856200035b565b600060209050601f8311600181146200046e576000841562000459578287015190505b620004658582620003d8565b865550620004d5565b601f1984166200047e866200021a565b60005b82811015620004a85784890151825560018201915060208501945060208101905062000481565b86831015620004c85784890151620004c4601f891682620003b8565b8355505b6001600288020188555050505b505050505050565b61415080620004ed6000396000f3fe6080604052600436106101b75760003560e01c8063715018a6116100ec578063b88d4fde1161008a578063d9d6165511610064578063d9d61655146105ed578063e985e9c51461062a578063f0293fd314610667578063f2fde38b146106a4576101b7565b8063b88d4fde1461055c578063c87b56dd14610585578063d5abeb01146105c2576101b7565b806385d178f4116100c657806385d178f4146104b25780638da5cb5b146104dd57806395d89b4114610508578063a22cb46514610533576101b7565b8063715018a61461045657806377097fc81461046d578063818668d714610489576101b7565b80633bb3a24d11610159578063453c231011610133578063453c2310146103865780636352211e146103b15780636817c76c146103ee57806370a0823114610419576101b7565b80633bb3a24d146103095780633ccfd60b1461034657806342842e0e1461035d576101b7565b8063081812fc11610195578063081812fc1461024f578063095ea7b31461028c57806318160ddd146102b557806323b872dd146102e0576101b7565b80630116bc2d146101bc57806301ffc9a7146101e757806306fdde0314610224575b600080fd5b3480156101c857600080fd5b506101d16106cd565b6040516101de91906127c5565b60405180910390f35b3480156101f357600080fd5b5061020e6004803603810190610209919061284c565b6106e0565b60405161021b91906127c5565b60405180910390f35b34801561023057600080fd5b506102396107c2565b6040516102469190612909565b60405180910390f35b34801561025b57600080fd5b5061027660048036038101906102719190612961565b610854565b60405161028391906129cf565b60405180910390f35b34801561029857600080fd5b506102b360048036038101906102ae9190612a16565b6108d9565b005b3480156102c157600080fd5b506102ca6109f0565b6040516102d79190612a65565b60405180910390f35b3480156102ec57600080fd5b5061030760048036038101906103029190612a80565b6109f6565b005b34801561031557600080fd5b50610330600480360381019061032b9190612961565b610a56565b60405161033d9190612909565b60405180910390f35b34801561035257600080fd5b5061035b610afb565b005b34801561036957600080fd5b50610384600480360381019061037f9190612a80565b610c48565b005b34801561039257600080fd5b5061039b610c68565b6040516103a89190612a65565b60405180910390f35b3480156103bd57600080fd5b506103d860048036038101906103d39190612961565b610c6e565b6040516103e591906129cf565b60405180910390f35b3480156103fa57600080fd5b50610403610d1f565b6040516104109190612a65565b60405180910390f35b34801561042557600080fd5b50610440600480360381019061043b9190612ad3565b610d25565b60405161044d9190612a65565b60405180910390f35b34801561046257600080fd5b5061046b610ddc565b005b61048760048036038101906104829190612b65565b610f19565b005b34801561049557600080fd5b506104b060048036038101906104ab9190612bf1565b611140565b005b3480156104be57600080fd5b506104c76111d9565b6040516104d49190612c3f565b60405180910390f35b3480156104e957600080fd5b506104f26111ff565b6040516104ff91906129cf565b60405180910390f35b34801561051457600080fd5b5061051d611229565b60405161052a9190612909565b60405180910390f35b34801561053f57600080fd5b5061055a60048036038101906105559190612c5a565b6112bb565b005b34801561056857600080fd5b50610583600480360381019061057e9190612dca565b61143b565b005b34801561059157600080fd5b506105ac60048036038101906105a79190612961565b61149d565b6040516105b99190612909565b60405180910390f35b3480156105ce57600080fd5b506105d7611544565b6040516105e49190612a65565b60405180910390f35b3480156105f957600080fd5b50610614600480360381019061060f9190612ad3565b61154a565b6040516106219190612f0b565b60405180910390f35b34801561063657600080fd5b50610651600480360381019061064c9190612f2d565b6116bd565b60405161065e91906127c5565b60405180910390f35b34801561067357600080fd5b5061068e60048036038101906106899190612ad3565b611751565b60405161069b9190612a65565b60405180910390f35b3480156106b057600080fd5b506106cb60048036038101906106c69190612ad3565b611769565b005b600a60009054906101000a900460ff1681565b60007f80ac58cd000000000000000000000000000000000000000000000000000000007bffffffffffffffffffffffffffffffffffffffffffffffffffffffff1916827bffffffffffffffffffffffffffffffffffffffffffffffffffffffff191614806107ab57507f5b5e139f000000000000000000000000000000000000000000000000000000007bffffffffffffffffffffffffffffffffffffffffffffffffffffffff1916827bffffffffffffffffffffffffffffffffffffffffffffffffffffffff1916145b806107bb57506107ba82611914565b5b9050919050565b6060600080546107d190612f9c565b80601f01602080910402602001604051908101604052809291908181526020018280546107fd90612f9c565b801561084a5780601f1061081f5761010080835404028352916020019161084a565b820191906000526020600020905b81548152906001019060200180831161082d57829003601f168201915b5050505050905090565b600061085f8261197e565b61089e576040517f08c379a00000000000000000000000000000000000000000000000000000000081526004016108959061303f565b60405180910390fd5b6004600083815260200190815260200160002060009054906101000a900473ffffffffffffffffffffffffffffffffffffffff169050919050565b60006108e482610c6e565b90508073ffffffffffffffffffffffffffffffffffffffff168373ffffffffffffffffffffffffffffffffffffffff1603610954576040517f08c379a000000000000000000000000000000000000000000000000000000000815260040161094b906130d1565b60405180910390fd5b8073ffffffffffffffffffffffffffffffffffffffff166109736119ea565b73ffffffffffffffffffffffffffffffffffffffff1614806109a257506109a18161099c6119ea565b6116bd565b5b6109e1576040517f08c379a00000000000000000000000000000000000000000000000000000000081526004016109d890613163565b60405180910390fd5b6109eb83836119f2565b505050565b60085481565b610a07610a016119ea565b82611aab565b610a46576040517f08c379a0000000000000000000000000000000000000000000000000000000008152600401610a3d906131f5565b60405180910390fd5b610a51838383611b89565b505050565b6060600e60008381526020019081526020016000208054610a7690612f9c565b80601f0160208091040260200160405190810160405280929190818152602001828054610aa290612f9c565b8015610aef5780601f10610ac457610100808354040283529160200191610aef565b820191906000526020600020905b815481529060010190602001808311610ad257829003601f168201915b50505050509050919050565b610b036119ea565b73ffffffffffffffffffffffffffffffffffffffff16610b216111ff565b73ffffffffffffffffffffffffffffffffffffffff1614610b77576040517f08c379a0000000000000000000000000000000000000000000000000000000008152600401610b6e90613261565b60405180910390fd5b6000600c60009054906101000a900473ffffffffffffffffffffffffffffffffffffffff1673ffffffffffffffffffffffffffffffffffffffff1647604051610bbf906132b2565b60006040518083038185875af1925050503d8060008114610bfc576040519150601f19603f3d011682016040523d82523d6000602084013e610c01565b606091505b5050905080610c45576040517f08c379a0000000000000000000000000000000000000000000000000000000008152600401610c3c90613313565b60405180910390fd5b50565b610c638383836040518060200160405280600081525061143b565b505050565b600b5481565b6000806002600084815260200190815260200160002060009054906101000a900473ffffffffffffffffffffffffffffffffffffffff169050600073ffffffffffffffffffffffffffffffffffffffff168173ffffffffffffffffffffffffffffffffffffffff1603610d16576040517f08c379a0000000000000000000000000000000000000000000000000000000008152600401610d0d906133a5565b60405180910390fd5b80915050919050565b60075481565b60008073ffffffffffffffffffffffffffffffffffffffff168273ffffffffffffffffffffffffffffffffffffffff1603610d95576040517f08c379a0000000000000000000000000000000000000000000000000000000008152600401610d8c90613437565b60405180910390fd5b600360008373ffffffffffffffffffffffffffffffffffffffff1673ffffffffffffffffffffffffffffffffffffffff168152602001908152602001600020549050919050565b610de46119ea565b73ffffffffffffffffffffffffffffffffffffffff16610e026111ff565b73ffffffffffffffffffffffffffffffffffffffff1614610e58576040517f08c379a0000000000000000000000000000000000000000000000000000000008152600401610e4f90613261565b60405180910390fd5b600073ffffffffffffffffffffffffffffffffffffffff16600660009054906101000a900473ffffffffffffffffffffffffffffffffffffffff1673ffffffffffffffffffffffffffffffffffffffff167f8be0079c531659141344cd1fd0a4f28419497f9722a3daafe3b4186f6b6457e060405160405180910390a36000600660006101000a81548173ffffffffffffffffffffffffffffffffffffffff021916908373ffffffffffffffffffffffffffffffffffffffff160217905550565b600a60009054906101000a900460ff16610f68576040517f08c379a0000000000000000000000000000000000000000000000000000000008152600401610f5f906134a3565b60405180910390fd5b60075483610f7691906134f2565b3414610fb7576040517f08c379a0000000000000000000000000000000000000000000000000000000008152600401610fae90613580565b60405180910390fd5b60095483600854610fc891906135a0565b1115611009576040517f08c379a000000000000000000000000000000000000000000000000000000000815260040161100090613620565b60405180910390fd5b600b5483600d60003373ffffffffffffffffffffffffffffffffffffffff1673ffffffffffffffffffffffffffffffffffffffff1681526020019081526020016000205461105791906135a0565b1115611098576040517f08c379a000000000000000000000000000000000000000000000000000000000815260040161108f9061368c565b60405180910390fd5b60005b8381101561113a57600060016008546110b491906135a0565b9050600860008154809291906110c9906136ac565b91905055506110d83382611de4565b6111268185858080601f016020809104026020016040519081016040528093929190818152602001838380828437600081840152601f19601f82011690508083019250505050505050611e02565b508080611132906136ac565b91505061109b565b50505050565b6111486119ea565b73ffffffffffffffffffffffffffffffffffffffff166111666111ff565b73ffffffffffffffffffffffffffffffffffffffff16146111bc576040517f08c379a00000000000000000000000000000000000000000000000000000000081526004016111b390613261565b60405180910390fd5b80600a60006101000a81548160ff02191690831515021790555050565b600c60009054906101000a900473ffffffffffffffffffffffffffffffffffffffff1681565b6000600660009054906101000a900473ffffffffffffffffffffffffffffffffffffffff16905090565b60606001805461123890612f9c565b80601f016020809104026020016040519081016040528092919081815260200182805461126490612f9c565b80156112b15780601f10611286576101008083540402835291602001916112b1565b820191906000526020600020905b81548152906001019060200180831161129457829003601f168201915b5050505050905090565b6112c36119ea565b73ffffffffffffffffffffffffffffffffffffffff168273ffffffffffffffffffffffffffffffffffffffff1603611330576040517f08c379a000000000000000000000000000000000000000000000000000000000815260040161132790613740565b60405180910390fd5b806005600061133d6119ea565b73ffffffffffffffffffffffffffffffffffffffff1673ffffffffffffffffffffffffffffffffffffffff16815260200190815260200160002060008473ffffffffffffffffffffffffffffffffffffffff1673ffffffffffffffffffffffffffffffffffffffff16815260200190815260200160002060006101000a81548160ff0219169083151502179055508173ffffffffffffffffffffffffffffffffffffffff166113ea6119ea565b73ffffffffffffffffffffffffffffffffffffffff167f17307eab39ab6107e8899845ad3d59bd9653f200f220920489ca2b5937696c318360405161142f91906127c5565b60405180910390a35050565b61144c6114466119ea565b83611aab565b61148b576040517f08c379a0000000000000000000000000000000000000000000000000000000008152600401611482906131f5565b60405180910390fd5b61149784848484611e5f565b50505050565b60606114a88261197e565b6114e7576040517f08c379a00000000000000000000000000000000000000000000000000000000081526004016114de906137d2565b60405180910390fd5b60006114f1611ebb565b90506000815111611511576040518060200160405280600081525061153c565b8061151b84611ed2565b60405160200161152c92919061382e565b6040516020818303038152906040525b915050919050565b60095481565b60606000611595600f60008573ffffffffffffffffffffffffffffffffffffffff1673ffffffffffffffffffffffffffffffffffffffff168152602001908152602001600020612032565b67ffffffffffffffff8111156115ae576115ad612c9f565b5b6040519080825280602002602001820160405280156115dc5781602001602082028036833780820191505090505b50905060005b611629600f60008673ffffffffffffffffffffffffffffffffffffffff1673ffffffffffffffffffffffffffffffffffffffff168152602001908152602001600020612032565b8110156116b35761168181600f60008773ffffffffffffffffffffffffffffffffffffffff1673ffffffffffffffffffffffffffffffffffffffff16815260200190815260200160002061204790919063ffffffff16565b82828151811061169457611693613852565b5b60200260200101818152505080806116ab906136ac565b9150506115e2565b5080915050919050565b6000600560008473ffffffffffffffffffffffffffffffffffffffff1673ffffffffffffffffffffffffffffffffffffffff16815260200190815260200160002060008373ffffffffffffffffffffffffffffffffffffffff1673ffffffffffffffffffffffffffffffffffffffff16815260200190815260200160002060009054906101000a900460ff16905092915050565b600d6020528060005260406000206000915090505481565b6117716119ea565b73ffffffffffffffffffffffffffffffffffffffff1661178f6111ff565b73ffffffffffffffffffffffffffffffffffffffff16146117e5576040517f08c379a00000000000000000000000000000000000000000000000000000000081526004016117dc90613261565b60405180910390fd5b600073ffffffffffffffffffffffffffffffffffffffff168173ffffffffffffffffffffffffffffffffffffffff1603611854576040517f08c379a000000000000000000000000000000000000000000000000000000000815260040161184b906138f3565b60405180910390fd5b8073ffffffffffffffffffffffffffffffffffffffff16600660009054906101000a900473ffffffffffffffffffffffffffffffffffffffff1673ffffffffffffffffffffffffffffffffffffffff167f8be0079c531659141344cd1fd0a4f28419497f9722a3daafe3b4186f6b6457e060405160405180910390a380600660006101000a81548173ffffffffffffffffffffffffffffffffffffffff021916908373ffffffffffffffffffffffffffffffffffffffff16021790555050565b60007f01ffc9a7000000000000000000000000000000000000000000000000000000007bffffffffffffffffffffffffffffffffffffffffffffffffffffffff1916827bffffffffffffffffffffffffffffffffffffffffffffffffffffffff1916149050919050565b60008073ffffffffffffffffffffffffffffffffffffffff166002600084815260200190815260200160002060009054906101000a900473ffffffffffffffffffffffffffffffffffffffff1673ffffffffffffffffffffffffffffffffffffffff1614159050919050565b600033905090565b816004600083815260200190815260200160002060006101000a81548173ffffffffffffffffffffffffffffffffffffffff021916908373ffffffffffffffffffffffffffffffffffffffff160217905550808273ffffffffffffffffffffffffffffffffffffffff16611a6583610c6e565b73ffffffffffffffffffffffffffffffffffffffff167f8c5be1e5ebec7d5bd14f71427d1e84f3dd0314c0f7b2291e5b200ac8c7c3b92560405160405180910390a45050565b6000611ab68261197e565b611af5576040517f08c379a0000000000000000000000000000000000000000000000000000000008152600401611aec90613985565b60405180910390fd5b6000611b0083610c6e565b90508073ffffffffffffffffffffffffffffffffffffffff168473ffffffffffffffffffffffffffffffffffffffff161480611b6f57508373ffffffffffffffffffffffffffffffffffffffff16611b5784610854565b73ffffffffffffffffffffffffffffffffffffffff16145b80611b805750611b7f81856116bd565b5b91505092915050565b8273ffffffffffffffffffffffffffffffffffffffff16611ba982610c6e565b73ffffffffffffffffffffffffffffffffffffffff1614611bff576040517f08c379a0000000000000000000000000000000000000000000000000000000008152600401611bf690613a17565b60405180910390fd5b600073ffffffffffffffffffffffffffffffffffffffff168273ffffffffffffffffffffffffffffffffffffffff1603611c6e576040517f08c379a0000000000000000000000000000000000000000000000000000000008152600401611c6590613aa9565b60405180910390fd5b611c79838383612061565b611c846000826119f2565b6001600360008573ffffffffffffffffffffffffffffffffffffffff1673ffffffffffffffffffffffffffffffffffffffff1681526020019081526020016000206000828254611cd49190613ac9565b925050819055506001600360008473ffffffffffffffffffffffffffffffffffffffff1673ffffffffffffffffffffffffffffffffffffffff1681526020019081526020016000206000828254611d2b91906135a0565b92505081905550816002600083815260200190815260200160002060006101000a81548173ffffffffffffffffffffffffffffffffffffffff021916908373ffffffffffffffffffffffffffffffffffffffff160217905550808273ffffffffffffffffffffffffffffffffffffffff168473ffffffffffffffffffffffffffffffffffffffff167fddf252ad1be2c89b69c2b068fc378daa952ba7f163c4a11628f55a4df523b3ef60405160405180910390a4505050565b611dfe82826040518060200160405280600081525061217f565b5050565b80600e60008481526020019081526020016000209081611e229190613ca9565b50817fda84ca2183491f179a603e877b2cb058e42195041c2b9c53d746427e519a34df82604051611e539190612909565b60405180910390a25050565b611e6a848484611b89565b611e76848484846121da565b611eb5576040517f08c379a0000000000000000000000000000000000000000000000000000000008152600401611eac90613ded565b60405180910390fd5b50505050565b606060405180602001604052806000815250905090565b606060008203611f19576040518060400160405280600181526020017f3000000000000000000000000000000000000000000000000000000000000000815250905061202d565b600082905060005b60008214611f4b578080611f34906136ac565b915050600a82611f449190613e3c565b9150611f21565b60008167ffffffffffffffff811115611f6757611f66612c9f565b5b6040519080825280601f01601f191660200182016040528015611f995781602001600182028036833780820191505090505b5090505b6000851461202657600182611fb29190613ac9565b9150600a85611fc19190613e6d565b6030611fcd91906135a0565b60f81b818381518110611fe357611fe2613852565b5b60200101907effffffffffffffffffffffffffffffffffffffffffffffffffffffffffffff1916908160001a905350600a8561201f9190613e3c565b9450611f9d565b8093505050505b919050565b600061204082600001612361565b9050919050565b60006120568360000183612372565b60001c905092915050565b61206c8383836123e6565b600073ffffffffffffffffffffffffffffffffffffffff168373ffffffffffffffffffffffffffffffffffffffff16146120f3576120f181600f60008673ffffffffffffffffffffffffffffffffffffffff1673ffffffffffffffffffffffffffffffffffffffff1681526020019081526020016000206123eb90919063ffffffff16565b505b600073ffffffffffffffffffffffffffffffffffffffff168273ffffffffffffffffffffffffffffffffffffffff161461217a5761217881600f60008573ffffffffffffffffffffffffffffffffffffffff1673ffffffffffffffffffffffffffffffffffffffff16815260200190815260200160002061240590919063ffffffff16565b505b505050565b612189838361241f565b61219660008484846121da565b6121d5576040517f08c379a00000000000000000000000000000000000000000000000000000000081526004016121cc90613ded565b60405180910390fd5b505050565b60006121fb8473ffffffffffffffffffffffffffffffffffffffff166125ec565b15612354578373ffffffffffffffffffffffffffffffffffffffff1663150b7a026122246119ea565b8786866040518563ffffffff1660e01b81526004016122469493929190613ef3565b6020604051808303816000875af192505050801561228257506040513d601f19601f8201168201806040525081019061227f9190613f54565b60015b612304573d80600081146122b2576040519150601f19603f3d011682016040523d82523d6000602084013e6122b7565b606091505b5060008151036122fc576040517f08c379a00000000000000000000000000000000000000000000000000000000081526004016122f390613ded565b60405180910390fd5b805181602001fd5b63150b7a0260e01b7bffffffffffffffffffffffffffffffffffffffffffffffffffffffff1916817bffffffffffffffffffffffffffffffffffffffffffffffffffffffff191614915050612359565b600190505b949350505050565b600081600001805490509050919050565b6000818360000180549050116123bd576040517f08c379a00000000000000000000000000000000000000000000000000000000081526004016123b490613ff3565b60405180910390fd5b8260000182815481106123d3576123d2613852565b5b9060005260206000200154905092915050565b505050565b60006123fd836000018360001b6125ff565b905092915050565b6000612417836000018360001b612717565b905092915050565b600073ffffffffffffffffffffffffffffffffffffffff168273ffffffffffffffffffffffffffffffffffffffff160361248e576040517f08c379a00000000000000000000000000000000000000000000000000000000081526004016124859061405f565b60405180910390fd5b6124978161197e565b156124d7576040517f08c379a00000000000000000000000000000000000000000000000000000000081526004016124ce906140cb565b60405180910390fd5b6124e360008383612061565b6001600360008473ffffffffffffffffffffffffffffffffffffffff1673ffffffffffffffffffffffffffffffffffffffff168152602001908152602001600020600082825461253391906135a0565b92505081905550816002600083815260200190815260200160002060006101000a81548173ffffffffffffffffffffffffffffffffffffffff021916908373ffffffffffffffffffffffffffffffffffffffff160217905550808273ffffffffffffffffffffffffffffffffffffffff16600073ffffffffffffffffffffffffffffffffffffffff167fddf252ad1be2c89b69c2b068fc378daa952ba7f163c4a11628f55a4df523b3ef60405160405180910390a45050565b600080823b905060008111915050919050565b6000808360010160008481526020019081526020016000205490506000811461270b5760006001826126319190613ac9565b90506000600186600001805490506126499190613ac9565b9050600086600001828154811061266357612662613852565b5b906000526020600020015490508087600001848154811061268757612686613852565b5b90600052602060002001819055506001836126a291906135a0565b87600101600083815260200190815260200160002081905550866000018054806126cf576126ce6140eb565b5b60019003818190600052602060002001600090559055866001016000878152602001908152602001600020600090556001945050505050612711565b60009150505b92915050565b60006127238383612787565b61277c578260000182908060018154018082558091505060019003906000526020600020016000909190919091505582600001805490508360010160008481526020019081526020016000208190555060019050612781565b600090505b92915050565b600080836001016000848152602001908152602001600020541415905092915050565b60008115159050919050565b6127bf816127aa565b82525050565b60006020820190506127da60008301846127b6565b92915050565b6000604051905090565b600080fd5b600080fd5b60007fffffffff0000000000000000000000000000000000000000000000000000000082169050919050565b612829816127f4565b811461283457600080fd5b50565b60008135905061284681612820565b92915050565b600060208284031215612862576128616127ea565b5b600061287084828501612837565b91505092915050565b600081519050919050565b600082825260208201905092915050565b60005b838110156128b3578082015181840152602081019050612898565b60008484015250505050565b6000601f19601f8301169050919050565b60006128db82612879565b6128e58185612884565b93506128f5818560208601612895565b6128fe816128bf565b840191505092915050565b6000602082019050818103600083015261292381846128d0565b905092915050565b6000819050919050565b61293e8161292b565b811461294957600080fd5b50565b60008135905061295b81612935565b92915050565b600060208284031215612977576129766127ea565b5b60006129858482850161294c565b91505092915050565b600073ffffffffffffffffffffffffffffffffffffffff82169050919050565b60006129b98261298e565b9050919050565b6129c9816129ae565b82525050565b60006020820190506129e460008301846129c0565b92915050565b6129f3816129ae565b81146129fe57600080fd5b50565b600081359050612a10816129ea565b92915050565b60008060408385031215612a2d57612a2c6127ea565b5b6000612a3b85828601612a01565b9250506020612a4c8582860161294c565b9150509250929050565b612a5f8161292b565b82525050565b6000602082019050612a7a6000830184612a56565b92915050565b600080600060608486031215612a9957612a986127ea565b5b6000612aa786828701612a01565b9350506020612ab886828701612a01565b9250506040612ac98682870161294c565b9150509250925092565b600060208284031215612ae957612ae86127ea565b5b6000612af784828501612a01565b91505092915050565b600080fd5b600080fd5b600080fd5b60008083601f840112612b2557612b24612b00565b5b8235905067ffffffffffffffff811115612b4257612b41612b05565b5b602083019150836001820283011115612b5e57612b5d612b0a565b5b9250929050565b600080600060408486031215612b7e57612b7d6127ea565b5b6000612b8c8682870161294c565b935050602084013567ffffffffffffffff811115612bad57612bac6127ef565b5b612bb986828701612b0f565b92509250509250925092565b612bce816127aa565b8114612bd957600080fd5b50565b600081359050612beb81612bc5565b92915050565b600060208284031215612c0757612c066127ea565b5b6000612c1584828501612bdc565b91505092915050565b6000612c298261298e565b9050919050565b612c3981612c1e565b82525050565b6000602082019050612c546000830184612c30565b92915050565b60008060408385031215612c7157612c706127ea565b5b6000612c7f85828601612a01565b9250506020612c9085828601612bdc565b9150509250929050565b600080fd5b7f4e487b7100000000000000000000000000000000000000000000000000000000600052604160045260246000fd5b612cd7826128bf565b810181811067ffffffffffffffff82111715612cf657612cf5612c9f565b5b80604052505050565b6000612d096127e0565b9050612d158282612cce565b919050565b600067ffffffffffffffff821115612d3557612d34612c9f565b5b612d3e826128bf565b9050602081019050919050565b82818337600083830152505050565b6000612d6d612d6884612d1a565b612cff565b905082815260208101848484011115612d8957612d88612c9a565b5b612d94848285612d4b565b509392505050565b600082601f830112612db157612db0612b00565b5b8135612dc1848260208601612d5a565b91505092915050565b60008060008060808587031215612de457612de36127ea565b5b6000612df287828801612a01565b9450506020612e0387828801612a01565b9350506040612e148782880161294c565b925050606085013567ffffffffffffffff811115612e3557612e346127ef565b5b612e4187828801612d9c565b91505092959194509250565b600081519050919050565b600082825260208201905092915050565b6000819050602082019050919050565b612e828161292b565b82525050565b6000612e948383612e79565b60208301905092915050565b6000602082019050919050565b6000612eb882612e4d565b612ec28185612e58565b9350612ecd83612e69565b8060005b83811015612efe578151612ee58882612e88565b9750612ef083612ea0565b925050600181019050612ed1565b5085935050505092915050565b60006020820190508181036000830152612f258184612ead565b905092915050565b60008060408385031215612f4457612f436127ea565b5b6000612f5285828601612a01565b9250506020612f6385828601612a01565b9150509250929050565b7f4e487b7100000000000000000000000000000000000000000000000000000000600052602260045260246000fd5b60006002820490506001821680612fb457607f821691505b602082108103612fc757612fc6612f6d565b5b50919050565b7f4552433732313a20617070726f76656420717565727920666f72206e6f6e657860008201527f697374656e7420746f6b656e0000000000000000000000000000000000000000602082015250565b6000613029602c83612884565b915061303482612fcd565b604082019050919050565b600060208201905081810360008301526130588161301c565b9050919050565b7f4552433732313a20617070726f76616c20746f2063757272656e74206f776e6560008201527f7200000000000000000000000000000000000000000000000000000000000000602082015250565b60006130bb602183612884565b91506130c68261305f565b604082019050919050565b600060208201905081810360008301526130ea816130ae565b9050919050565b7f4552433732313a20617070726f76652063616c6c6572206973206e6f74206f7760008201527f6e6572206e6f7220617070726f76656420666f7220616c6c0000000000000000602082015250565b600061314d603883612884565b9150613158826130f1565b604082019050919050565b6000602082019050818103600083015261317c81613140565b9050919050565b7f4552433732313a207472616e736665722063616c6c6572206973206e6f74206f60008201527f776e6572206e6f7220617070726f766564000000000000000000000000000000602082015250565b60006131df603183612884565b91506131ea82613183565b604082019050919050565b6000602082019050818103600083015261320e816131d2565b9050919050565b7f4f776e61626c653a2063616c6c6572206973206e6f7420746865206f776e6572600082015250565b600061324b602083612884565b915061325682613215565b602082019050919050565b6000602082019050818103600083015261327a8161323e565b9050919050565b600081905092915050565b50565b600061329c600083613281565b91506132a78261328c565b600082019050919050565b60006132bd8261328f565b9150819050919050565b7f5769746864726177616c206661696c6564000000000000000000000000000000600082015250565b60006132fd601183612884565b9150613308826132c7565b602082019050919050565b6000602082019050818103600083015261332c816132f0565b9050919050565b7f4552433732313a206f776e657220717565727920666f72206e6f6e657869737460008201527f656e7420746f6b656e0000000000000000000000000000000000000000000000602082015250565b600061338f602983612884565b915061339a82613333565b604082019050919050565b600060208201905081810360008301526133be81613382565b9050919050565b7f4552433732313a2062616c616e636520717565727920666f7220746865207a6560008201527f726f206164647265737300000000000000000000000000000000000000000000602082015250565b6000613421602a83612884565b915061342c826133c5565b604082019050919050565b6000602082019050818103600083015261345081613414565b9050919050565b7f5075626c6963206d696e74696e67206973206e6f7420656e61626c6564000000600082015250565b600061348d601d83612884565b915061349882613457565b602082019050919050565b600060208201905081810360008301526134bc81613480565b9050919050565b7f4e487b7100000000000000000000000000000000000000000000000000000000600052601160045260246000fd5b60006134fd8261292b565b91506135088361292b565b92508282026135168161292b565b9150828204841483151761352d5761352c6134c3565b5b5092915050565b7f496e636f7272656374204554482076616c756500000000000000000000000000600082015250565b600061356a601383612884565b915061357582613534565b602082019050919050565b600060208201905081810360008301526135998161355d565b9050919050565b60006135ab8261292b565b91506135b68361292b565b92508282019050808211156135ce576135cd6134c3565b5b92915050565b7f4e6f7420656e6f75676820746f6b656e73206c65667400000000000000000000600082015250565b600061360a601683612884565b9150613615826135d4565b602082019050919050565b60006020820190508181036000830152613639816135fd565b9050919050565b7f4d6178207065722077616c6c6574000000000000000000000000000000000000600082015250565b6000613676600e83612884565b915061368182613640565b602082019050919050565b600060208201905081810360008301526136a581613669565b9050919050565b60006136b78261292b565b91507fffffffffffffffffffffffffffffffffffffffffffffffffffffffffffffffff82036136e9576136e86134c3565b5b600182019050919050565b7f4552433732313a20617070726f766520746f2063616c6c657200000000000000600082015250565b600061372a601983612884565b9150613735826136f4565b602082019050919050565b600060208201905081810360008301526137598161371d565b9050919050565b7f4552433732314d657461646174613a2055524920717565727920666f72206e6f60008201527f6e6578697374656e7420746f6b656e0000000000000000000000000000000000602082015250565b60006137bc602f83612884565b91506137c782613760565b604082019050919050565b600060208201905081810360008301526137eb816137af565b9050919050565b600081905092915050565b600061380882612879565b61381281856137f2565b9350613822818560208601612895565b80840191505092915050565b600061383a82856137fd565b915061384682846137fd565b91508190509392505050565b7f4e487b7100000000000000000000000000000000000000000000000000000000600052603260045260246000fd5b7f4f776e61626c653a206e6577206f776e657220697320746865207a65726f206160008201527f6464726573730000000000000000000000000000000000000000000000000000602082015250565b60006138dd602683612884565b91506138e882613881565b604082019050919050565b6000602082019050818103600083015261390c816138d0565b9050919050565b7f4552433732313a206f70657261746f7220717565727920666f72206e6f6e657860008201527f697374656e7420746f6b656e0000000000000000000000000000000000000000602082015250565b600061396f602c83612884565b915061397a82613913565b604082019050919050565b6000602082019050818103600083015261399e81613962565b9050919050565b7f4552433732313a207472616e73666572206f6620746f6b656e2074686174206960008201527f73206e6f74206f776e0000000000000000000000000000000000000000000000602082015250565b6000613a01602983612884565b9150613a0c826139a5565b604082019050919050565b60006020820190508181036000830152613a30816139f4565b9050919050565b7f4552433732313a207472616e7366657220746f20746865207a65726f2061646460008201527f7265737300000000000000000000000000000000000000000000000000000000602082015250565b6000613a93602483612884565b9150613a9e82613a37565b604082019050919050565b60006020820190508181036000830152613ac281613a86565b9050919050565b6000613ad48261292b565b9150613adf8361292b565b9250828203905081811115613af757613af66134c3565b5b92915050565b60008190508160005260206000209050919050565b60006020601f8301049050919050565b600082821b905092915050565b600060088302613b5f7fffffffffffffffffffffffffffffffffffffffffffffffffffffffffffffffff82613b22565b613b698683613b22565b95508019841693508086168417925050509392505050565b6000819050919050565b6000613ba6613ba1613b9c8461292b565b613b81565b61292b565b9050919050565b6000819050919050565b613bc083613b8b565b613bd4613bcc82613bad565b848454613b2f565b825550505050565b600090565b613be9613bdc565b613bf4818484613bb7565b505050565b5b81811015613c1857613c0d600082613be1565b600181019050613bfa565b5050565b601f821115613c5d57613c2e81613afd565b613c3784613b12565b81016020851015613c46578190505b613c5a613c5285613b12565b830182613bf9565b50505b505050565b600082821c905092915050565b6000613c8060001984600802613c62565b1980831691505092915050565b6000613c998383613c6f565b9150826002028217905092915050565b613cb282612879565b67ffffffffffffffff811115613ccb57613cca612c9f565b5b613cd58254612f9c565b613ce0828285613c1c565b600060209050601f831160018114613d135760008415613d01578287015190505b613d0b8582613c8d565b865550613d73565b601f198416613d2186613afd565b60005b82811015613d4957848901518255600182019150602085019450602081019050613d24565b86831015613d665784890151613d62601f891682613c6f565b8355505b6001600288020188555050505b505050505050565b7f4552433732313a207472616e7366657220746f206e6f6e20455243373231526560008201527f63656976657220696d706c656d656e7465720000000000000000000000000000602082015250565b6000613dd7603283612884565b9150613de282613d7b565b604082019050919050565b60006020820190508181036000830152613e0681613dca565b9050919050565b7f4e487b7100000000000000000000000000000000000000000000000000000000600052601260045260246000fd5b6000613e478261292b565b9150613e528361292b565b925082613e6257613e61613e0d565b5b828204905092915050565b6000613e788261292b565b9150613e838361292b565b925082613e9357613e92613e0d565b5b828206905092915050565b600081519050919050565b600082825260208201905092915050565b6000613ec582613e9e565b613ecf8185613ea9565b9350613edf818560208601612895565b613ee8816128bf565b840191505092915050565b6000608082019050613f0860008301876129c0565b613f1560208301866129c0565b613f226040830185612a56565b8181036060830152613f348184613eba565b905095945050505050565b600081519050613f4e81612820565b92915050565b600060208284031215613f6a57613f696127ea565b5b6000613f7884828501613f3f565b91505092915050565b7f456e756d657261626c655365743a20696e646578206f7574206f6620626f756e60008201527f6473000000000000000000000000000000000000000000000000000000000000602082015250565b6000613fdd602283612884565b9150613fe882613f81565b604082019050919050565b6000602082019050818103600083015261400c81613fd0565b9050919050565b7f4552433732313a206d696e7420746f20746865207a65726f2061646472657373600082015250565b6000614049602083612884565b915061405482614013565b602082019050919050565b600060208201905081810360008301526140788161403c565b9050919050565b7f4552433732313a20746f6b656e20616c7265616479206d696e74656400000000600082015250565b60006140b5601c83612884565b91506140c08261407f565b602082019050919050565b600060208201905081810360008301526140e4816140a8565b9050919050565b7f4e487b7100000000000000000000000000000000000000000000000000000000600052603160045260246000fdfea264697066735822122011f9d1ea885f17e2c0247a211e66faecd5dff4bd801e69715df4087060760ac564736f6c63430008140033",
  "linkReferences": {},
  "deployedLinkReferences": {}
}