{
  "_format": "hh-sol-artifact-1",
  "contractName": "StudentRecord",
  "sourceName": "contracts/StudentRecord.sol",
  "abi": [
    {
      "inputs": [],
      "stateMutability": "nonpayable",
      "type": "constructor"
    },
    {
      "inputs": [],
      "name": "SIGNUP_FEE",
      "outputs": [
        {
          "internalType": "uint256",
          "name": "",
          "type": "uint256"
        }
      ],
      "stateMutability": "view",
      "type": "function"
    },
    {
      "inputs": [
        {
          "internalType": "string",
          "name": "_firstName",
          "type": "string"
        },
        {
          "internalType": "string",
          "name": "_middleName",
          "type": "string"
        },
        {
          "internalType": "string",
          "name": "_lastName",
          "type": "string"
        },
        {
          "internalType": "string",
          "name": "_birthday",
          "type": "string"
        },
        {
          "internalType": "string",
          "name": "_occupancy",
          "type": "string"
        },
        {
          "internalType": "string",
          "name": "_college",
          "type": "string"
        }
      ],
      "name": "addStudent",
      "outputs": [],
      "stateMutability": "payable",
      "type": "function"
    },
    {
      "inputs": [],
      "name": "getStudent",
      "outputs": [
        {
          "components": [
            {
              "internalType": "string",
              "name": "firstName",
              "type": "string"
            },
            {
              "internalType": "string",
              "name": "middleName",
              "type": "string"
            },
            {
              "internalType": "string",
              "name": "lastName",
              "type": "string"
            },
            {
              "internalType": "string",
              "name": "birthday",
              "type": "string"
            },
            {
              "internalType": "string",
              "name": "occupancy",
              "type": "string"
            },
            {
              "internalType": "string",
              "name": "college",
              "type": "string"
            }
          ],
          "internalType": "struct StudentRecord.Student",
          "name": "",
          "type": "tuple"
        }
      ],
      "stateMutability": "view",
      "type": "function"
    },
    {
      "inputs": [
        {
          "internalType": "address",
          "name": "_address",
          "type": "address"
        }
      ],
      "name": "getStudentByAddress",
      "outputs": [
        {
          "components": [
            {
              "internalType": "string",
              "name": "firstName",
              "type": "string"
            },
            {
              "internalType": "string",
              "name": "middleName",
              "type": "string"
            },
            {
              "internalType": "string",
              "name": "lastName",
              "type": "string"
            },
            {
              "internalType": "string",
              "name": "birthday",
              "type": "string"
            },
            {
              "internalType": "string",
              "name": "occupancy",
              "type": "string"
            },
            {
              "internalType": "string",
              "name": "college",
              "type": "string"
            }
          ],
          "internalType": "struct StudentRecord.Student",
          "name": "",
          "type": "tuple"
        }
      ],
      "stateMutability": "view",
      "type": "function"
    },
    {
      "inputs": [],
      "name": "owner",
      "outputs": [
        {
          "internalType": "address",
          "name": "",
          "type": "address"
        }
      ],
      "stateMutability": "view",
      "type": "function"
    },
    {
      "inputs": [],
      "name": "withdraw",
      "outputs": [],
      "stateMutability": "nonpayable",
      "type": "function"
    }
  ],
  "bytecode": "0x608060405234801561001057600080fd5b5033600160006101000a81548173ffffffffffffffffffffffffffffffffffffffff021916908373ffffffffffffffffffffffffffffffffffffffff1602179055506114ee806100616000396000f3fe6080604052600436106100555760003560e01c80633ccfd60b1461005a5780638da5cb5b146100715780638dcbe8881461009c5780639f3da5cc146100c7578063a11d211b14610104578063b439548d14610120575b600080fd5b34801561006657600080fd5b5061006f61014b565b005b34801561007d57600080fd5b5061008661028f565b6040516100939190610c01565b60405180910390f35b3480156100a857600080fd5b506100b16102b5565b6040516100be9190610c35565b60405180910390f35b3480156100d357600080fd5b506100ee60048036038101906100e99190610c90565b6102c0565b6040516100fb9190610df9565b60405180910390f35b61011e60048036038101906101199190610f50565b610684565b005b34801561012c57600080fd5b506101356107c8565b6040516101429190610df9565b60405180910390f35b600160009054906101000a900473ffffffffffffffffffffffffffffffffffffffff1673ffffffffffffffffffffffffffffffffffffffff163373ffffffffffffffffffffffffffffffffffffffff16146101db576040517f08c379a00000000000000000000000000000000000000000000000000000000081526004016101d2906110e2565b60405180910390fd5b600047905060008111610223576040517f08c379a000000000000000000000000000000000000000000000000000000000815260040161021a9061114e565b60405180910390fd5b600160009054906101000a900473ffffffffffffffffffffffffffffffffffffffff1673ffffffffffffffffffffffffffffffffffffffff166108fc829081150290604051600060405180830381858888f1935050505015801561028b573d6000803e3d6000fd5b5050565b600160009054906101000a900473ffffffffffffffffffffffffffffffffffffffff1681565b6611c37937e0800081565b6102c8610b8a565b6000808373ffffffffffffffffffffffffffffffffffffffff1673ffffffffffffffffffffffffffffffffffffffff1681526020019081526020016000206040518060c00160405290816000820180546103219061119d565b80601f016020809104026020016040519081016040528092919081815260200182805461034d9061119d565b801561039a5780601f1061036f5761010080835404028352916020019161039a565b820191906000526020600020905b81548152906001019060200180831161037d57829003601f168201915b505050505081526020016001820180546103b39061119d565b80601f01602080910402602001604051908101604052809291908181526020018280546103df9061119d565b801561042c5780601f106104015761010080835404028352916020019161042c565b820191906000526020600020905b81548152906001019060200180831161040f57829003601f168201915b505050505081526020016002820180546104459061119d565b80601f01602080910402602001604051908101604052809291908181526020018280546104719061119d565b80156104be5780601f10610493576101008083540402835291602001916104be565b820191906000526020600020905b8154815290600101906020018083116104a157829003601f168201915b505050505081526020016003820180546104d79061119d565b80601f01602080910402602001604051908101604052809291908181526020018280546105039061119d565b80156105505780601f1061052557610100808354040283529160200191610550565b820191906000526020600020905b81548152906001019060200180831161053357829003601f168201915b505050505081526020016004820180546105699061119d565b80601f01602080910402602001604051908101604052809291908181526020018280546105959061119d565b80156105e25780601f106105b7576101008083540402835291602001916105e2565b820191906000526020600020905b8154815290600101906020018083116105c557829003601f168201915b505050505081526020016005820180546105fb9061119d565b80601f01602080910402602001604051908101604052809291908181526020018280546106279061119d565b80156106745780601f1061064957610100808354040283529160200191610674565b820191906000526020600020905b81548152906001019060200180831161065757829003601f168201915b5050505050815250509050919050565b6611c37937e080003410156106ce576040517f08c379a00000000000000000000000000000000000000000000000000000000081526004016106c59061121a565b60405180910390fd5b6040518060c00160405280878152602001868152602001858152602001848152602001838152602001828152506000803373ffffffffffffffffffffffffffffffffffffffff1673ffffffffffffffffffffffffffffffffffffffff168152602001908152602001600020600082015181600001908161074e91906113e6565b50602082015181600101908161076491906113e6565b50604082015181600201908161077a91906113e6565b50606082015181600301908161079091906113e6565b5060808201518160040190816107a691906113e6565b5060a08201518160050190816107bc91906113e6565b50905050505050505050565b6107d0610b8a565b6000803373ffffffffffffffffffffffffffffffffffffffff1673ffffffffffffffffffffffffffffffffffffffff1681526020019081526020016000206040518060c00160405290816000820180546108299061119d565b80601f01602080910402602001604051908101604052809291908181526020018280546108559061119d565b80156108a25780601f10610877576101008083540402835291602001916108a2565b820191906000526020600020905b81548152906001019060200180831161088557829003601f168201915b505050505081526020016001820180546108bb9061119d565b80601f01602080910402602001604051908101604052809291908181526020018280546108e79061119d565b80156109345780601f1061090957610100808354040283529160200191610934565b820191906000526020600020905b81548152906001019060200180831161091757829003601f168201915b5050505050815260200160028201805461094d9061119d565b80601f01602080910402602001604051908101604052809291908181526020018280546109799061119d565b80156109c65780601f1061099b576101008083540402835291602001916109c6565b820191906000526020600020905b8154815290600101906020018083116109a957829003601f168201915b505050505081526020016003820180546109df9061119d565b80601f0160208091040260200160405190810160405280929190818152602001828054610a0b9061119d565b8015610a585780601f10610a2d57610100808354040283529160200191610a58565b820191906000526020600020905b815481529060010190602001808311610a3b57829003601f168201915b50505050508152602001600482018054610a719061119d565b80601f0160208091040260200160405190810160405280929190818152602001828054610a9d9061119d565b8015610aea5780601f10610abf57610100808354040283529160200191610aea565b820191906000526020600020905b815481529060010190602001808311610acd57829003601f168201915b50505050508152602001600582018054610b039061119d565b80601f0160208091040260200160405190810160405280929190818152602001828054610b2f9061119d565b8015610b7c5780601f10610b5157610100808354040283529160200191610b7c565b820191906000526020600020905b815481529060010190602001808311610b5f57829003601f168201915b505050505081525050905090565b6040518060c001604052806060815260200160608152602001606081526020016060815260200160608152602001606081525090565b600073ffffffffffffffffffffffffffffffffffffffff82169050919050565b6000610beb82610bc0565b9050919050565b610bfb81610be0565b82525050565b6000602082019050610c166000830184610bf2565b92915050565b6000819050919050565b610c2f81610c1c565b82525050565b6000602082019050610c4a6000830184610c26565b92915050565b6000604051905090565b600080fd5b600080fd5b610c6d81610be0565b8114610c7857600080fd5b50565b600081359050610c8a81610c64565b92915050565b600060208284031215610ca657610ca5610c5a565b5b6000610cb484828501610c7b565b91505092915050565b600081519050919050565b600082825260208201905092915050565b60005b83811015610cf7578082015181840152602081019050610cdc565b60008484015250505050565b6000601f19601f8301169050919050565b6000610d1f82610cbd565b610d298185610cc8565b9350610d39818560208601610cd9565b610d4281610d03565b840191505092915050565b600060c0830160008301518482036000860152610d6a8282610d14565b91505060208301518482036020860152610d848282610d14565b91505060408301518482036040860152610d9e8282610d14565b91505060608301518482036060860152610db88282610d14565b91505060808301518482036080860152610dd28282610d14565b91505060a083015184820360a0860152610dec8282610d14565b9150508091505092915050565b60006020820190508181036000830152610e138184610d4d565b905092915050565b600080fd5b600080fd5b7f4e487b7100000000000000000000000000000000000000000000000000000000600052604160045260246000fd5b610e5d82610d03565b810181811067ffffffffffffffff82111715610e7c57610e7b610e25565b5b80604052505050565b6000610e8f610c50565b9050610e9b8282610e54565b919050565b600067ffffffffffffffff821115610ebb57610eba610e25565b5b610ec482610d03565b9050602081019050919050565b82818337600083830152505050565b6000610ef3610eee84610ea0565b610e85565b905082815260208101848484011115610f0f57610f0e610e20565b5b610f1a848285610ed1565b509392505050565b600082601f830112610f3757610f36610e1b565b5b8135610f47848260208601610ee0565b91505092915050565b60008060008060008060c08789031215610f6d57610f6c610c5a565b5b600087013567ffffffffffffffff811115610f8b57610f8a610c5f565b5b610f9789828a01610f22565b965050602087013567ffffffffffffffff811115610fb857610fb7610c5f565b5b610fc489828a01610f22565b955050604087013567ffffffffffffffff811115610fe557610fe4610c5f565b5b610ff189828a01610f22565b945050606087013567ffffffffffffffff81111561101257611011610c5f565b5b61101e89828a01610f22565b935050608087013567ffffffffffffffff81111561103f5761103e610c5f565b5b61104b89828a01610f22565b92505060a087013567ffffffffffffffff81111561106c5761106b610c5f565b5b61107889828a01610f22565b9150509295509295509295565b600082825260208201905092915050565b7f4e6f7420746865206f776e657200000000000000000000000000000000000000600082015250565b60006110cc600d83611085565b91506110d782611096565b602082019050919050565b600060208201905081810360008301526110fb816110bf565b9050919050565b7f4e6f2062616c616e636520746f20776974686472617700000000000000000000600082015250565b6000611138601683611085565b915061114382611102565b602082019050919050565b600060208201905081810360008301526111678161112b565b9050919050565b7f4e487b7100000000000000000000000000000000000000000000000000000000600052602260045260246000fd5b600060028204905060018216806111b557607f821691505b6020821081036111c8576111c761116e565b5b50919050565b7f496e73756666696369656e74207369676e757020666565000000000000000000600082015250565b6000611204601783611085565b915061120f826111ce565b602082019050919050565b60006020820190508181036000830152611233816111f7565b9050919050565b60008190508160005260206000209050919050565b60006020601f8301049050919050565b600082821b905092915050565b60006008830261129c7fffffffffffffffffffffffffffffffffffffffffffffffffffffffffffffffff8261125f565b6112a6868361125f565b95508019841693508086168417925050509392505050565b6000819050919050565b60006112e36112de6112d984610c1c565b6112be565b610c1c565b9050919050565b6000819050919050565b6112fd836112c8565b611311611309826112ea565b84845461126c565b825550505050565b600090565b611326611319565b6113318184846112f4565b505050565b5b818110156113555761134a60008261131e565b600181019050611337565b5050565b601f82111561139a5761136b8161123a565b6113748461124f565b81016020851015611383578190505b61139761138f8561124f565b830182611336565b50505b505050565b600082821c905092915050565b60006113bd6000198460080261139f565b1980831691505092915050565b60006113d683836113ac565b9150826002028217905092915050565b6113ef82610cbd565b67ffffffffffffffff81111561140857611407610e25565b5b611412825461119d565b61141d828285611359565b600060209050601f831160018114611450576000841561143e578287015190505b61144885826113ca565b8655506114b0565b601f19841661145e8661123a565b60005b8281101561148657848901518255600182019150602085019450602081019050611461565b868310156114a3578489015161149f601f8916826113ac565b8355505b6001600288020188555050505b50505050505056fea26469706673582212204dceca424856c7b28d5fc6b13c94cd44bb7366e3d0257001d3c58c358e9f571d64736f6c63430008140033",
  "linkReferences": {},
  "deployedLinkReferences": {}
}