{
  "_format": "hh-sol-artifact-1",
  "contractName": "StudentRecord",
  "sourceName": "contracts/StudentRecord.sol",
  "abi": [
    {
      "inputs": [],
      "stateMutability": "nonpayable",
      "type": "constructor"
    },
    {
      "inputs": [],
      "name": "SIGNUP_FEE",
      "outputs": [
        {
          "internalType": "uint256",
          "name": "",
          "type": "uint256"
        }
      ],
      "stateMutability": "view",
      "type": "function"
    },
    {
      "inputs": [
        {
          "internalType": "string",
          "name": "_firstName",
          "type": "string"
        },
        {
          "internalType": "string",
          "name": "_middleName",
          "type": "string"
        },
        {
          "internalType": "string",
          "name": "_lastName",
          "type": "string"
        },
        {
          "internalType": "string",
          "name": "_birthday",
          "type": "string"
        },
        {
          "internalType": "string",
          "name": "_occupancy",
          "type": "string"
        },
        {
          "internalType": "string",
          "name": "_college",
          "type": "string"
        }
      ],
      "name": "addStudent",
      "outputs": [],
      "stateMutability": "payable",
      "type": "function"
    },
    {
      "inputs": [],
      "name": "getStudent",
      "outputs": [
        {
          "components": [
            {
              "internalType": "string",
              "name": "firstName",
              "type": "string"
            },
            {
              "internalType": "string",
              "name": "middleName",
              "type": "string"
            },
            {
              "internalType": "string",
              "name": "lastName",
              "type": "string"
            },
            {
              "internalType": "string",
              "name": "birthday",
              "type": "string"
            },
            {
              "internalType": "string",
              "name": "occupancy",
              "type": "string"
            },
            {
              "internalType": "string",
              "name": "college",
              "type": "string"
            }
          ],
          "internalType": "struct StudentRecord.Student",
          "name": "",
          "type": "tuple"
        }
      ],
      "stateMutability": "view",
      "type": "function"
    },
    {
      "inputs": [],
      "name": "owner",
      "outputs": [
        {
          "internalType": "address",
          "name": "",
          "type": "address"
        }
      ],
      "stateMutability": "view",
      "type": "function"
    },
    {
      "inputs": [],
      "name": "withdraw",
      "outputs": [],
      "stateMutability": "nonpayable",
      "type": "function"
    }
  ],
  "bytecode": "0x608060405234801561001057600080fd5b5033600160006101000a81548173ffffffffffffffffffffffffffffffffffffffff021916908373ffffffffffffffffffffffffffffffffffffffff160217905550611089806100616000396000f3fe60806040526004361061004a5760003560e01c80633ccfd60b1461004f5780638da5cb5b146100665780638dcbe88814610091578063a11d211b146100bc578063b439548d146100d8575b600080fd5b34801561005b57600080fd5b50610064610103565b005b34801561007257600080fd5b5061007b610247565b60405161008891906107f5565b60405180910390f35b34801561009d57600080fd5b506100a661026d565b6040516100b39190610829565b60405180910390f35b6100d660048036038101906100d1919061099e565b610278565b005b3480156100e457600080fd5b506100ed6103bc565b6040516100fa9190610bfe565b60405180910390f35b600160009054906101000a900473ffffffffffffffffffffffffffffffffffffffff1673ffffffffffffffffffffffffffffffffffffffff163373ffffffffffffffffffffffffffffffffffffffff1614610193576040517f08c379a000000000000000000000000000000000000000000000000000000000815260040161018a90610c7d565b60405180910390fd5b6000479050600081116101db576040517f08c379a00000000000000000000000000000000000000000000000000000000081526004016101d290610ce9565b60405180910390fd5b600160009054906101000a900473ffffffffffffffffffffffffffffffffffffffff1673ffffffffffffffffffffffffffffffffffffffff166108fc829081150290604051600060405180830381858888f19350505050158015610243573d6000803e3d6000fd5b5050565b600160009054906101000a900473ffffffffffffffffffffffffffffffffffffffff1681565b6611c37937e0800081565b6611c37937e080003410156102c2576040517f08c379a00000000000000000000000000000000000000000000000000000000081526004016102b990610d55565b60405180910390fd5b6040518060c00160405280878152602001868152602001858152602001848152602001838152602001828152506000803373ffffffffffffffffffffffffffffffffffffffff1673ffffffffffffffffffffffffffffffffffffffff16815260200190815260200160002060008201518160000190816103429190610f81565b5060208201518160010190816103589190610f81565b50604082015181600201908161036e9190610f81565b5060608201518160030190816103849190610f81565b50608082015181600401908161039a9190610f81565b5060a08201518160050190816103b09190610f81565b50905050505050505050565b6103c461077e565b6000803373ffffffffffffffffffffffffffffffffffffffff1673ffffffffffffffffffffffffffffffffffffffff1681526020019081526020016000206040518060c001604052908160008201805461041d90610da4565b80601f016020809104026020016040519081016040528092919081815260200182805461044990610da4565b80156104965780601f1061046b57610100808354040283529160200191610496565b820191906000526020600020905b81548152906001019060200180831161047957829003601f168201915b505050505081526020016001820180546104af90610da4565b80601f01602080910402602001604051908101604052809291908181526020018280546104db90610da4565b80156105285780601f106104fd57610100808354040283529160200191610528565b820191906000526020600020905b81548152906001019060200180831161050b57829003601f168201915b5050505050815260200160028201805461054190610da4565b80601f016020809104026020016040519081016040528092919081815260200182805461056d90610da4565b80156105ba5780601f1061058f576101008083540402835291602001916105ba565b820191906000526020600020905b81548152906001019060200180831161059d57829003601f168201915b505050505081526020016003820180546105d390610da4565b80601f01602080910402602001604051908101604052809291908181526020018280546105ff90610da4565b801561064c5780601f106106215761010080835404028352916020019161064c565b820191906000526020600020905b81548152906001019060200180831161062f57829003601f168201915b5050505050815260200160048201805461066590610da4565b80601f016020809104026020016040519081016040528092919081815260200182805461069190610da4565b80156106de5780601f106106b3576101008083540402835291602001916106de565b820191906000526020600020905b8154815290600101906020018083116106c157829003601f168201915b505050505081526020016005820180546106f790610da4565b80601f016020809104026020016040519081016040528092919081815260200182805461072390610da4565b80156107705780601f1061074557610100808354040283529160200191610770565b820191906000526020600020905b81548152906001019060200180831161075357829003601f168201915b505050505081525050905090565b6040518060c001604052806060815260200160608152602001606081526020016060815260200160608152602001606081525090565b600073ffffffffffffffffffffffffffffffffffffffff82169050919050565b60006107df826107b4565b9050919050565b6107ef816107d4565b82525050565b600060208201905061080a60008301846107e6565b92915050565b6000819050919050565b61082381610810565b82525050565b600060208201905061083e600083018461081a565b92915050565b6000604051905090565b600080fd5b600080fd5b600080fd5b600080fd5b6000601f19601f8301169050919050565b7f4e487b7100000000000000000000000000000000000000000000000000000000600052604160045260246000fd5b6108ab82610862565b810181811067ffffffffffffffff821117156108ca576108c9610873565b5b80604052505050565b60006108dd610844565b90506108e982826108a2565b919050565b600067ffffffffffffffff82111561090957610908610873565b5b61091282610862565b9050602081019050919050565b82818337600083830152505050565b600061094161093c846108ee565b6108d3565b90508281526020810184848401111561095d5761095c61085d565b5b61096884828561091f565b509392505050565b600082601f83011261098557610984610858565b5b813561099584826020860161092e565b91505092915050565b60008060008060008060c087890312156109bb576109ba61084e565b5b600087013567ffffffffffffffff8111156109d9576109d8610853565b5b6109e589828a01610970565b965050602087013567ffffffffffffffff811115610a0657610a05610853565b5b610a1289828a01610970565b955050604087013567ffffffffffffffff811115610a3357610a32610853565b5b610a3f89828a01610970565b945050606087013567ffffffffffffffff811115610a6057610a5f610853565b5b610a6c89828a01610970565b935050608087013567ffffffffffffffff811115610a8d57610a8c610853565b5b610a9989828a01610970565b92505060a087013567ffffffffffffffff811115610aba57610ab9610853565b5b610ac689828a01610970565b9150509295509295509295565b600081519050919050565b600082825260208201905092915050565b60005b83811015610b0d578082015181840152602081019050610af2565b60008484015250505050565b6000610b2482610ad3565b610b2e8185610ade565b9350610b3e818560208601610aef565b610b4781610862565b840191505092915050565b600060c0830160008301518482036000860152610b6f8282610b19565b91505060208301518482036020860152610b898282610b19565b91505060408301518482036040860152610ba38282610b19565b91505060608301518482036060860152610bbd8282610b19565b91505060808301518482036080860152610bd78282610b19565b91505060a083015184820360a0860152610bf18282610b19565b9150508091505092915050565b60006020820190508181036000830152610c188184610b52565b905092915050565b600082825260208201905092915050565b7f4e6f7420746865206f776e657200000000000000000000000000000000000000600082015250565b6000610c67600d83610c20565b9150610c7282610c31565b602082019050919050565b60006020820190508181036000830152610c9681610c5a565b9050919050565b7f4e6f2062616c616e636520746f20776974686472617700000000000000000000600082015250565b6000610cd3601683610c20565b9150610cde82610c9d565b602082019050919050565b60006020820190508181036000830152610d0281610cc6565b9050919050565b7f496e73756666696369656e74207369676e757020666565000000000000000000600082015250565b6000610d3f601783610c20565b9150610d4a82610d09565b602082019050919050565b60006020820190508181036000830152610d6e81610d32565b9050919050565b7f4e487b7100000000000000000000000000000000000000000000000000000000600052602260045260246000fd5b60006002820490506001821680610dbc57607f821691505b602082108103610dcf57610dce610d75565b5b50919050565b60008190508160005260206000209050919050565b60006020601f8301049050919050565b600082821b905092915050565b600060088302610e377fffffffffffffffffffffffffffffffffffffffffffffffffffffffffffffffff82610dfa565b610e418683610dfa565b95508019841693508086168417925050509392505050565b6000819050919050565b6000610e7e610e79610e7484610810565b610e59565b610810565b9050919050565b6000819050919050565b610e9883610e63565b610eac610ea482610e85565b848454610e07565b825550505050565b600090565b610ec1610eb4565b610ecc818484610e8f565b505050565b5b81811015610ef057610ee5600082610eb9565b600181019050610ed2565b5050565b601f821115610f3557610f0681610dd5565b610f0f84610dea565b81016020851015610f1e578190505b610f32610f2a85610dea565b830182610ed1565b50505b505050565b600082821c905092915050565b6000610f5860001984600802610f3a565b1980831691505092915050565b6000610f718383610f47565b9150826002028217905092915050565b610f8a82610ad3565b67ffffffffffffffff811115610fa357610fa2610873565b5b610fad8254610da4565b610fb8828285610ef4565b600060209050601f831160018114610feb5760008415610fd9578287015190505b610fe38582610f65565b86555061104b565b601f198416610ff986610dd5565b60005b8281101561102157848901518255600182019150602085019450602081019050610ffc565b8683101561103e578489015161103a601f891682610f47565b8355505b6001600288020188555050505b50505050505056fea2646970667358221220af5c860e7d423d402b29182708f81a3a0c75cd5e0cd2408402a4e8663173995a64736f6c63430008140033",
  "linkReferences": {},
  "deployedLinkReferences": {}
}